{
  "_format": "hh-sol-artifact-1",
  "contractName": "StakingManager",
  "sourceName": "contracts/StakingManager.sol",
  "abi": [
    {
      "inputs": [],
      "stateMutability": "nonpayable",
      "type": "constructor"
    },
    {
      "anonymous": false,
      "inputs": [
        {
          "indexed": false,
          "internalType": "uint256",
          "name": "tvl",
          "type": "uint256"
        },
        {
          "indexed": false,
          "internalType": "uint256",
          "name": "users",
          "type": "uint256"
        },
        {
          "indexed": false,
          "internalType": "uint256",
          "name": "pools",
          "type": "uint256"
        }
      ],
      "name": "GlobalStatsUpdated",
      "type": "event"
    },
    {
      "anonymous": false,
      "inputs": [
        {
          "indexed": true,
          "internalType": "address",
          "name": "previousOwner",
          "type": "address"
        },
        {
          "indexed": true,
          "internalType": "address",
          "name": "newOwner",
          "type": "address"
        }
      ],
      "name": "OwnershipTransferred",
      "type": "event"
    },
    {
      "anonymous": false,
      "inputs": [
        {
          "indexed": true,
          "internalType": "address",
          "name": "stakingContract",
          "type": "address"
        },
        {
          "indexed": false,
          "internalType": "string",
          "name": "name",
          "type": "string"
        }
      ],
      "name": "StakingInstanceAdded",
      "type": "event"
    },
    {
      "anonymous": false,
      "inputs": [
        {
          "indexed": true,
          "internalType": "address",
          "name": "stakingContract",
          "type": "address"
        },
        {
          "indexed": false,
          "internalType": "bool",
          "name": "isActive",
          "type": "bool"
        }
      ],
      "name": "StakingInstanceUpdated",
      "type": "event"
    },
    {
      "inputs": [
        {
          "internalType": "contract StakingPancakeSwap",
          "name": "_stakingContract",
          "type": "address"
        },
        {
          "internalType": "string",
          "name": "_name",
          "type": "string"
        }
      ],
      "name": "addStakingInstance",
      "outputs": [],
      "stateMutability": "nonpayable",
      "type": "function"
    },
    {
      "inputs": [],
      "name": "getGlobalStatsSummary",
      "outputs": [
        {
          "internalType": "uint256",
          "name": "totalStakingInstances",
          "type": "uint256"
        },
        {
          "internalType": "uint256",
          "name": "activeInstances",
          "type": "uint256"
        },
        {
          "internalType": "uint256",
          "name": "tvl",
          "type": "uint256"
        },
        {
          "internalType": "uint256",
          "name": "users",
          "type": "uint256"
        },
        {
          "internalType": "uint256",
          "name": "pools",
          "type": "uint256"
        }
      ],
      "stateMutability": "view",
      "type": "function"
    },
    {
      "inputs": [
        {
          "internalType": "address",
          "name": "_stakingContract",
          "type": "address"
        },
        {
          "internalType": "uint256",
          "name": "_pid",
          "type": "uint256"
        },
        {
          "internalType": "address",
          "name": "_user",
          "type": "address"
        }
      ],
      "name": "getPendingRewards",
      "outputs": [
        {
          "internalType": "uint256",
          "name": "",
          "type": "uint256"
        }
      ],
      "stateMutability": "view",
      "type": "function"
    },
    {
      "inputs": [
        {
          "internalType": "address",
          "name": "_lpToken",
          "type": "address"
        }
      ],
      "name": "getPoolsForLpToken",
      "outputs": [
        {
          "internalType": "address[]",
          "name": "",
          "type": "address[]"
        }
      ],
      "stateMutability": "view",
      "type": "function"
    },
    {
      "inputs": [],
      "name": "getStakingInstanceCount",
      "outputs": [
        {
          "internalType": "uint256",
          "name": "",
          "type": "uint256"
        }
      ],
      "stateMutability": "view",
      "type": "function"
    },
    {
      "inputs": [
        {
          "internalType": "uint256",
          "name": "_index",
          "type": "uint256"
        }
      ],
      "name": "getStakingInstanceDetails",
      "outputs": [
        {
          "internalType": "address",
          "name": "contractAddress",
          "type": "address"
        },
        {
          "internalType": "string",
          "name": "name",
          "type": "string"
        },
        {
          "internalType": "bool",
          "name": "isActive",
          "type": "bool"
        },
        {
          "internalType": "uint256",
          "name": "createdAt",
          "type": "uint256"
        },
        {
          "internalType": "uint256",
          "name": "tvl",
          "type": "uint256"
        },
        {
          "internalType": "uint256",
          "name": "users",
          "type": "uint256"
        },
        {
          "internalType": "uint256",
          "name": "poolCount",
          "type": "uint256"
        }
      ],
      "stateMutability": "view",
      "type": "function"
    },
    {
      "inputs": [
        {
          "internalType": "address",
          "name": "",
          "type": "address"
        }
      ],
      "name": "isRegisteredContract",
      "outputs": [
        {
          "internalType": "bool",
          "name": "",
          "type": "bool"
        }
      ],
      "stateMutability": "view",
      "type": "function"
    },
    {
      "inputs": [
        {
          "internalType": "address",
          "name": "_stakingContract",
          "type": "address"
        },
        {
          "internalType": "address",
          "name": "_user",
          "type": "address"
        }
      ],
      "name": "isUserStaking",
      "outputs": [
        {
          "internalType": "bool",
          "name": "",
          "type": "bool"
        }
      ],
      "stateMutability": "view",
      "type": "function"
    },
    {
      "inputs": [],
      "name": "owner",
      "outputs": [
        {
          "internalType": "address",
          "name": "",
          "type": "address"
        }
      ],
      "stateMutability": "view",
      "type": "function"
    },
    {
      "inputs": [
        {
          "internalType": "address",
          "name": "",
          "type": "address"
        },
        {
          "internalType": "uint256",
          "name": "",
          "type": "uint256"
        }
      ],
      "name": "poolsByLpToken",
      "outputs": [
        {
          "internalType": "address",
          "name": "",
          "type": "address"
        }
      ],
      "stateMutability": "view",
      "type": "function"
    },
    {
      "inputs": [
        {
          "internalType": "address",
          "name": "_stakingContract",
          "type": "address"
        },
        {
          "internalType": "address",
          "name": "_lpToken",
          "type": "address"
        }
      ],
      "name": "registerPoolByLpToken",
      "outputs": [],
      "stateMutability": "nonpayable",
      "type": "function"
    },
    {
      "inputs": [],
      "name": "renounceOwnership",
      "outputs": [],
      "stateMutability": "nonpayable",
      "type": "function"
    },
    {
      "inputs": [
        {
          "internalType": "uint256",
          "name": "",
          "type": "uint256"
        }
      ],
      "name": "stakingInstances",
      "outputs": [
        {
          "internalType": "contract StakingPancakeSwap",
          "name": "stakingContract",
          "type": "address"
        },
        {
          "internalType": "string",
          "name": "name",
          "type": "string"
        },
        {
          "internalType": "bool",
          "name": "isActive",
          "type": "bool"
        },
        {
          "internalType": "uint256",
          "name": "createdAt",
          "type": "uint256"
        }
      ],
      "stateMutability": "view",
      "type": "function"
    },
    {
      "inputs": [],
      "name": "totalPools",
      "outputs": [
        {
          "internalType": "uint256",
          "name": "",
          "type": "uint256"
        }
      ],
      "stateMutability": "view",
      "type": "function"
    },
    {
      "inputs": [],
      "name": "totalUsers",
      "outputs": [
        {
          "internalType": "uint256",
          "name": "",
          "type": "uint256"
        }
      ],
      "stateMutability": "view",
      "type": "function"
    },
    {
      "inputs": [],
      "name": "totalValueLockedUSD",
      "outputs": [
        {
          "internalType": "uint256",
          "name": "",
          "type": "uint256"
        }
      ],
      "stateMutability": "view",
      "type": "function"
    },
    {
      "inputs": [
        {
          "internalType": "address",
          "name": "newOwner",
          "type": "address"
        }
      ],
      "name": "transferOwnership",
      "outputs": [],
      "stateMutability": "nonpayable",
      "type": "function"
    },
    {
      "inputs": [],
      "name": "updateGlobalStats",
      "outputs": [],
      "stateMutability": "nonpayable",
      "type": "function"
    },
    {
      "inputs": [
        {
          "internalType": "uint256",
          "name": "_index",
          "type": "uint256"
        },
        {
          "internalType": "bool",
          "name": "_isActive",
          "type": "bool"
        }
      ],
      "name": "updateStakingInstance",
      "outputs": [],
      "stateMutability": "nonpayable",
      "type": "function"
    }
  ],
  "bytecode": "0x6080806040523461005b5760008054336001600160a01b0319821681178355916001600160a01b03909116907f8be0079c531659141344cd1fd0a4f28419497f9722a3daafe3b4186f6b6457e09080a361125790816100618239f35b600080fdfe6040608081526004908136101561001557600080fd5b600091823560e01c80626aa5c714610e505780631aea47f014610e31578063222cd11c14610d6b5780634172105a14610d4e57806349b1fd7b14610bbf57806369cae55014610b42578063715018a614610ae45780638d5648741461093a5780638da5cb5b14610912578063ab3c7e52146108f3578063b57de2d314610875578063bff1f9e114610856578063cc2583b9146107b9578063cf76bdd014610409578063e1d347c11461035f578063e61d3a5414610266578063e6b1ca211461020a578063f1052af5146101c85763f2fde38b146100f157600080fd5b346101c45760203660031901126101c45761010a610f13565b83546001600160a01b03808216939192610125338614611104565b169384156101645750506001600160a01b031916821783557f8be0079c531659141344cd1fd0a4f28419497f9722a3daafe3b4186f6b6457e08380a380f35b5162461bcd60e51b8152602091810191909152603260248201527f4f776e61626c653a206e6f75766561752070726f707269c3a9746169726520656044820152717374206c2761647265737365207ac3a9726f60701b6064820152608490fd5b8280fd5b5050346102065760203660031901126102065760209160ff9082906001600160a01b036101f3610f13565b1681526002855220541690519015158152f35b5080fd5b505034610206578060031936011261020657610224610f13565b6001600160a01b0390811683526003602052818320805460243594908510156102635750602093610254916110ec565b90549060031b1c169051908152f35b80fd5b50919034610206578060031936011261020657610281610f13565b9061028a610f2e565b6001600160a01b03928316808552600260205282852054909291906102b19060ff166111a3565b8233148015610353575b15610320578316845260036020528320805490600160401b82101561030d57906102ea916001820181556110ec565b909283549160031b92831b921b19161790556103076006546111ef565b60065580f35b634e487b7160e01b855260418652602485fd5b815162461bcd60e51b8152602081880152600d60248201526c4e6f6e206175746f726973c3a960981b6044820152606490fd5b508385541633146102bb565b505034610206576020806003193601126101c4576001600160a01b039283610385610f13565b1681526003825282812091835190818185549182815201908195855282852090855b8181106103f357505050826103bd910383610fce565b8451948186019282875251809352850193925b8281106103dd5785850386f35b83518716855293810193928101926001016103d0565b82548a16845292840192600192830192016103a7565b50346101c457816003193601126101c4576001600160a01b03813581811693908490036107b557602480359267ffffffffffffffff908185116107b157366023860112156107b157848601359582871161079f5784519689602097601f19926104798a85601f840116018c610fce565b808b52368882840101116101c45780888b9301838d01378a0101526104a2838b54163314611104565b881561075d57888a526002875260ff868b20541661071b578551936080850185811082821117610709578752898552878501918983528786019360019788865260608801964288528954600160401b8110156106f657808b61050692018c55610f44565b9990996106e45751166bffffffffffffffffffffffff60a01b89541617885588880194519182519485116106d35750508c8a6105428654610f94565b91601f831161068b575b915050508c8a92601f85116001146105fd575093836105ec9997946105c5947f31a6301c96f9b13ba8bd25faf22b1c31f44418e3bbc0c77fbf6b27c581360fba9e9d9c9a9894600398926105f2575b505060001982881b1c191690881b1790555b511515600285019060ff801983541691151516179055565b51910155868852600284528188209060ff19825416179055519282849384528301906110ac565b0390a280f35b01519050388061059b565b8493929193168584528b8420935b818110610676575098846105c5947f31a6301c96f9b13ba8bd25faf22b1c31f44418e3bbc0c77fbf6b27c581360fba9e9d9c9a989460039894849b986105ec9e1061065e575b505050811b0190556105ad565b0151600019838a1b60f8161c19169055388080610651565b828401518555938a0193928c01928c0161060b565b86815220601f850160051c8101918c86106106c9575b601f0160051c019089908f5b8382106106be5790508c915061054c565b81550189908f6106ad565b90915081906106a1565b634e487b7160e01b8f52604190528dfd5b5050634e487b7160e01b8e528d82528dfd5b5050634e487b7160e01b8e52604182528dfd5b634e487b7160e01b8c5260418452868cfd5b855162461bcd60e51b81528083018890526017818701527f436f6e747261742064656a6120656e72656769737472650000000000000000006044820152606490fd5b855162461bcd60e51b8152808301889052601b818701527f4164726573736520646520636f6e7472617420696e76616c69646500000000006044820152606490fd5b634e487b7160e01b8952604190528288fd5b8780fd5b8480fd5b50346101c457816003193601126101c45735602435908115158083036107b5577fa91ab5b8a26b614d5159c9b2061cb48bd031a68a8530311cf50410f99b2c11b19261084a60209361084560018060a01b039361081a858b54163314611104565b6108276001548410611166565b600261083284610f44565b50019060ff801983541691151516179055565b610f44565b5054169351908152a280f35b5050346102065781600319360112610206576020906005549051908152f35b50913461026357806003193601126102635760015491815b8381106108ba575060a0935460055491600654938151958652602086015284015260608301526080820152f35b60ff60026108c783610f44565b500154166108de575b6108d9906111ef565b61088d565b916108eb6108d9916111ef565b9290506108d0565b5050346102065781600319360112610206576020906006549051908152f35b505034610206578160031936011261020657905490516001600160a01b039091168152602090f35b5090346101c457602092836003193601126102635761096183356108456001548210611166565b509260018060a01b038454169360ff6002820154169360038201549080519263760c0aa760e11b8452888486818b5afa938415610ada578694610aa7575b508151630909705160e41b815294898682818c5afa958615610a9d578796610a6a575b50898351809263040f1f6d60e11b8252818c5afa968715610a5f578097610a2a575b50506109f56001610a0b9201611006565b60e083519a8b9a8b528a015260e08901906110ac565b951515908701526060860152608085015260a084015260c08301520390f35b909196508982813d8311610a58575b610a438183610fce565b81010312610263575051946109f560016109e4565b503d610a39565b8351903d90823e3d90fd5b9095508981813d8311610a96575b610a828183610fce565b81010312610a92575194386109c2565b8680fd5b503d610a78565b83513d89823e3d90fd5b9093508881813d8311610ad3575b610abf8183610fce565b81010312610acf5751923861099f565b8580fd5b503d610ab5565b82513d88823e3d90fd5b8334610263578060031936011261026357805481906001600160a01b03811690610b0f338314611104565b6001600160a01b03191682557f8be0079c531659141344cd1fd0a4f28419497f9722a3daafe3b4186f6b6457e08280a380f35b508290346102065760203660031901126102065735906001548210156102635750610b6c90610f44565b5080546001600160a01b031690610b8560018201611006565b92600360ff60028401541692015490610baf815195869586526080602087015260808601906110ac565b9215159084015260608301520390f35b509190346102065781600319360112610206578190829383600154905b818110610c2657857f96f06edce356a6f04cc55aeea56c38fcad8c40121241354d668655db1bae953c6060878a88828955816005556006549181519384526020840152820152a180f35b60ff6002610c3383610f44565b50015416610c4a575b610c45906111ef565b610bdc565b95610c5487610f44565b5054845163760c0aa760e11b81526001600160a01b039091169560209190828287818b5afa918215610d445791839187938b92610d09575b5090610c9791611214565b97875192838092630909705160e41b82525afa918215610cff578892610ccf575b5050610cc790610c4592611214565b969050610c3c565b90809250813d8311610cf8575b610ce68183610fce565b81010312610a92575181610cc7610cb8565b503d610cdc565b86513d8a823e3d90fd5b92839194508092503d8311610d3d575b610d238183610fce565b81010312610d3957610c97869284925191610c8c565b8880fd5b503d610d19565b87513d8b823e3d90fd5b50346101c457826003193601126101c45760209250549051908152f35b5091903461020657606036600319011261020657610d87610f13565b926044356001600160a01b0381811692918390036107b5576044951691828552602095869260028452610dbf60ff87892054166111a3565b85519485938492634c4b4f4160e11b84526024359084015260248301525afa928315610e26578093610df4575b505051908152f35b909192508382813d8311610e1f575b610e0d8183610fce565b81010312610263575051903880610dec565b503d610e03565b8251903d90823e3d90fd5b5050346102065781600319360112610206576020906001549051908152f35b5090346101c457806003193601126101c457610e6a610f13565b92610e73610f2e565b9360018060a01b03809116908183526024602096879360028552610e9c60ff88882054166111a3565b8651978894859362ff815b60e01b855216908301525afa928315610f07578193610ecb575b5050519015158152f35b909192508381813d8311610f00575b610ee48183610fce565b8101031261020657519081151582036102635750903880610ec1565b503d610eda565b509051903d90823e3d90fd5b600435906001600160a01b0382168203610f2957565b600080fd5b602435906001600160a01b0382168203610f2957565b600154811015610f7e57600160005260021b7fb10e2d527612073b26eecdfd717e6a320cf44b4afac2b0732d9fcbe2b7fa0cf60190600090565b634e487b7160e01b600052603260045260246000fd5b90600182811c92168015610fc4575b6020831014610fae57565b634e487b7160e01b600052602260045260246000fd5b91607f1691610fa3565b90601f8019910116810190811067ffffffffffffffff821117610ff057604052565b634e487b7160e01b600052604160045260246000fd5b906040519182600082549261101a84610f94565b9081845260019485811690816000146110895750600114611046575b505061104492500383610fce565b565b9093915060005260209081600020936000915b81831061107157505061104493508201013880611036565b85548884018501529485019487945091830191611059565b91505061104494506020925060ff191682840152151560051b8201013880611036565b919082519283825260005b8481106110d8575050826000602080949584010152601f8019910116010190565b6020818301810151848301820152016110b7565b8054821015610f7e5760005260206000200190600090565b1561110b57565b60405162461bcd60e51b815260206004820152602d60248201527f4f776e61626c653a206c5f617070656c616e74206e5f65737420706173206c6560448201526c2070726f70726965746169726560981b6064820152608490fd5b1561116d57565b60405162461bcd60e51b815260206004820152600e60248201526d496e64657820696e76616c69646560901b6044820152606490fd5b156111aa57565b60405162461bcd60e51b815260206004820152601760248201527f436f6e74726174206e6f6e20656e72656769737472c3a90000000000000000006044820152606490fd5b60001981146111fe5760010190565b634e487b7160e01b600052601160045260246000fd5b919082018092116111fe5756fea26469706673582212201adbf9c0c2a60f85c7fbe77c63c53ecf2dce50df8fac11ca7a2a86411e035bbe64736f6c63430008140033",
  "linkReferences": {},
  "deployedLinkReferences": {}
}