{
  "_format": "hh-sol-artifact-1",
  "contractName": "AdminDashboard",
  "sourceName": "contracts/AdminDashboard.sol",
  "abi": [
    {
      "inputs": [
        {
          "internalType": "contract StakingManager",
          "name": "_stakingManager",
          "type": "address"
        }
      ],
      "stateMutability": "nonpayable",
      "type": "constructor"
    },
    {
      "anonymous": false,
      "inputs": [
        {
          "indexed": true,
          "internalType": "address",
          "name": "admin",
          "type": "address"
        }
      ],
      "name": "AdminAdded",
      "type": "event"
    },
    {
      "anonymous": false,
      "inputs": [
        {
          "indexed": true,
          "internalType": "address",
          "name": "admin",
          "type": "address"
        }
      ],
      "name": "AdminRemoved",
      "type": "event"
    },
    {
      "anonymous": false,
      "inputs": [
        {
          "indexed": false,
          "internalType": "uint256",
          "name": "timestamp",
          "type": "uint256"
        },
        {
          "indexed": false,
          "internalType": "uint256",
          "name": "tvl",
          "type": "uint256"
        },
        {
          "indexed": false,
          "internalType": "uint256",
          "name": "users",
          "type": "uint256"
        },
        {
          "indexed": false,
          "internalType": "uint256",
          "name": "pools",
          "type": "uint256"
        }
      ],
      "name": "AnalyticsRecorded",
      "type": "event"
    },
    {
      "anonymous": false,
      "inputs": [
        {
          "indexed": true,
          "internalType": "address",
          "name": "previousOwner",
          "type": "address"
        },
        {
          "indexed": true,
          "internalType": "address",
          "name": "newOwner",
          "type": "address"
        }
      ],
      "name": "OwnershipTransferred",
      "type": "event"
    },
    {
      "anonymous": false,
      "inputs": [
        {
          "indexed": false,
          "internalType": "uint256",
          "name": "oldInterval",
          "type": "uint256"
        },
        {
          "indexed": false,
          "internalType": "uint256",
          "name": "newInterval",
          "type": "uint256"
        }
      ],
      "name": "RecordIntervalUpdated",
      "type": "event"
    },
    {
      "inputs": [
        {
          "internalType": "address",
          "name": "_admin",
          "type": "address"
        }
      ],
      "name": "addAdmin",
      "outputs": [],
      "stateMutability": "nonpayable",
      "type": "function"
    },
    {
      "inputs": [
        {
          "internalType": "address",
          "name": "",
          "type": "address"
        }
      ],
      "name": "admins",
      "outputs": [
        {
          "internalType": "bool",
          "name": "",
          "type": "bool"
        }
      ],
      "stateMutability": "view",
      "type": "function"
    },
    {
      "inputs": [
        {
          "internalType": "uint256",
          "name": "",
          "type": "uint256"
        }
      ],
      "name": "analyticsHistory",
      "outputs": [
        {
          "internalType": "uint256",
          "name": "timestamp",
          "type": "uint256"
        },
        {
          "internalType": "uint256",
          "name": "tvl",
          "type": "uint256"
        },
        {
          "internalType": "uint256",
          "name": "users",
          "type": "uint256"
        },
        {
          "internalType": "uint256",
          "name": "pools",
          "type": "uint256"
        }
      ],
      "stateMutability": "view",
      "type": "function"
    },
    {
      "inputs": [
        {
          "internalType": "uint256",
          "name": "_startIndex",
          "type": "uint256"
        },
        {
          "internalType": "uint256",
          "name": "_endIndex",
          "type": "uint256"
        }
      ],
      "name": "calculateGrowth",
      "outputs": [
        {
          "internalType": "int256",
          "name": "tvlGrowth",
          "type": "int256"
        },
        {
          "internalType": "int256",
          "name": "usersGrowth",
          "type": "int256"
        },
        {
          "internalType": "int256",
          "name": "poolsGrowth",
          "type": "int256"
        }
      ],
      "stateMutability": "view",
      "type": "function"
    },
    {
      "inputs": [],
      "name": "forceRecordAnalytics",
      "outputs": [],
      "stateMutability": "nonpayable",
      "type": "function"
    },
    {
      "inputs": [],
      "name": "getAnalyticsCount",
      "outputs": [
        {
          "internalType": "uint256",
          "name": "",
          "type": "uint256"
        }
      ],
      "stateMutability": "view",
      "type": "function"
    },
    {
      "inputs": [
        {
          "internalType": "uint256",
          "name": "_count",
          "type": "uint256"
        }
      ],
      "name": "getRecentAnalytics",
      "outputs": [
        {
          "internalType": "uint256[]",
          "name": "timestamps",
          "type": "uint256[]"
        },
        {
          "internalType": "uint256[]",
          "name": "tvls",
          "type": "uint256[]"
        },
        {
          "internalType": "uint256[]",
          "name": "userCounts",
          "type": "uint256[]"
        },
        {
          "internalType": "uint256[]",
          "name": "poolCounts",
          "type": "uint256[]"
        }
      ],
      "stateMutability": "view",
      "type": "function"
    },
    {
      "inputs": [
        {
          "internalType": "address",
          "name": "_address",
          "type": "address"
        }
      ],
      "name": "isAdmin",
      "outputs": [
        {
          "internalType": "bool",
          "name": "",
          "type": "bool"
        }
      ],
      "stateMutability": "view",
      "type": "function"
    },
    {
      "inputs": [],
      "name": "lastRecordTimestamp",
      "outputs": [
        {
          "internalType": "uint256",
          "name": "",
          "type": "uint256"
        }
      ],
      "stateMutability": "view",
      "type": "function"
    },
    {
      "inputs": [],
      "name": "owner",
      "outputs": [
        {
          "internalType": "address",
          "name": "",
          "type": "address"
        }
      ],
      "stateMutability": "view",
      "type": "function"
    },
    {
      "inputs": [],
      "name": "recordAnalytics",
      "outputs": [],
      "stateMutability": "nonpayable",
      "type": "function"
    },
    {
      "inputs": [],
      "name": "recordInterval",
      "outputs": [
        {
          "internalType": "uint256",
          "name": "",
          "type": "uint256"
        }
      ],
      "stateMutability": "view",
      "type": "function"
    },
    {
      "inputs": [
        {
          "internalType": "address",
          "name": "_admin",
          "type": "address"
        }
      ],
      "name": "removeAdmin",
      "outputs": [],
      "stateMutability": "nonpayable",
      "type": "function"
    },
    {
      "inputs": [],
      "name": "renounceOwnership",
      "outputs": [],
      "stateMutability": "nonpayable",
      "type": "function"
    },
    {
      "inputs": [],
      "name": "stakingManager",
      "outputs": [
        {
          "internalType": "contract StakingManager",
          "name": "",
          "type": "address"
        }
      ],
      "stateMutability": "view",
      "type": "function"
    },
    {
      "inputs": [
        {
          "internalType": "address",
          "name": "newOwner",
          "type": "address"
        }
      ],
      "name": "transferOwnership",
      "outputs": [],
      "stateMutability": "nonpayable",
      "type": "function"
    },
    {
      "inputs": [
        {
          "internalType": "uint256",
          "name": "_newInterval",
          "type": "uint256"
        }
      ],
      "name": "updateRecordInterval",
      "outputs": [],
      "stateMutability": "nonpayable",
      "type": "function"
    },
    {
      "inputs": [
        {
          "internalType": "contract StakingManager",
          "name": "_newManager",
          "type": "address"
        }
      ],
      "name": "updateStakingManager",
      "outputs": [],
      "stateMutability": "nonpayable",
      "type": "function"
    }
  ],
  "bytecode": "0x6080346100c957601f61108738819003918201601f19168301916001600160401b038311848410176100ce578084926020946040528339810103126100c957516001600160a01b0390818116908190036100c957600080546001600160a01b03198082163390811784556040805196909593167f8be0079c531659141344cd1fd0a4f28419497f9722a3daafe3b4186f6b6457e08580a3620151806003556001541617600155338152600560205220600160ff1982541617905542600455610fa290816100e58239f35b600080fd5b634e487b7160e01b600052604160045260246000fdfe60406080815260048036101561001457600080fd5b600091823560e01c80631785f53c14610b9757806322828cc214610b6e57806324d7806c14610b135780633a127e2e146108a6578063429b62e514610867578063509f7803146107c45780635158a18b1461067d57806362fef970146105f657806363ac70b6146105d8578063704802751461050d578063715018a6146104af5780638da5cb5b1461048757806396a1b6b51461042c57806399bc24a5146103c9578063b54166c014610205578063c48c10b7146101e6578063c7100d21146101c35763f2fde38b146100e657600080fd5b346101bf5760203660031901126101bf576001600160a01b03823581811693908490036101bb5784549182169261011e338514610d33565b841561015b5750506001600160a01b031916821783557f8be0079c531659141344cd1fd0a4f28419497f9722a3daafe3b4186f6b6457e08380a380f35b5162461bcd60e51b8152602091810191909152603260248201527f4f776e61626c653a206e6f75766561752070726f707269c3a9746169726520656044820152717374206c2761647265737365207ac3a9726f60701b6064820152608490fd5b8480fd5b8280fd5b8382346101e257816003193601126101e2576020906003549051908152f35b5080fd5b8382346101e257816003193601126101e2576020906002549051908152f35b5090346101bf57826003193601126101bf57338352600560205260ff828420541680156103b6575b1561038557610240815460035490610dd4565b421061034357600154825163b57de2d360e01b81529060a0908290849082906001600160a01b03165afa801561033657927fc4ccdf1a34475c19337fd7d9dc9546759098310733f376df6de605282824496f938591869387926102f7575b506102f19293946102cc82516102b381610df7565b4281528660208201528784820152846060820152610e77565b4290555193849342859094939260609260808301968352602083015260408201520152565b0390a180f35b9093506102f19250610320915060a03d811161032f575b6103188183610e29565b810190610e4b565b9095919490935090915061029e565b503d61030e565b50505051903d90823e3d90fd5b6020606492519162461bcd60e51b8352820152601760248201527f496e74657276616c6c65206e6f6e20c3a9636f756cc3a90000000000000000006044820152fd5b6020606492519162461bcd60e51b8352820152600c60248201526b4e6f6e206175746f7269736560a01b6044820152fd5b5082546001600160a01b0316331461022d565b509190346101e25760203660031901126101e257359060025482101561042957506103f390610ce3565b508054600182015460028301546003909301549351918252602082015260408101919091526060810191909152608090f35b0390f35b80fd5b5050346101e25760203660031901126101e257356001600160a01b03818116918290036101bf57610461908354163314610d33565b61046c811515610d95565b6bffffffffffffffffffffffff60a01b600154161760015580f35b8382346101e257816003193601126101e257905490516001600160a01b039091168152602090f35b8334610429578060031936011261042957805481906001600160a01b038116906104da338314610d33565b6001600160a01b03191682557f8be0079c531659141344cd1fd0a4f28419497f9722a3daafe3b4186f6b6457e08280a380f35b50346101bf5760203660031901126101bf5781356001600160a01b0381811693918490036101bb57610543908554163314610d33565b61054e831515610d95565b828452600560205260ff828520541661059e575081835260056020528220805460ff191660011790557f44d6d25963f097ad14f29f06854a01f575648a1ef82f30e562ccd3889717e3398280a280f35b6020606492519162461bcd60e51b835282015260156024820152742261d4b561d01030b236b4b734b9ba3930ba32bab960591b6044820152fd5b5090346101bf57826003193601126101bf5760209250549051908152f35b5090346101bf57826003193601126101bf578060a0600180821b0361061f818754163314610d33565b6001541684519283809263b57de2d360e01b82525afa801561033657927fc4ccdf1a34475c19337fd7d9dc9546759098310733f376df6de605282824496f938591869387926102f757506102f19293946102cc82516102b381610df7565b509190346101e25760203660031901126101e25760028054918035801580156107bb575b156107b65750825b6106b281610ef4565b946106bc82610ef4565b926106c683610ef4565b946106d084610ef4565b96835b858110610727576106fe8a6104258b6107198f8d61070c8e835198899860808a5260808a0190610caf565b9088820360208a0152610caf565b9186830390870152610caf565b908382036060850152610caf565b8582038281116107a35761074561074083600393610dd4565b610ce3565b508054610752848e610f26565b526001810154610762848b610f26565b5284810154610771848c610f26565b52015461077e828b610f26565b526000198114610790576001016106d3565b634e487b7160e01b855260118452602485fd5b634e487b7160e01b865260118552602486fd5b6106a9565b508381116106a1565b5090346101bf5760203660031901126101bf578035906107ee60018060a01b038554163314610d33565b811561082e5750907f6671416473c0318f323645ba2943a4977b5dc85a11920c4ae812c49bc7a6f0e691600354908060035582519182526020820152a180f35b606490602084519162461bcd60e51b83528201526013602482015272496e74657276616c6c6520696e76616c69646560681b6044820152fd5b5090346101bf5760203660031901126101bf57356001600160a01b038116908190036101bf57818360ff92602095526005855220541690519015158152f35b508290346101e257806003193601126101e25782359060249384359260025480821015610ad157841015610a975783811015610a2f576108e86108ef91610ce3565b5093610ce3565b5060018401549095908015610a15576001870154606481029080820460641490151715610a03576109289161092391610f3a565b610f5a565b945b600285015480156109e55760028801546064810290808204606414901517156109d35761092360039261095c92610f3a565b955b01549687156109b25760030154926064840293808504606414901517156109a25750505061092360609561099192610f3a565b915b81519384526020840152820152f35b634e487b7160e01b825260119052fd5b60030154606097509092501590506109ce575060645b91610993565b6109c8565b5050634e487b7160e01b815260118352fd5b506002870154156109fb57600360645b9561095e565b6003816109f5565b634e487b7160e01b8752601184528287fd5b50600186015415610a295760645b9461092a565b84610a23565b50603a856020608494519362461bcd60e51b85528401528201527f4c27696e6465782064652064c3a97061727420646f697420c3aa74726520696e60448201527f66c3a9726965757220c3a0206c27696e6465782064652066696e0000000000006064820152fd5b506015856020606494519362461bcd60e51b855284015282015274496e6465782064652066696e20696e76616c69646560581b6044820152fd5b835162461bcd60e51b81526020818501526019818901527f496e6465782064652064c3a97061727420696e76616c696465000000000000006044820152606490fd5b509190346101e25760203660031901126101e2576001600160a01b03929035838116908190036101bf576020938184526005855260ff8385205416938415610b61575b505050519015158152f35b5416149150388080610b56565b8382346101e257816003193601126101e25760015490516001600160a01b039091168152602090f35b50346101bf5760203660031901126101bf5781356001600160a01b0381811693918490036101bb57845416610bcd338214610d33565b838552600560205260ff838620541615610c74578314610c21575081835260056020528220805460ff191690557fa3b62bc36326052d97ea62d63c3d60308ed4c3ea8ac079dd8499f1e9c4f80c0f8280a280f35b6020608492519162461bcd60e51b8352820152602860248201527f496d706f737369626c65206465207375707072696d6572206c652070726f707260448201526769c3a9746169726560c01b6064820152fd5b506020606492519162461bcd60e51b835282015260156024820152742830b9903ab71030b236b4b734b9ba3930ba32bab960591b6044820152fd5b90815180825260208080930193019160005b828110610ccf575050505090565b835185529381019392810192600101610cc1565b600254811015610d1d57600260005260021b7f405787fa12a823e0f2b7631cc41b3ba8828b3321ca811111fa75cd3aa3bb5ace0190600090565b634e487b7160e01b600052603260045260246000fd5b15610d3a57565b60405162461bcd60e51b815260206004820152602d60248201527f4f776e61626c653a206c5f617070656c616e74206e5f65737420706173206c6560448201526c2070726f70726965746169726560981b6064820152608490fd5b15610d9c57565b60405162461bcd60e51b815260206004820152601060248201526f4164726573736520696e76616c69646560801b6044820152606490fd5b91908201809211610de157565b634e487b7160e01b600052601160045260246000fd5b6080810190811067ffffffffffffffff821117610e1357604052565b634e487b7160e01b600052604160045260246000fd5b90601f8019910116810190811067ffffffffffffffff821117610e1357604052565b908160a0910312610e72578051916020820151916040810151916080606083015192015190565b600080fd5b60025468010000000000000000811015610e1357806001610e9b9201600255610ce3565b919091610ec65760608160039251845560208101516001850155604081015160028501550151910155565b634e487b7160e01b600052600060045260246000fd5b67ffffffffffffffff8111610e135760051b60200190565b90610efe82610edc565b610f0b6040519182610e29565b8281528092610f1c601f1991610edc565b0190602036910137565b8051821015610d1d5760209160051b010190565b8115610f44570490565b634e487b7160e01b600052601260045260246000fd5b906063198201918213600116610de15756fea2646970667358221220fc065942d1fea1427b185fb70cb7a7e86cc310277a4f28be61e926c597e5301f64736f6c63430008140033",
  "linkReferences": {},
  "deployedLinkReferences": {}
}