{"contracts/StakingPancakeSwap.sol":{"StakingPancakeSwap":{"abi":[{"inputs":[{"internalType":"contract IERC20","name":"_rewardToken","type":"address"},{"internalType":"uint256","name":"_rewardPerBlock","type":"uint256"},{"internalType":"uint256","name":"_startBlock","type":"uint256"},{"internalType":"contract IPancakeRouter02","name":"_pancakeRouter","type":"address"}],"stateMutability":"nonpayable","type":"constructor"},{"anonymous":false,"inputs":[{"indexed":true,"internalType":"address","name":"user","type":"address"},{"indexed":true,"internalType":"uint256","name":"pid","type":"uint256"},{"indexed":false,"internalType":"uint256","name":"amount","type":"uint256"}],"name":"Deposit","type":"event"},{"anonymous":false,"inputs":[{"indexed":true,"internalType":"address","name":"user","type":"address"},{"indexed":true,"internalType":"uint256","name":"pid","type":"uint256"},{"indexed":false,"internalType":"uint256","name":"amount","type":"uint256"}],"name":"EmergencyWithdraw","type":"event"},{"anonymous":false,"inputs":[{"indexed":true,"internalType":"address","name":"previousOwner","type":"address"},{"indexed":true,"internalType":"address","name":"newOwner","type":"address"}],"name":"OwnershipTransferred","type":"event"},{"anonymous":false,"inputs":[{"indexed":true,"internalType":"uint256","name":"pid","type":"uint256"},{"indexed":false,"internalType":"address","name":"lpToken","type":"address"},{"indexed":false,"internalType":"uint256","name":"allocPoint","type":"uint256"}],"name":"PoolAdded","type":"event"},{"anonymous":false,"inputs":[{"indexed":true,"internalType":"uint256","name":"pid","type":"uint256"},{"indexed":false,"internalType":"uint256","name":"allocPoint","type":"uint256"},{"indexed":false,"internalType":"bool","name":"isActive","type":"bool"}],"name":"PoolUpdated","type":"event"},{"anonymous":false,"inputs":[{"indexed":true,"internalType":"address","name":"user","type":"address"},{"indexed":true,"internalType":"uint256","name":"pid","type":"uint256"},{"indexed":false,"internalType":"uint256","name":"amount","type":"uint256"}],"name":"RewardClaimed","type":"event"},{"anonymous":false,"inputs":[{"indexed":false,"internalType":"uint256","name":"oldRate","type":"uint256"},{"indexed":false,"internalType":"uint256","name":"newRate","type":"uint256"}],"name":"RewardRateUpdated","type":"event"},{"anonymous":false,"inputs":[{"indexed":false,"internalType":"uint256","name":"oldPeriod","type":"uint256"},{"indexed":false,"internalType":"uint256","name":"newPeriod","type":"uint256"}],"name":"StakingPeriodUpdated","type":"event"},{"anonymous":false,"inputs":[{"indexed":true,"internalType":"address","name":"user","type":"address"},{"indexed":true,"internalType":"uint256","name":"pid","type":"uint256"},{"indexed":false,"internalType":"uint256","name":"amount","type":"uint256"}],"name":"Withdraw","type":"event"},{"anonymous":false,"inputs":[{"indexed":false,"internalType":"uint256","name":"oldFee","type":"uint256"},{"indexed":false,"internalType":"uint256","name":"newFee","type":"uint256"}],"name":"WithdrawalFeeUpdated","type":"event"},{"inputs":[{"internalType":"uint256","name":"_allocPoint","type":"uint256"},{"internalType":"contract IERC20","name":"_lpToken","type":"address"},{"internalType":"bool","name":"_withUpdate","type":"bool"}],"name":"addPool","outputs":[],"stateMutability":"nonpayable","type":"function"},{"inputs":[{"internalType":"uint256","name":"_pid","type":"uint256"}],"name":"claimReward","outputs":[],"stateMutability":"nonpayable","type":"function"},{"inputs":[{"internalType":"uint256","name":"_pid","type":"uint256"},{"internalType":"uint256","name":"_amount","type":"uint256"}],"name":"deposit","outputs":[],"stateMutability":"nonpayable","type":"function"},{"inputs":[],"name":"earlyWithdrawalFee","outputs":[{"internalType":"uint256","name":"","type":"uint256"}],"stateMutability":"view","type":"function"},{"inputs":[{"internalType":"uint256","name":"_pid","type":"uint256"}],"name":"emergencyWithdraw","outputs":[],"stateMutability":"nonpayable","type":"function"},{"inputs":[{"internalType":"uint256","name":"_pid","type":"uint256"}],"name":"getPoolInfo","outputs":[{"internalType":"address","name":"lpToken","type":"address"},{"internalType":"uint256","name":"allocPoint","type":"uint256"},{"internalType":"uint256","name":"lastRewardBlock","type":"uint256"},{"internalType":"uint256","name":"accRewardPerShare","type":"uint256"},{"internalType":"uint256","name":"totalStaked","type":"uint256"},{"internalType":"bool","name":"isActive","type":"bool"}],"stateMutability":"view","type":"function"},{"inputs":[],"name":"getTotalValueLockedUSD","outputs":[{"internalType":"uint256","name":"","type":"uint256"}],"stateMutability":"view","type":"function"},{"inputs":[{"internalType":"uint256","name":"_pid","type":"uint256"},{"internalType":"address","name":"_user","type":"address"}],"name":"getUserInfo","outputs":[{"internalType":"uint256","name":"amount","type":"uint256"},{"internalType":"uint256","name":"rewardDebt","type":"uint256"},{"internalType":"uint256","name":"pendingRewards","type":"uint256"},{"internalType":"uint256","name":"lastStakeTime","type":"uint256"},{"internalType":"bool","name":"isStaking","type":"bool"}],"stateMutability":"view","type":"function"},{"inputs":[{"internalType":"address","name":"_user","type":"address"}],"name":"getUserPools","outputs":[{"internalType":"uint256[]","name":"","type":"uint256[]"}],"stateMutability":"view","type":"function"},{"inputs":[{"internalType":"address","name":"","type":"address"}],"name":"isUserStaking","outputs":[{"internalType":"bool","name":"","type":"bool"}],"stateMutability":"view","type":"function"},{"inputs":[],"name":"massUpdatePools","outputs":[],"stateMutability":"nonpayable","type":"function"},{"inputs":[],"name":"minStakingPeriod","outputs":[{"internalType":"uint256","name":"","type":"uint256"}],"stateMutability":"view","type":"function"},{"inputs":[],"name":"owner","outputs":[{"internalType":"address","name":"","type":"address"}],"stateMutability":"view","type":"function"},{"inputs":[],"name":"pancakeRouter","outputs":[{"internalType":"contract IPancakeRouter02","name":"","type":"address"}],"stateMutability":"view","type":"function"},{"inputs":[{"internalType":"uint256","name":"_pid","type":"uint256"},{"internalType":"address","name":"_user","type":"address"}],"name":"pendingReward","outputs":[{"internalType":"uint256","name":"","type":"uint256"}],"stateMutability":"view","type":"function"},{"inputs":[{"internalType":"uint256","name":"","type":"uint256"}],"name":"poolInfo","outputs":[{"internalType":"contract IERC20","name":"lpToken","type":"address"},{"internalType":"uint256","name":"allocPoint","type":"uint256"},{"internalType":"uint256","name":"lastRewardBlock","type":"uint256"},{"internalType":"uint256","name":"accRewardPerShare","type":"uint256"},{"internalType":"uint256","name":"totalStaked","type":"uint256"},{"internalType":"bool","name":"isActive","type":"bool"}],"stateMutability":"view","type":"function"},{"inputs":[],"name":"poolLength","outputs":[{"internalType":"uint256","name":"","type":"uint256"}],"stateMutability":"view","type":"function"},{"inputs":[{"internalType":"contract IERC20","name":"_token","type":"address"}],"name":"recoverToken","outputs":[],"stateMutability":"nonpayable","type":"function"},{"inputs":[],"name":"renounceOwnership","outputs":[],"stateMutability":"nonpayable","type":"function"},{"inputs":[],"name":"rewardPerBlock","outputs":[{"internalType":"uint256","name":"","type":"uint256"}],"stateMutability":"view","type":"function"},{"inputs":[],"name":"rewardToken","outputs":[{"internalType":"contract IERC20","name":"","type":"address"}],"stateMutability":"view","type":"function"},{"inputs":[],"name":"startBlock","outputs":[{"internalType":"uint256","name":"","type":"uint256"}],"stateMutability":"view","type":"function"},{"inputs":[],"name":"totalAllocPoint","outputs":[{"internalType":"uint256","name":"","type":"uint256"}],"stateMutability":"view","type":"function"},{"inputs":[],"name":"totalUsersStaking","outputs":[{"internalType":"uint256","name":"","type":"uint256"}],"stateMutability":"view","type":"function"},{"inputs":[],"name":"totalValueLocked","outputs":[{"internalType":"uint256","name":"","type":"uint256"}],"stateMutability":"view","type":"function"},{"inputs":[{"internalType":"address","name":"newOwner","type":"address"}],"name":"transferOwnership","outputs":[],"stateMutability":"nonpayable","type":"function"},{"inputs":[{"internalType":"uint256","name":"_earlyWithdrawalFee","type":"uint256"}],"name":"updateEarlyWithdrawalFee","outputs":[],"stateMutability":"nonpayable","type":"function"},{"inputs":[{"internalType":"uint256","name":"_minStakingPeriod","type":"uint256"}],"name":"updateMinStakingPeriod","outputs":[],"stateMutability":"nonpayable","type":"function"},{"inputs":[{"internalType":"uint256","name":"_pid","type":"uint256"},{"internalType":"uint256","name":"_allocPoint","type":"uint256"},{"internalType":"bool","name":"_isActive","type":"bool"},{"internalType":"bool","name":"_withUpdate","type":"bool"}],"name":"updatePool","outputs":[],"stateMutability":"nonpayable","type":"function"},{"inputs":[{"internalType":"uint256","name":"_pid","type":"uint256"}],"name":"updatePoolRewards","outputs":[],"stateMutability":"nonpayable","type":"function"},{"inputs":[{"internalType":"uint256","name":"_rewardPerBlock","type":"uint256"}],"name":"updateRewardPerBlock","outputs":[],"stateMutability":"nonpayable","type":"function"},{"inputs":[{"internalType":"uint256","name":"","type":"uint256"},{"internalType":"address","name":"","type":"address"}],"name":"userInfo","outputs":[{"internalType":"uint256","name":"amount","type":"uint256"},{"internalType":"uint256","name":"rewardDebt","type":"uint256"},{"internalType":"uint256","name":"pendingRewards","type":"uint256"},{"internalType":"uint256","name":"lastStakeTime","type":"uint256"},{"internalType":"bool","name":"isStaking","type":"bool"}],"stateMutability":"view","type":"function"},{"inputs":[{"internalType":"address","name":"","type":"address"},{"internalType":"uint256","name":"","type":"uint256"}],"name":"userPools","outputs":[{"internalType":"uint256","name":"","type":"uint256"}],"stateMutability":"view","type":"function"},{"inputs":[{"internalType":"uint256","name":"_pid","type":"uint256"},{"internalType":"uint256","name":"_amount","type":"uint256"}],"name":"withdraw","outputs":[],"stateMutability":"nonpayable","type":"function"}],"evm":{"bytecode":{"linkReferences":{},"object":"6080346100e957601f61223038819003918201601f19168301916001600160401b038311848410176100ee578084926080946040528339810103126100e95780516001600160a01b039190828116908190036100e95760208201519160606040820151910151928484168094036100e9576000549260018060a01b0319933385821617600055604051963391167f8be0079c531659141344cd1fd0a4f28419497f9722a3daafe3b4186f6b6457e0600080a360018055600060055562093a80600655600a600755836002541617600255600355600455600854161760085561212b90816101058239f35b600080fd5b634e487b7160e01b600052604160045260246000fdfe608060408181526004918236101561001657600080fd5b600092833560e01c918262ff815b14611b555750816301f8a97614611aec578163069c34f614611acd578163081e3eda14611aae5781630cf1f18b146118fe5781631064aa55146118a85781631069f3b514610df15781631526fe271461187b57816316330d401461185c57816317caf6f11461183d5781632f380b35146117d15781633632e6c61461172b578163441a3e701461136657816348cd4cb1146113485781635312ea8e14611118578163630b5ba1146110ff578163715018a6146110a15781637abceffd14610edc5781638ae39cac14610ebd5781638da5cb5b14610e955781639097051014610e7657816393f1a40b14610df15781639816af5814610d4157816398969e8214610c28578163993e013c14610bc75781639be65a6014610a46578163adb82b3114610a26578163ae169a5014610761578163c21ebd0714610738578163e2bbb1581461039f578163ec18154e14610380578163ef4336971461029e578163f2fde38b146101c5575063f7c618c11461019a57600080fd5b346101c157816003193601126101c15760025490516001600160a01b039091168152602090f35b5080fd5b90503461029a57602036600319011261029a576101e0611b90565b83546001600160a01b038082169391926101fb338614611c4f565b1693841561023a5750506001600160a01b031916821783557f8be0079c531659141344cd1fd0a4f28419497f9722a3daafe3b4186f6b6457e08380a380f35b5162461bcd60e51b8152602091810191909152603260248201527f4f776e61626c653a206e6f75766561752070726f707269c3a9746169726520656044820152717374206c2761647265737365207ac3a9726f60701b6064820152608490fd5b8280fd5b90503461029a57608036600319011261029a573590602435906102bf611c40565b9160643592831515840361037c577fec70f7b7f8beefa9ff0456053baafec83986e3915f156e2ed04b0acb57d7dd559361030360018060a01b038854163314611c4f565b61036f575b61032b82610326600554600161031d8a611bef565b50015490611ef7565b611e9e565b60055581600161033a87611bef565b50015561035f81600561034c88611bef565b50019060ff801983541691151516179055565b825191825215156020820152a280f35b610377611d46565b610308565b8580fd5b5050346101c157816003193601126101c157602090600c549051908152f35b90503461029a576103af36611c2a565b90916001936103c2600286541415611ddc565b600285556103d36009548510611e34565b82156106f55760ff60056103e686611bef565b50015416156106c3576103f884611bef565b5091848752602092600a845282882033895284528288209061041987611d6e565b815480610668575b50805484516323b872dd60e01b8152338582015230602482015260448101889052908690829060649082908e906001600160a01b03165af1801561065e5784939264e8d4a510009261049c92610631575b508481016104818a8254611e9e565b905560036104908a8654611e9e565b9182865501549061205c565b6000805160206120b68339815191528787516104b781611cb1565b601a8152015204888201554260038201550180549060ff821615610517575b505050907f90890809c654f11d6e72a28fa60149770a0d11ec6c92319d6ceb2bb0a4ea1a159161050884600c54611e9e565b600c55519283523392a3805580f35b60ff1991821688179055600b548088019081811161061e5781106105db57600b55338852600e84528683892091825460ff8116156105ce575b50505050600d8352818720805491600160401b8310156105bb57508161059d91887f90890809c654f11d6e72a28fa60149770a0d11ec6c92319d6ceb2bb0a4ea1a15969594018155611bc1565b81549060031b9087821b91600019901b1916179055909138806104d6565b634e487b7160e01b895260419052602488fd5b1617905538868180610550565b835162461bcd60e51b8152808401869052601b60248201527f536166654d6174683a206164646974696f6e206f766572666c6f7700000000006044820152606490fd5b634e487b7160e01b8a526011845260248afd5b61065090893d8b11610657575b6106488183611ce3565b810190611e72565b5038610472565b503d61063e565b85513d8c823e3d90fd5b61067a6106ac9160038401549061205c565b6000805160206120b683398151915287875161069581611cb1565b601a8152015264e8d4a510008a8501549104611ef7565b6106bb60028401918254611e9e565b905538610421565b906020606492519162461bcd60e51b8352820152600c60248201526b2837b7b61034b730b1ba34b360a11b6044820152fd5b906020606492519162461bcd60e51b8352820152601f60248201527f4d6f6e74616e7420646f697420657472652073757065726965757220612030006044820152fd5b5050346101c157816003193601126101c15760085490516001600160a01b039091168152602090f35b9190503461029a5760209081600319360112610a225782359161078960026001541415611ddc565b600260015561079b6009548410611e34565b6107a483611bef565b5091838652600a82528086203387528252808620926107c285611d6e565b60038454910190836107d583548361205c565b9184516107e181611cb1565b601a81526000805160206120b6833981519152928391015260018701936108206002610816875464e8d4a51000809804611ef7565b9901988954611e9e565b9788156109e1578b9055546108349161205c565b9085855161084181611cb1565b601a8152015204905560025481516370a0823160e01b8152308188015295906001600160a01b039081168488602481845afa9788156109d75789986109a4575b50878611156109235750600254835163a9059cbb60e01b815233938101938452602084019890985284928892908390036040019183918b91165af1948515610919577ff01da32686223933d8a18a391060918c7f11a3648639edd87ae013e2e27317439394956108fc575b505b519283523392a36001805580f35b61091290833d8511610657576106488183611ce3565b50386108ec565b81513d88823e3d90fd5b835163a9059cbb60e01b815233938101938452602084018790529750849288925082908a90829060400103925af1948515610919577ff01da32686223933d8a18a391060918c7f11a3648639edd87ae013e2e2731743939495610987575b506108ee565b61099d90833d8511610657576106488183611ce3565b5038610981565b9097508481813d83116109d0575b6109bc8183611ce3565b810103126109cc57519638610881565b8880fd5b503d6109b2565b84513d8b823e3d90fd5b60648b89808a519262461bcd60e51b845283015260248201527f5061732064652072c3a9636f6d70656e73657320c3a02072c3a9636c616d65726044820152fd5b8380fd5b8390346101c15760203660031901126101c157610a439035611d6e565b80f35b8383346101c1576020908160031936011261029a57610a63611b90565b83546001600160a01b0390811695918190610a7f338914611c4f565b1690600254168114610b695784958395949551926370a0823160e01b845230818501528684602481865afa938415610b5f579087949392918794610b2a575b50855163a9059cbb60e01b81526001600160a01b03909216908201908152602081019390935294859283919082906040015b03925af1908115610b215750610b04578280f35b81610b1a92903d10610657576106488183611ce3565b5081808280f35b513d85823e3d90fd5b8581969295503d8311610b58575b610b428183611ce3565b8101031261037c57925186939092610af0610abe565b503d610b38565b85513d88823e3d90fd5b50905162461bcd60e51b8152908101829052603160248201527f496d706f737369626c652064652072c3a9637570c3a9726572206c6520746f6b604482015270656e2064652072c3a9636f6d70656e736560781b6064820152608490fd5b9190503461029a57602036600319011261029a577f2cf1663bebfbd9a7f883960b23c5d337da307ec0f090edd9c2ebf7f7809b06f29135610c1260018060a01b038554163314611c4f565b600654908060065582519182526020820152a180f35b90503461029a578160031936011261029a576020926002610ccd610c9a8486610cd6963595610c55611bab565b610c5e88611bef565b50978252600a8b528282209060018060a01b031682528a5220946003810154918582015480431180610d35575b610cdd575b505050845461205c565b6000805160206120b6833981519152878751610cb581611cb1565b601a8152015264e8d4a5100060018501549104611ef7565b91015490611e9e565b9051908152f35b91610d2791610d1e610d19610d10610d05610cfc610d2d999843611ef7565b6003549061205c565b60018601549061205c565b60055490612081565b612039565b91015490612081565b90611e9e565b388080610c90565b50818301541515610c8b565b828434610dee5760209081600319360112610dee5782906001600160a01b03610d68611b90565b168152600d8352818120908251808584549182815201908194845286842090845b818110610dda5750505081610d9f910382611ce3565b83519485948186019282875251809352850193925b828110610dc357505050500390f35b835185528695509381019392810192600101610db4565b825484529288019260019283019201610d89565b80fd5b828434610dee5781600319360112610dee5781610e7291610e10611bab565b85358252600a6020528282209060018060a01b03168252602052209182549260018101549460ff60028301549160038401549301541692519586958693909594919260809360a086019786526020860152604085015260608401521515910152565b0390f35b5050346101c157816003193601126101c157602090600b549051908152f35b5050346101c157816003193601126101c157905490516001600160a01b039091168152602090f35b5050346101c157816003193601126101c1576020906003549051908152f35b8383346101c15760603660031901126101c1578235610ef9611bab565b610f01611c40565b84546001600160a01b03929190610f1b9084163314611c4f565b611094575b855480431160001461108e575043915b610f3c84600554611e9e565b60055584519160c0830183811067ffffffffffffffff82111761107b579082918752169283835260208301908582528684019081526060840190888252608085019289845260a086019460018652600954600160401b81101561106857806001610fa99201600955611bef565b9790976110565751875491166001600160a01b03199091161786555160018601555160028501555160038401555187830155516005909101805460ff191691151560ff1691909117905560095460001981019390841161104357516001600160a01b0391909116815260208101919091527f6c5d0ef1d0199b6de41ecbce95f59643be4d723ca363faf92d756e61e82fb13e90604090a280f35b634e487b7160e01b855260118652602485fd5b634e487b7160e01b8c528b8d5260248cfd5b634e487b7160e01b8c5260418d5260248cfd5b634e487b7160e01b885260418952602488fd5b91610f30565b61109c611d46565b610f20565b8334610dee5780600319360112610dee57805481906001600160a01b038116906110cc338314611c4f565b6001600160a01b03191682557f8be0079c531659141344cd1fd0a4f28419497f9722a3daafe3b4186f6b6457e08280a380f35b8334610dee5780600319360112610dee57610a43611d46565b90503461029a5760209081600319360112610a2257803590600192611141600285541415611ddc565b6002845561114e83611bef565b5094838752600a95868352818820338952835281882093808554958a81558a898201558a6002820155019160ff1992838154169055818101611191878254611ef7565b905554835163a9059cbb60e01b8152338382019081526020810188905290999186918b916001600160a01b03169082908e90829060400103925af198891561133e578899611321575b506111e786600c54611ef7565b600c55611223600b5461121e86516111fe81611cb1565b601e81526000805160206120d683398151915289820152828c1115611f34565b611d05565b600b55899182895b611281575b5050507fbb757047c2b5f3974fe26b7c10f732e7bce710b0952a71082702781e62ae0595949596501561126b575b50519283523392a3805580f35b338852600e83528188209081541690553861125e565b338c52600d87528b868120805483101561131a57876112a1848693611bc1565b90549060031b1c928c84141593846112fc575b505050506112cb576112c590611d37565b8961122b565b50899892507fbb757047c2b5f3974fe26b7c10f732e7bce710b0952a71082702781e62ae0595915038905080611230565b60ff94508152868b528181203382528b522001541682878e386112b4565b5050611230565b61133790863d8811610657576106488183611ce3565b50386111da565b84513d8c823e3d90fd5b90503461029a578260031936011261029a5760209250549051908152f35b8383346101c15761137636611c2a565b600192611387600285541415611ddc565b600284556113986009548410611e34565b6113a183611bef565b5090838652600a602092818452828820338952845282882098858a54106116f25788996113cd88611d6e565b856114c6868354958a8d856003996113ea8b86019182549061205c565b9286516113f681611cb1565b601a81526000805160206120b68339815191529384910152890193611424855464e8d4a51000809604611ef7565b61143360028c01918254611e9e565b90558a6114438d8c015442611ef7565b97829860065411611670575b50509061146061146b928b54611ef7565b90818b55549061205c565b90878d5161147881611cb1565b601a8152015204905585810161148f8c8254611ef7565b905554885163a9059cbb60e01b81523387820190815260208101939093529d8e936001600160a01b03909216928492839160400190565b03925af1998a1561166657899a611649575b506114e587600c54611ef7565b600c55805415611523575b8a8989897ff279e6a1f5e320cca91135676d9cb6e44ca8a08c0b88342bcdb1144f6511b5688a8a519283523392a3805580f35b81019260ff1993848154169055611564600b5461121e875161154481611cb1565b601e81526000805160206120d68339815191528a820152828d1115611f34565b600b558a92838a5b6115c1575b505050507ff279e6a1f5e320cca91135676d9cb6e44ca8a08c0b88342bcdb1144f6511b56894959650156115ab575b8695949381806114f0565b338852600e8352818820908154169055876115a0565b338d52600d88528c8781208054831015611642578860ff926115e4858994611bc1565b905490871b1c8152868c528181203382528c522001541661160e5761160890611d37565b8a61156c565b508a9993507ff279e6a1f5e320cca91135676d9cb6e44ca8a08c0b88342bcdb1144f6511b56892508c915081905080611571565b5050611571565b61165f90873d8911610657576106488183611ce3565b508b6114d8565b85513d8d823e3d90fd5b6114609198509161146b93926116cd8c6000805160206120d6833981519152606461169d6007548761205c565b8a8487516116aa81611cb1565b601a81520152049351916116bd83611cb1565b601e835282015283831115611f34565b6116e56116da8284611d2a565b9a8a01918254611ef7565b9055919250508a8e61144f565b835162461bcd60e51b81529081018590526013602482015272135bdb9d185b9d081a5b9cdd59999a5cd85b9d606a1b6044820152606490fd5b90503461029a57602036600319011261029a5780359061175560018060a01b038554163314611c4f565b601482116117975750907f72aa1ef4707dfa7defd1468e6ffc70bf9517ce19e3afad93fcf4be42f2d494f591600754908060075582519182526020820152a180f35b825162461bcd60e51b815260209181019190915260116024820152704665652074726f7020c3a96c6576c3a96560781b6044820152606490fd5b9190503461029a57602036600319011261029a5760c092506117f38235611bef565b5060018060a01b038154169260018201549260028301549060ff600560038601549486015495015416948151968752602087015285015260608401526080830152151560a0820152f35b5050346101c157816003193601126101c1576020906005549051908152f35b5050346101c157816003193601126101c1576020906007549051908152f35b9190503461029a57602036600319011261029a57813592600954841015610dee57506117f360c093611bef565b5050346101c157806003193601126101c1576118c2611b90565b6001600160a01b03168252600d60205280822080546024359390841015610dee57506020926118f091611bc1565b91905490519160031b1c8152f35b90503461029a578260031936011261029a57828091600954925b838110611929576020868651908152f35b61193281611bef565b5082810154908161194e575b505061194990611d37565b611918565b548651630240bc6b60e21b81529297926001600160a01b03909116919060609081818781875afa918215611aa4578792611a48575b50509061199b6001600160701b036119a09316611fbb565b61205c565b865180926318160ddd60e01b8252818660209384935afa928315611a3e578693611a0d575b50611a05926119499492611a00610d27936000805160206120b68339815191528c51916119f183611cb1565b601a8352820152831515611f34565b611f9b565b95903861193e565b9080935081813d8311611a37575b611a258183611ce3565b8101031261037c575191610d276119c5565b503d611a1b565b88513d88823e3d90fd5b90809250813d8311611a9d575b611a5f8183611ce3565b8101031261037c57611a7081611e8a565b5087611a7e60208301611e8a565b91015163ffffffff81160361037c5761199b6001600160701b03611983565b503d611a55565b89513d89823e3d90fd5b5050346101c157816003193601126101c1576020906009549051908152f35b5050346101c157816003193601126101c1576020906006549051908152f35b9190503461029a57602036600319011261029a577fc390a98ace15a7bb6bab611eedfdbb2685043b241a869420043cdfb23ccfee509135611b3760018060a01b038554163314611c4f565b611b3f611d46565b600354908060035582519182526020820152a180f35b8490843461029a57602036600319011261029a5760209260ff91906001600160a01b03611b80611b90565b168152600e855220541615158152f35b600435906001600160a01b0382168203611ba657565b600080fd5b602435906001600160a01b0382168203611ba657565b8054821015611bd95760005260206000200190600090565b634e487b7160e01b600052603260045260246000fd5b600954811015611bd9576006906009600052027f6e1540171b6c0c960b71a7020d9f60077f6af931a8bbf590da0223dacf75c7af0190600090565b6040906003190112611ba6576004359060243590565b604435908115158203611ba657565b15611c5657565b60405162461bcd60e51b815260206004820152602d60248201527f4f776e61626c653a206c5f617070656c616e74206e5f65737420706173206c6560448201526c2070726f70726965746169726560981b6064820152608490fd5b6040810190811067ffffffffffffffff821117611ccd57604052565b634e487b7160e01b600052604160045260246000fd5b90601f8019910116810190811067ffffffffffffffff821117611ccd57604052565b600019810191908211611d1457565b634e487b7160e01b600052601160045260246000fd5b91908203918211611d1457565b6000198114611d145760010190565b60095460005b818110611d57575050565b80611d64611d6992611d6e565b611d37565b611d4c565b611d7790611bef565b5060028101908154431115611dd8576004810154908115611dd157611dca90610d276003611db7610d10610d05611daf895443611ef7565b84549061205c565b920193611dc5855493612039565b612081565b9055439055565b5050439055565b5050565b15611de357565b60405162461bcd60e51b8152602060048201526024808201527f5265656e7472616e637947756172643a207265656e7472616e636520646574656044820152636374656560e01b6064820152608490fd5b15611e3b57565b60405162461bcd60e51b815260206004820152600f60248201526e141bdbdb081a5b995e1a5cdd185b9d608a1b6044820152606490fd5b90816020910312611ba657518015158103611ba65790565b51906001600160701b0382168203611ba657565b90810190818111611d14578110611eb25790565b60405162461bcd60e51b815260206004820152601b60248201527f536166654d6174683a206164646974696f6e206f766572666c6f7700000000006044820152606490fd5b90611f3191611f2c604051611f0b81611cb1565b601e81526000805160206120d6833981519152602082015282841115611f34565b611d2a565b90565b15611f3c5750565b6040519062461bcd60e51b82528160208060048301528251908160248401526000935b828510611f82575050604492506000838284010152601f80199101168101030190fd5b8481018201518686016044015293810193859350611f5f565b8115611fa5570490565b634e487b7160e01b600052601260045260246000fd5b8015612033578060011b90808204600203611d1457611fdc60029183611f9b565b03611fe45790565b60405162461bcd60e51b815260206004820152602160248201527f536166654d6174683a206d756c7469706c69636174696f6e206f766572666c6f6044820152607760f81b6064820152608490fd5b50600090565b80156120335764e8d4a51000808202918083048203611d1457611fdc9083611f9b565b90811561207a57808202918083048203611d1457611fdc9083611f9b565b5050600090565b90611f3191611a0060405161209581611cb1565b601a81526000805160206120b68339815191526020820152831515611f3456fe536166654d6174683a206469766973696f6e206279207a65726f000000000000536166654d6174683a207375627472616374696f6e206f766572666c6f770000a2646970667358221220cc108df7bfbc13cc502e63d90b7d6a536e4b69f6dd19094f753fb2f58e1707eb64736f6c63430008140033","opcodes":"PUSH1 0x80 CALLVALUE PUSH2 0xE9 JUMPI PUSH1 0x1F PUSH2 0x2230 CODESIZE DUP2 SWAP1 SUB SWAP2 DUP3 ADD PUSH1 0x1F NOT AND DUP4 ADD SWAP2 PUSH1 0x1 PUSH1 0x1 PUSH1 0x40 SHL SUB DUP4 GT DUP5 DUP5 LT OR PUSH2 0xEE JUMPI DUP1 DUP5 SWAP3 PUSH1 0x80 SWAP5 PUSH1 0x40 MSTORE DUP4 CODECOPY DUP2 ADD SUB SLT PUSH2 0xE9 JUMPI DUP1 MLOAD PUSH1 0x1 PUSH1 0x1 PUSH1 0xA0 SHL SUB SWAP2 SWAP1 DUP3 DUP2 AND SWAP1 DUP2 SWAP1 SUB PUSH2 0xE9 JUMPI PUSH1 0x20 DUP3 ADD MLOAD SWAP2 PUSH1 0x60 PUSH1 0x40 DUP3 ADD MLOAD SWAP2 ADD MLOAD SWAP3 DUP5 DUP5 AND DUP1 SWAP5 SUB PUSH2 0xE9 JUMPI PUSH1 0x0 SLOAD SWAP3 PUSH1 0x1 DUP1 PUSH1 0xA0 SHL SUB NOT SWAP4 CALLER DUP6 DUP3 AND OR PUSH1 0x0 SSTORE PUSH1 0x40 MLOAD SWAP7 CALLER SWAP2 AND PUSH32 0x8BE0079C531659141344CD1FD0A4F28419497F9722A3DAAFE3B4186F6B6457E0 PUSH1 0x0 DUP1 LOG3 PUSH1 0x1 DUP1 SSTORE PUSH1 0x0 PUSH1 0x5 SSTORE PUSH3 0x93A80 PUSH1 0x6 SSTORE PUSH1 0xA PUSH1 0x7 SSTORE DUP4 PUSH1 0x2 SLOAD AND OR PUSH1 0x2 SSTORE PUSH1 0x3 SSTORE PUSH1 0x4 SSTORE PUSH1 0x8 SLOAD AND OR PUSH1 0x8 SSTORE PUSH2 0x212B SWAP1 DUP2 PUSH2 0x105 DUP3 CODECOPY RETURN JUMPDEST PUSH1 0x0 DUP1 REVERT JUMPDEST PUSH4 0x4E487B71 PUSH1 0xE0 SHL PUSH1 0x0 MSTORE PUSH1 0x41 PUSH1 0x4 MSTORE PUSH1 0x24 PUSH1 0x0 REVERT INVALID PUSH1 0x80 PUSH1 0x40 DUP2 DUP2 MSTORE PUSH1 0x4 SWAP2 DUP3 CALLDATASIZE LT ISZERO PUSH2 0x16 JUMPI PUSH1 0x0 DUP1 REVERT JUMPDEST PUSH1 0x0 SWAP3 DUP4 CALLDATALOAD PUSH1 0xE0 SHR SWAP2 DUP3 PUSH3 0xFF815B EQ PUSH2 0x1B55 JUMPI POP DUP2 PUSH4 0x1F8A976 EQ PUSH2 0x1AEC JUMPI DUP2 PUSH4 0x69C34F6 EQ PUSH2 0x1ACD JUMPI DUP2 PUSH4 0x81E3EDA EQ PUSH2 0x1AAE JUMPI DUP2 PUSH4 0xCF1F18B EQ PUSH2 0x18FE JUMPI DUP2 PUSH4 0x1064AA55 EQ PUSH2 0x18A8 JUMPI DUP2 PUSH4 0x1069F3B5 EQ PUSH2 0xDF1 JUMPI DUP2 PUSH4 0x1526FE27 EQ PUSH2 0x187B JUMPI DUP2 PUSH4 0x16330D40 EQ PUSH2 0x185C JUMPI DUP2 PUSH4 0x17CAF6F1 EQ PUSH2 0x183D JUMPI DUP2 PUSH4 0x2F380B35 EQ PUSH2 0x17D1 JUMPI DUP2 PUSH4 0x3632E6C6 EQ PUSH2 0x172B JUMPI DUP2 PUSH4 0x441A3E70 EQ PUSH2 0x1366 JUMPI DUP2 PUSH4 0x48CD4CB1 EQ PUSH2 0x1348 JUMPI DUP2 PUSH4 0x5312EA8E EQ PUSH2 0x1118 JUMPI DUP2 PUSH4 0x630B5BA1 EQ PUSH2 0x10FF JUMPI DUP2 PUSH4 0x715018A6 EQ PUSH2 0x10A1 JUMPI DUP2 PUSH4 0x7ABCEFFD EQ PUSH2 0xEDC JUMPI DUP2 PUSH4 0x8AE39CAC EQ PUSH2 0xEBD JUMPI DUP2 PUSH4 0x8DA5CB5B EQ PUSH2 0xE95 JUMPI DUP2 PUSH4 0x90970510 EQ PUSH2 0xE76 JUMPI DUP2 PUSH4 0x93F1A40B EQ PUSH2 0xDF1 JUMPI DUP2 PUSH4 0x9816AF58 EQ PUSH2 0xD41 JUMPI DUP2 PUSH4 0x98969E82 EQ PUSH2 0xC28 JUMPI DUP2 PUSH4 0x993E013C EQ PUSH2 0xBC7 JUMPI DUP2 PUSH4 0x9BE65A60 EQ PUSH2 0xA46 JUMPI DUP2 PUSH4 0xADB82B31 EQ PUSH2 0xA26 JUMPI DUP2 PUSH4 0xAE169A50 EQ PUSH2 0x761 JUMPI DUP2 PUSH4 0xC21EBD07 EQ PUSH2 0x738 JUMPI DUP2 PUSH4 0xE2BBB158 EQ PUSH2 0x39F JUMPI DUP2 PUSH4 0xEC18154E EQ PUSH2 0x380 JUMPI DUP2 PUSH4 0xEF433697 EQ PUSH2 0x29E JUMPI DUP2 PUSH4 0xF2FDE38B EQ PUSH2 0x1C5 JUMPI POP PUSH4 0xF7C618C1 EQ PUSH2 0x19A JUMPI PUSH1 0x0 DUP1 REVERT JUMPDEST CALLVALUE PUSH2 0x1C1 JUMPI DUP2 PUSH1 0x3 NOT CALLDATASIZE ADD SLT PUSH2 0x1C1 JUMPI PUSH1 0x2 SLOAD SWAP1 MLOAD PUSH1 0x1 PUSH1 0x1 PUSH1 0xA0 SHL SUB SWAP1 SWAP2 AND DUP2 MSTORE PUSH1 0x20 SWAP1 RETURN JUMPDEST POP DUP1 REVERT JUMPDEST SWAP1 POP CALLVALUE PUSH2 0x29A JUMPI PUSH1 0x20 CALLDATASIZE PUSH1 0x3 NOT ADD SLT PUSH2 0x29A JUMPI PUSH2 0x1E0 PUSH2 0x1B90 JUMP JUMPDEST DUP4 SLOAD PUSH1 0x1 PUSH1 0x1 PUSH1 0xA0 SHL SUB DUP1 DUP3 AND SWAP4 SWAP2 SWAP3 PUSH2 0x1FB CALLER DUP7 EQ PUSH2 0x1C4F JUMP JUMPDEST AND SWAP4 DUP5 ISZERO PUSH2 0x23A JUMPI POP POP PUSH1 0x1 PUSH1 0x1 PUSH1 0xA0 SHL SUB NOT AND DUP3 OR DUP4 SSTORE PUSH32 0x8BE0079C531659141344CD1FD0A4F28419497F9722A3DAAFE3B4186F6B6457E0 DUP4 DUP1 LOG3 DUP1 RETURN JUMPDEST MLOAD PUSH3 0x461BCD PUSH1 0xE5 SHL DUP2 MSTORE PUSH1 0x20 SWAP2 DUP2 ADD SWAP2 SWAP1 SWAP2 MSTORE PUSH1 0x32 PUSH1 0x24 DUP3 ADD MSTORE PUSH32 0x4F776E61626C653A206E6F75766561752070726F707269C3A974616972652065 PUSH1 0x44 DUP3 ADD MSTORE PUSH18 0x7374206C2761647265737365207AC3A9726F PUSH1 0x70 SHL PUSH1 0x64 DUP3 ADD MSTORE PUSH1 0x84 SWAP1 REVERT JUMPDEST DUP3 DUP1 REVERT JUMPDEST SWAP1 POP CALLVALUE PUSH2 0x29A JUMPI PUSH1 0x80 CALLDATASIZE PUSH1 0x3 NOT ADD SLT PUSH2 0x29A JUMPI CALLDATALOAD SWAP1 PUSH1 0x24 CALLDATALOAD SWAP1 PUSH2 0x2BF PUSH2 0x1C40 JUMP JUMPDEST SWAP2 PUSH1 0x64 CALLDATALOAD SWAP3 DUP4 ISZERO ISZERO DUP5 SUB PUSH2 0x37C JUMPI PUSH32 0xEC70F7B7F8BEEFA9FF0456053BAAFEC83986E3915F156E2ED04B0ACB57D7DD55 SWAP4 PUSH2 0x303 PUSH1 0x1 DUP1 PUSH1 0xA0 SHL SUB DUP9 SLOAD AND CALLER EQ PUSH2 0x1C4F JUMP JUMPDEST PUSH2 0x36F JUMPI JUMPDEST PUSH2 0x32B DUP3 PUSH2 0x326 PUSH1 0x5 SLOAD PUSH1 0x1 PUSH2 0x31D DUP11 PUSH2 0x1BEF JUMP JUMPDEST POP ADD SLOAD SWAP1 PUSH2 0x1EF7 JUMP JUMPDEST PUSH2 0x1E9E JUMP JUMPDEST PUSH1 0x5 SSTORE DUP2 PUSH1 0x1 PUSH2 0x33A DUP8 PUSH2 0x1BEF JUMP JUMPDEST POP ADD SSTORE PUSH2 0x35F DUP2 PUSH1 0x5 PUSH2 0x34C DUP9 PUSH2 0x1BEF JUMP JUMPDEST POP ADD SWAP1 PUSH1 0xFF DUP1 NOT DUP4 SLOAD AND SWAP2 ISZERO ISZERO AND OR SWAP1 SSTORE JUMP JUMPDEST DUP3 MLOAD SWAP2 DUP3 MSTORE ISZERO ISZERO PUSH1 0x20 DUP3 ADD MSTORE LOG2 DUP1 RETURN JUMPDEST PUSH2 0x377 PUSH2 0x1D46 JUMP JUMPDEST PUSH2 0x308 JUMP JUMPDEST DUP6 DUP1 REVERT JUMPDEST POP POP CALLVALUE PUSH2 0x1C1 JUMPI DUP2 PUSH1 0x3 NOT CALLDATASIZE ADD SLT PUSH2 0x1C1 JUMPI PUSH1 0x20 SWAP1 PUSH1 0xC SLOAD SWAP1 MLOAD SWAP1 DUP2 MSTORE RETURN JUMPDEST SWAP1 POP CALLVALUE PUSH2 0x29A JUMPI PUSH2 0x3AF CALLDATASIZE PUSH2 0x1C2A JUMP JUMPDEST SWAP1 SWAP2 PUSH1 0x1 SWAP4 PUSH2 0x3C2 PUSH1 0x2 DUP7 SLOAD EQ ISZERO PUSH2 0x1DDC JUMP JUMPDEST PUSH1 0x2 DUP6 SSTORE PUSH2 0x3D3 PUSH1 0x9 SLOAD DUP6 LT PUSH2 0x1E34 JUMP JUMPDEST DUP3 ISZERO PUSH2 0x6F5 JUMPI PUSH1 0xFF PUSH1 0x5 PUSH2 0x3E6 DUP7 PUSH2 0x1BEF JUMP JUMPDEST POP ADD SLOAD AND ISZERO PUSH2 0x6C3 JUMPI PUSH2 0x3F8 DUP5 PUSH2 0x1BEF JUMP JUMPDEST POP SWAP2 DUP5 DUP8 MSTORE PUSH1 0x20 SWAP3 PUSH1 0xA DUP5 MSTORE DUP3 DUP9 KECCAK256 CALLER DUP10 MSTORE DUP5 MSTORE DUP3 DUP9 KECCAK256 SWAP1 PUSH2 0x419 DUP8 PUSH2 0x1D6E JUMP JUMPDEST DUP2 SLOAD DUP1 PUSH2 0x668 JUMPI JUMPDEST POP DUP1 SLOAD DUP5 MLOAD PUSH4 0x23B872DD PUSH1 0xE0 SHL DUP2 MSTORE CALLER DUP6 DUP3 ADD MSTORE ADDRESS PUSH1 0x24 DUP3 ADD MSTORE PUSH1 0x44 DUP2 ADD DUP9 SWAP1 MSTORE SWAP1 DUP7 SWAP1 DUP3 SWAP1 PUSH1 0x64 SWAP1 DUP3 SWAP1 DUP15 SWAP1 PUSH1 0x1 PUSH1 0x1 PUSH1 0xA0 SHL SUB AND GAS CALL DUP1 ISZERO PUSH2 0x65E JUMPI DUP5 SWAP4 SWAP3 PUSH5 0xE8D4A51000 SWAP3 PUSH2 0x49C SWAP3 PUSH2 0x631 JUMPI JUMPDEST POP DUP5 DUP2 ADD PUSH2 0x481 DUP11 DUP3 SLOAD PUSH2 0x1E9E JUMP JUMPDEST SWAP1 SSTORE PUSH1 0x3 PUSH2 0x490 DUP11 DUP7 SLOAD PUSH2 0x1E9E JUMP JUMPDEST SWAP2 DUP3 DUP7 SSTORE ADD SLOAD SWAP1 PUSH2 0x205C JUMP JUMPDEST PUSH1 0x0 DUP1 MLOAD PUSH1 0x20 PUSH2 0x20B6 DUP4 CODECOPY DUP2 MLOAD SWAP2 MSTORE DUP8 DUP8 MLOAD PUSH2 0x4B7 DUP2 PUSH2 0x1CB1 JUMP JUMPDEST PUSH1 0x1A DUP2 MSTORE ADD MSTORE DIV DUP9 DUP3 ADD SSTORE TIMESTAMP PUSH1 0x3 DUP3 ADD SSTORE ADD DUP1 SLOAD SWAP1 PUSH1 0xFF DUP3 AND ISZERO PUSH2 0x517 JUMPI JUMPDEST POP POP POP SWAP1 PUSH32 0x90890809C654F11D6E72A28FA60149770A0D11EC6C92319D6CEB2BB0A4EA1A15 SWAP2 PUSH2 0x508 DUP5 PUSH1 0xC SLOAD PUSH2 0x1E9E JUMP JUMPDEST PUSH1 0xC SSTORE MLOAD SWAP3 DUP4 MSTORE CALLER SWAP3 LOG3 DUP1 SSTORE DUP1 RETURN JUMPDEST PUSH1 0xFF NOT SWAP2 DUP3 AND DUP9 OR SWAP1 SSTORE PUSH1 0xB SLOAD DUP1 DUP9 ADD SWAP1 DUP2 DUP2 GT PUSH2 0x61E JUMPI DUP2 LT PUSH2 0x5DB JUMPI PUSH1 0xB SSTORE CALLER DUP9 MSTORE PUSH1 0xE DUP5 MSTORE DUP7 DUP4 DUP10 KECCAK256 SWAP2 DUP3 SLOAD PUSH1 0xFF DUP2 AND ISZERO PUSH2 0x5CE JUMPI JUMPDEST POP POP POP POP PUSH1 0xD DUP4 MSTORE DUP2 DUP8 KECCAK256 DUP1 SLOAD SWAP2 PUSH1 0x1 PUSH1 0x40 SHL DUP4 LT ISZERO PUSH2 0x5BB JUMPI POP DUP2 PUSH2 0x59D SWAP2 DUP9 PUSH32 0x90890809C654F11D6E72A28FA60149770A0D11EC6C92319D6CEB2BB0A4EA1A15 SWAP7 SWAP6 SWAP5 ADD DUP2 SSTORE PUSH2 0x1BC1 JUMP JUMPDEST DUP2 SLOAD SWAP1 PUSH1 0x3 SHL SWAP1 DUP8 DUP3 SHL SWAP2 PUSH1 0x0 NOT SWAP1 SHL NOT AND OR SWAP1 SSTORE SWAP1 SWAP2 CODESIZE DUP1 PUSH2 0x4D6 JUMP JUMPDEST PUSH4 0x4E487B71 PUSH1 0xE0 SHL DUP10 MSTORE PUSH1 0x41 SWAP1 MSTORE PUSH1 0x24 DUP9 REVERT JUMPDEST AND OR SWAP1 SSTORE CODESIZE DUP7 DUP2 DUP1 PUSH2 0x550 JUMP JUMPDEST DUP4 MLOAD PUSH3 0x461BCD PUSH1 0xE5 SHL DUP2 MSTORE DUP1 DUP5 ADD DUP7 SWAP1 MSTORE PUSH1 0x1B PUSH1 0x24 DUP3 ADD MSTORE PUSH32 0x536166654D6174683A206164646974696F6E206F766572666C6F770000000000 PUSH1 0x44 DUP3 ADD MSTORE PUSH1 0x64 SWAP1 REVERT JUMPDEST PUSH4 0x4E487B71 PUSH1 0xE0 SHL DUP11 MSTORE PUSH1 0x11 DUP5 MSTORE PUSH1 0x24 DUP11 REVERT JUMPDEST PUSH2 0x650 SWAP1 DUP10 RETURNDATASIZE DUP12 GT PUSH2 0x657 JUMPI JUMPDEST PUSH2 0x648 DUP2 DUP4 PUSH2 0x1CE3 JUMP JUMPDEST DUP2 ADD SWAP1 PUSH2 0x1E72 JUMP JUMPDEST POP CODESIZE PUSH2 0x472 JUMP JUMPDEST POP RETURNDATASIZE PUSH2 0x63E JUMP JUMPDEST DUP6 MLOAD RETURNDATASIZE DUP13 DUP3 RETURNDATACOPY RETURNDATASIZE SWAP1 REVERT JUMPDEST PUSH2 0x67A PUSH2 0x6AC SWAP2 PUSH1 0x3 DUP5 ADD SLOAD SWAP1 PUSH2 0x205C JUMP JUMPDEST PUSH1 0x0 DUP1 MLOAD PUSH1 0x20 PUSH2 0x20B6 DUP4 CODECOPY DUP2 MLOAD SWAP2 MSTORE DUP8 DUP8 MLOAD PUSH2 0x695 DUP2 PUSH2 0x1CB1 JUMP JUMPDEST PUSH1 0x1A DUP2 MSTORE ADD MSTORE PUSH5 0xE8D4A51000 DUP11 DUP6 ADD SLOAD SWAP2 DIV PUSH2 0x1EF7 JUMP JUMPDEST PUSH2 0x6BB PUSH1 0x2 DUP5 ADD SWAP2 DUP3 SLOAD PUSH2 0x1E9E JUMP JUMPDEST SWAP1 SSTORE CODESIZE PUSH2 0x421 JUMP JUMPDEST SWAP1 PUSH1 0x20 PUSH1 0x64 SWAP3 MLOAD SWAP2 PUSH3 0x461BCD PUSH1 0xE5 SHL DUP4 MSTORE DUP3 ADD MSTORE PUSH1 0xC PUSH1 0x24 DUP3 ADD MSTORE PUSH12 0x2837B7B61034B730B1BA34B3 PUSH1 0xA1 SHL PUSH1 0x44 DUP3 ADD MSTORE REVERT JUMPDEST SWAP1 PUSH1 0x20 PUSH1 0x64 SWAP3 MLOAD SWAP2 PUSH3 0x461BCD PUSH1 0xE5 SHL DUP4 MSTORE DUP3 ADD MSTORE PUSH1 0x1F PUSH1 0x24 DUP3 ADD MSTORE PUSH32 0x4D6F6E74616E7420646F69742065747265207375706572696575722061203000 PUSH1 0x44 DUP3 ADD MSTORE REVERT JUMPDEST POP POP CALLVALUE PUSH2 0x1C1 JUMPI DUP2 PUSH1 0x3 NOT CALLDATASIZE ADD SLT PUSH2 0x1C1 JUMPI PUSH1 0x8 SLOAD SWAP1 MLOAD PUSH1 0x1 PUSH1 0x1 PUSH1 0xA0 SHL SUB SWAP1 SWAP2 AND DUP2 MSTORE PUSH1 0x20 SWAP1 RETURN JUMPDEST SWAP2 SWAP1 POP CALLVALUE PUSH2 0x29A JUMPI PUSH1 0x20 SWAP1 DUP2 PUSH1 0x3 NOT CALLDATASIZE ADD SLT PUSH2 0xA22 JUMPI DUP3 CALLDATALOAD SWAP2 PUSH2 0x789 PUSH1 0x2 PUSH1 0x1 SLOAD EQ ISZERO PUSH2 0x1DDC JUMP JUMPDEST PUSH1 0x2 PUSH1 0x1 SSTORE PUSH2 0x79B PUSH1 0x9 SLOAD DUP5 LT PUSH2 0x1E34 JUMP JUMPDEST PUSH2 0x7A4 DUP4 PUSH2 0x1BEF JUMP JUMPDEST POP SWAP2 DUP4 DUP7 MSTORE PUSH1 0xA DUP3 MSTORE DUP1 DUP7 KECCAK256 CALLER DUP8 MSTORE DUP3 MSTORE DUP1 DUP7 KECCAK256 SWAP3 PUSH2 0x7C2 DUP6 PUSH2 0x1D6E JUMP JUMPDEST PUSH1 0x3 DUP5 SLOAD SWAP2 ADD SWAP1 DUP4 PUSH2 0x7D5 DUP4 SLOAD DUP4 PUSH2 0x205C JUMP JUMPDEST SWAP2 DUP5 MLOAD PUSH2 0x7E1 DUP2 PUSH2 0x1CB1 JUMP JUMPDEST PUSH1 0x1A DUP2 MSTORE PUSH1 0x0 DUP1 MLOAD PUSH1 0x20 PUSH2 0x20B6 DUP4 CODECOPY DUP2 MLOAD SWAP2 MSTORE SWAP3 DUP4 SWAP2 ADD MSTORE PUSH1 0x1 DUP8 ADD SWAP4 PUSH2 0x820 PUSH1 0x2 PUSH2 0x816 DUP8 SLOAD PUSH5 0xE8D4A51000 DUP1 SWAP9 DIV PUSH2 0x1EF7 JUMP JUMPDEST SWAP10 ADD SWAP9 DUP10 SLOAD PUSH2 0x1E9E JUMP JUMPDEST SWAP8 DUP9 ISZERO PUSH2 0x9E1 JUMPI DUP12 SWAP1 SSTORE SLOAD PUSH2 0x834 SWAP2 PUSH2 0x205C JUMP JUMPDEST SWAP1 DUP6 DUP6 MLOAD PUSH2 0x841 DUP2 PUSH2 0x1CB1 JUMP JUMPDEST PUSH1 0x1A DUP2 MSTORE ADD MSTORE DIV SWAP1 SSTORE PUSH1 0x2 SLOAD DUP2 MLOAD PUSH4 0x70A08231 PUSH1 0xE0 SHL DUP2 MSTORE ADDRESS DUP2 DUP9 ADD MSTORE SWAP6 SWAP1 PUSH1 0x1 PUSH1 0x1 PUSH1 0xA0 SHL SUB SWAP1 DUP2 AND DUP5 DUP9 PUSH1 0x24 DUP2 DUP5 GAS STATICCALL SWAP8 DUP9 ISZERO PUSH2 0x9D7 JUMPI DUP10 SWAP9 PUSH2 0x9A4 JUMPI JUMPDEST POP DUP8 DUP7 GT ISZERO PUSH2 0x923 JUMPI POP PUSH1 0x2 SLOAD DUP4 MLOAD PUSH4 0xA9059CBB PUSH1 0xE0 SHL DUP2 MSTORE CALLER SWAP4 DUP2 ADD SWAP4 DUP5 MSTORE PUSH1 0x20 DUP5 ADD SWAP9 SWAP1 SWAP9 MSTORE DUP5 SWAP3 DUP9 SWAP3 SWAP1 DUP4 SWAP1 SUB PUSH1 0x40 ADD SWAP2 DUP4 SWAP2 DUP12 SWAP2 AND GAS CALL SWAP5 DUP6 ISZERO PUSH2 0x919 JUMPI PUSH32 0xF01DA32686223933D8A18A391060918C7F11A3648639EDD87AE013E2E2731743 SWAP4 SWAP5 SWAP6 PUSH2 0x8FC JUMPI JUMPDEST POP JUMPDEST MLOAD SWAP3 DUP4 MSTORE CALLER SWAP3 LOG3 PUSH1 0x1 DUP1 SSTORE DUP1 RETURN JUMPDEST PUSH2 0x912 SWAP1 DUP4 RETURNDATASIZE DUP6 GT PUSH2 0x657 JUMPI PUSH2 0x648 DUP2 DUP4 PUSH2 0x1CE3 JUMP JUMPDEST POP CODESIZE PUSH2 0x8EC JUMP JUMPDEST DUP2 MLOAD RETURNDATASIZE DUP9 DUP3 RETURNDATACOPY RETURNDATASIZE SWAP1 REVERT JUMPDEST DUP4 MLOAD PUSH4 0xA9059CBB PUSH1 0xE0 SHL DUP2 MSTORE CALLER SWAP4 DUP2 ADD SWAP4 DUP5 MSTORE PUSH1 0x20 DUP5 ADD DUP8 SWAP1 MSTORE SWAP8 POP DUP5 SWAP3 DUP9 SWAP3 POP DUP3 SWAP1 DUP11 SWAP1 DUP3 SWAP1 PUSH1 0x40 ADD SUB SWAP3 GAS CALL SWAP5 DUP6 ISZERO PUSH2 0x919 JUMPI PUSH32 0xF01DA32686223933D8A18A391060918C7F11A3648639EDD87AE013E2E2731743 SWAP4 SWAP5 SWAP6 PUSH2 0x987 JUMPI JUMPDEST POP PUSH2 0x8EE JUMP JUMPDEST PUSH2 0x99D SWAP1 DUP4 RETURNDATASIZE DUP6 GT PUSH2 0x657 JUMPI PUSH2 0x648 DUP2 DUP4 PUSH2 0x1CE3 JUMP JUMPDEST POP CODESIZE PUSH2 0x981 JUMP JUMPDEST SWAP1 SWAP8 POP DUP5 DUP2 DUP2 RETURNDATASIZE DUP4 GT PUSH2 0x9D0 JUMPI JUMPDEST PUSH2 0x9BC DUP2 DUP4 PUSH2 0x1CE3 JUMP JUMPDEST DUP2 ADD SUB SLT PUSH2 0x9CC JUMPI MLOAD SWAP7 CODESIZE PUSH2 0x881 JUMP JUMPDEST DUP9 DUP1 REVERT JUMPDEST POP RETURNDATASIZE PUSH2 0x9B2 JUMP JUMPDEST DUP5 MLOAD RETURNDATASIZE DUP12 DUP3 RETURNDATACOPY RETURNDATASIZE SWAP1 REVERT JUMPDEST PUSH1 0x64 DUP12 DUP10 DUP1 DUP11 MLOAD SWAP3 PUSH3 0x461BCD PUSH1 0xE5 SHL DUP5 MSTORE DUP4 ADD MSTORE PUSH1 0x24 DUP3 ADD MSTORE PUSH32 0x5061732064652072C3A9636F6D70656E73657320C3A02072C3A9636C616D6572 PUSH1 0x44 DUP3 ADD MSTORE REVERT JUMPDEST DUP4 DUP1 REVERT JUMPDEST DUP4 SWAP1 CALLVALUE PUSH2 0x1C1 JUMPI PUSH1 0x20 CALLDATASIZE PUSH1 0x3 NOT ADD SLT PUSH2 0x1C1 JUMPI PUSH2 0xA43 SWAP1 CALLDATALOAD PUSH2 0x1D6E JUMP JUMPDEST DUP1 RETURN JUMPDEST DUP4 DUP4 CALLVALUE PUSH2 0x1C1 JUMPI PUSH1 0x20 SWAP1 DUP2 PUSH1 0x3 NOT CALLDATASIZE ADD SLT PUSH2 0x29A JUMPI PUSH2 0xA63 PUSH2 0x1B90 JUMP JUMPDEST DUP4 SLOAD PUSH1 0x1 PUSH1 0x1 PUSH1 0xA0 SHL SUB SWAP1 DUP2 AND SWAP6 SWAP2 DUP2 SWAP1 PUSH2 0xA7F CALLER DUP10 EQ PUSH2 0x1C4F JUMP JUMPDEST AND SWAP1 PUSH1 0x2 SLOAD AND DUP2 EQ PUSH2 0xB69 JUMPI DUP5 SWAP6 DUP4 SWAP6 SWAP5 SWAP6 MLOAD SWAP3 PUSH4 0x70A08231 PUSH1 0xE0 SHL DUP5 MSTORE ADDRESS DUP2 DUP6 ADD MSTORE DUP7 DUP5 PUSH1 0x24 DUP2 DUP7 GAS STATICCALL SWAP4 DUP5 ISZERO PUSH2 0xB5F JUMPI SWAP1 DUP8 SWAP5 SWAP4 SWAP3 SWAP2 DUP8 SWAP5 PUSH2 0xB2A JUMPI JUMPDEST POP DUP6 MLOAD PUSH4 0xA9059CBB PUSH1 0xE0 SHL DUP2 MSTORE PUSH1 0x1 PUSH1 0x1 PUSH1 0xA0 SHL SUB SWAP1 SWAP3 AND SWAP1 DUP3 ADD SWAP1 DUP2 MSTORE PUSH1 0x20 DUP2 ADD SWAP4 SWAP1 SWAP4 MSTORE SWAP5 DUP6 SWAP3 DUP4 SWAP2 SWAP1 DUP3 SWAP1 PUSH1 0x40 ADD JUMPDEST SUB SWAP3 GAS CALL SWAP1 DUP2 ISZERO PUSH2 0xB21 JUMPI POP PUSH2 0xB04 JUMPI DUP3 DUP1 RETURN JUMPDEST DUP2 PUSH2 0xB1A SWAP3 SWAP1 RETURNDATASIZE LT PUSH2 0x657 JUMPI PUSH2 0x648 DUP2 DUP4 PUSH2 0x1CE3 JUMP JUMPDEST POP DUP2 DUP1 DUP3 DUP1 RETURN JUMPDEST MLOAD RETURNDATASIZE DUP6 DUP3 RETURNDATACOPY RETURNDATASIZE SWAP1 REVERT JUMPDEST DUP6 DUP2 SWAP7 SWAP3 SWAP6 POP RETURNDATASIZE DUP4 GT PUSH2 0xB58 JUMPI JUMPDEST PUSH2 0xB42 DUP2 DUP4 PUSH2 0x1CE3 JUMP JUMPDEST DUP2 ADD SUB SLT PUSH2 0x37C JUMPI SWAP3 MLOAD DUP7 SWAP4 SWAP1 SWAP3 PUSH2 0xAF0 PUSH2 0xABE JUMP JUMPDEST POP RETURNDATASIZE PUSH2 0xB38 JUMP JUMPDEST DUP6 MLOAD RETURNDATASIZE DUP9 DUP3 RETURNDATACOPY RETURNDATASIZE SWAP1 REVERT JUMPDEST POP SWAP1 MLOAD PUSH3 0x461BCD PUSH1 0xE5 SHL DUP2 MSTORE SWAP1 DUP2 ADD DUP3 SWAP1 MSTORE PUSH1 0x31 PUSH1 0x24 DUP3 ADD MSTORE PUSH32 0x496D706F737369626C652064652072C3A9637570C3A9726572206C6520746F6B PUSH1 0x44 DUP3 ADD MSTORE PUSH17 0x656E2064652072C3A9636F6D70656E7365 PUSH1 0x78 SHL PUSH1 0x64 DUP3 ADD MSTORE PUSH1 0x84 SWAP1 REVERT JUMPDEST SWAP2 SWAP1 POP CALLVALUE PUSH2 0x29A JUMPI PUSH1 0x20 CALLDATASIZE PUSH1 0x3 NOT ADD SLT PUSH2 0x29A JUMPI PUSH32 0x2CF1663BEBFBD9A7F883960B23C5D337DA307EC0F090EDD9C2EBF7F7809B06F2 SWAP2 CALLDATALOAD PUSH2 0xC12 PUSH1 0x1 DUP1 PUSH1 0xA0 SHL SUB DUP6 SLOAD AND CALLER EQ PUSH2 0x1C4F JUMP JUMPDEST PUSH1 0x6 SLOAD SWAP1 DUP1 PUSH1 0x6 SSTORE DUP3 MLOAD SWAP2 DUP3 MSTORE PUSH1 0x20 DUP3 ADD MSTORE LOG1 DUP1 RETURN JUMPDEST SWAP1 POP CALLVALUE PUSH2 0x29A JUMPI DUP2 PUSH1 0x3 NOT CALLDATASIZE ADD SLT PUSH2 0x29A JUMPI PUSH1 0x20 SWAP3 PUSH1 0x2 PUSH2 0xCCD PUSH2 0xC9A DUP5 DUP7 PUSH2 0xCD6 SWAP7 CALLDATALOAD SWAP6 PUSH2 0xC55 PUSH2 0x1BAB JUMP JUMPDEST PUSH2 0xC5E DUP9 PUSH2 0x1BEF JUMP JUMPDEST POP SWAP8 DUP3 MSTORE PUSH1 0xA DUP12 MSTORE DUP3 DUP3 KECCAK256 SWAP1 PUSH1 0x1 DUP1 PUSH1 0xA0 SHL SUB AND DUP3 MSTORE DUP11 MSTORE KECCAK256 SWAP5 PUSH1 0x3 DUP2 ADD SLOAD SWAP2 DUP6 DUP3 ADD SLOAD DUP1 NUMBER GT DUP1 PUSH2 0xD35 JUMPI JUMPDEST PUSH2 0xCDD JUMPI JUMPDEST POP POP POP DUP5 SLOAD PUSH2 0x205C JUMP JUMPDEST PUSH1 0x0 DUP1 MLOAD PUSH1 0x20 PUSH2 0x20B6 DUP4 CODECOPY DUP2 MLOAD SWAP2 MSTORE DUP8 DUP8 MLOAD PUSH2 0xCB5 DUP2 PUSH2 0x1CB1 JUMP JUMPDEST PUSH1 0x1A DUP2 MSTORE ADD MSTORE PUSH5 0xE8D4A51000 PUSH1 0x1 DUP6 ADD SLOAD SWAP2 DIV PUSH2 0x1EF7 JUMP JUMPDEST SWAP2 ADD SLOAD SWAP1 PUSH2 0x1E9E JUMP JUMPDEST SWAP1 MLOAD SWAP1 DUP2 MSTORE RETURN JUMPDEST SWAP2 PUSH2 0xD27 SWAP2 PUSH2 0xD1E PUSH2 0xD19 PUSH2 0xD10 PUSH2 0xD05 PUSH2 0xCFC PUSH2 0xD2D SWAP10 SWAP9 NUMBER PUSH2 0x1EF7 JUMP JUMPDEST PUSH1 0x3 SLOAD SWAP1 PUSH2 0x205C JUMP JUMPDEST PUSH1 0x1 DUP7 ADD SLOAD SWAP1 PUSH2 0x205C JUMP JUMPDEST PUSH1 0x5 SLOAD SWAP1 PUSH2 0x2081 JUMP JUMPDEST PUSH2 0x2039 JUMP JUMPDEST SWAP2 ADD SLOAD SWAP1 PUSH2 0x2081 JUMP JUMPDEST SWAP1 PUSH2 0x1E9E JUMP JUMPDEST CODESIZE DUP1 DUP1 PUSH2 0xC90 JUMP JUMPDEST POP DUP2 DUP4 ADD SLOAD ISZERO ISZERO PUSH2 0xC8B JUMP JUMPDEST DUP3 DUP5 CALLVALUE PUSH2 0xDEE JUMPI PUSH1 0x20 SWAP1 DUP2 PUSH1 0x3 NOT CALLDATASIZE ADD SLT PUSH2 0xDEE JUMPI DUP3 SWAP1 PUSH1 0x1 PUSH1 0x1 PUSH1 0xA0 SHL SUB PUSH2 0xD68 PUSH2 0x1B90 JUMP JUMPDEST AND DUP2 MSTORE PUSH1 0xD DUP4 MSTORE DUP2 DUP2 KECCAK256 SWAP1 DUP3 MLOAD DUP1 DUP6 DUP5 SLOAD SWAP2 DUP3 DUP2 MSTORE ADD SWAP1 DUP2 SWAP5 DUP5 MSTORE DUP7 DUP5 KECCAK256 SWAP1 DUP5 JUMPDEST DUP2 DUP2 LT PUSH2 0xDDA JUMPI POP POP POP DUP2 PUSH2 0xD9F SWAP2 SUB DUP3 PUSH2 0x1CE3 JUMP JUMPDEST DUP4 MLOAD SWAP5 DUP6 SWAP5 DUP2 DUP7 ADD SWAP3 DUP3 DUP8 MSTORE MLOAD DUP1 SWAP4 MSTORE DUP6 ADD SWAP4 SWAP3 JUMPDEST DUP3 DUP2 LT PUSH2 0xDC3 JUMPI POP POP POP POP SUB SWAP1 RETURN JUMPDEST DUP4 MLOAD DUP6 MSTORE DUP7 SWAP6 POP SWAP4 DUP2 ADD SWAP4 SWAP3 DUP2 ADD SWAP3 PUSH1 0x1 ADD PUSH2 0xDB4 JUMP JUMPDEST DUP3 SLOAD DUP5 MSTORE SWAP3 DUP9 ADD SWAP3 PUSH1 0x1 SWAP3 DUP4 ADD SWAP3 ADD PUSH2 0xD89 JUMP JUMPDEST DUP1 REVERT JUMPDEST DUP3 DUP5 CALLVALUE PUSH2 0xDEE JUMPI DUP2 PUSH1 0x3 NOT CALLDATASIZE ADD SLT PUSH2 0xDEE JUMPI DUP2 PUSH2 0xE72 SWAP2 PUSH2 0xE10 PUSH2 0x1BAB JUMP JUMPDEST DUP6 CALLDATALOAD DUP3 MSTORE PUSH1 0xA PUSH1 0x20 MSTORE DUP3 DUP3 KECCAK256 SWAP1 PUSH1 0x1 DUP1 PUSH1 0xA0 SHL SUB AND DUP3 MSTORE PUSH1 0x20 MSTORE KECCAK256 SWAP2 DUP3 SLOAD SWAP3 PUSH1 0x1 DUP2 ADD SLOAD SWAP5 PUSH1 0xFF PUSH1 0x2 DUP4 ADD SLOAD SWAP2 PUSH1 0x3 DUP5 ADD SLOAD SWAP4 ADD SLOAD AND SWAP3 MLOAD SWAP6 DUP7 SWAP6 DUP7 SWAP4 SWAP1 SWAP6 SWAP5 SWAP2 SWAP3 PUSH1 0x80 SWAP4 PUSH1 0xA0 DUP7 ADD SWAP8 DUP7 MSTORE PUSH1 0x20 DUP7 ADD MSTORE PUSH1 0x40 DUP6 ADD MSTORE PUSH1 0x60 DUP5 ADD MSTORE ISZERO ISZERO SWAP2 ADD MSTORE JUMP JUMPDEST SUB SWAP1 RETURN JUMPDEST POP POP CALLVALUE PUSH2 0x1C1 JUMPI DUP2 PUSH1 0x3 NOT CALLDATASIZE ADD SLT PUSH2 0x1C1 JUMPI PUSH1 0x20 SWAP1 PUSH1 0xB SLOAD SWAP1 MLOAD SWAP1 DUP2 MSTORE RETURN JUMPDEST POP POP CALLVALUE PUSH2 0x1C1 JUMPI DUP2 PUSH1 0x3 NOT CALLDATASIZE ADD SLT PUSH2 0x1C1 JUMPI SWAP1 SLOAD SWAP1 MLOAD PUSH1 0x1 PUSH1 0x1 PUSH1 0xA0 SHL SUB SWAP1 SWAP2 AND DUP2 MSTORE PUSH1 0x20 SWAP1 RETURN JUMPDEST POP POP CALLVALUE PUSH2 0x1C1 JUMPI DUP2 PUSH1 0x3 NOT CALLDATASIZE ADD SLT PUSH2 0x1C1 JUMPI PUSH1 0x20 SWAP1 PUSH1 0x3 SLOAD SWAP1 MLOAD SWAP1 DUP2 MSTORE RETURN JUMPDEST DUP4 DUP4 CALLVALUE PUSH2 0x1C1 JUMPI PUSH1 0x60 CALLDATASIZE PUSH1 0x3 NOT ADD SLT PUSH2 0x1C1 JUMPI DUP3 CALLDATALOAD PUSH2 0xEF9 PUSH2 0x1BAB JUMP JUMPDEST PUSH2 0xF01 PUSH2 0x1C40 JUMP JUMPDEST DUP5 SLOAD PUSH1 0x1 PUSH1 0x1 PUSH1 0xA0 SHL SUB SWAP3 SWAP2 SWAP1 PUSH2 0xF1B SWAP1 DUP5 AND CALLER EQ PUSH2 0x1C4F JUMP JUMPDEST PUSH2 0x1094 JUMPI JUMPDEST DUP6 SLOAD DUP1 NUMBER GT PUSH1 0x0 EQ PUSH2 0x108E JUMPI POP NUMBER SWAP2 JUMPDEST PUSH2 0xF3C DUP5 PUSH1 0x5 SLOAD PUSH2 0x1E9E JUMP JUMPDEST PUSH1 0x5 SSTORE DUP5 MLOAD SWAP2 PUSH1 0xC0 DUP4 ADD DUP4 DUP2 LT PUSH8 0xFFFFFFFFFFFFFFFF DUP3 GT OR PUSH2 0x107B JUMPI SWAP1 DUP3 SWAP2 DUP8 MSTORE AND SWAP3 DUP4 DUP4 MSTORE PUSH1 0x20 DUP4 ADD SWAP1 DUP6 DUP3 MSTORE DUP7 DUP5 ADD SWAP1 DUP2 MSTORE PUSH1 0x60 DUP5 ADD SWAP1 DUP9 DUP3 MSTORE PUSH1 0x80 DUP6 ADD SWAP3 DUP10 DUP5 MSTORE PUSH1 0xA0 DUP7 ADD SWAP5 PUSH1 0x1 DUP7 MSTORE PUSH1 0x9 SLOAD PUSH1 0x1 PUSH1 0x40 SHL DUP2 LT ISZERO PUSH2 0x1068 JUMPI DUP1 PUSH1 0x1 PUSH2 0xFA9 SWAP3 ADD PUSH1 0x9 SSTORE PUSH2 0x1BEF JUMP JUMPDEST SWAP8 SWAP1 SWAP8 PUSH2 0x1056 JUMPI MLOAD DUP8 SLOAD SWAP2 AND PUSH1 0x1 PUSH1 0x1 PUSH1 0xA0 SHL SUB NOT SWAP1 SWAP2 AND OR DUP7 SSTORE MLOAD PUSH1 0x1 DUP7 ADD SSTORE MLOAD PUSH1 0x2 DUP6 ADD SSTORE MLOAD PUSH1 0x3 DUP5 ADD SSTORE MLOAD DUP8 DUP4 ADD SSTORE MLOAD PUSH1 0x5 SWAP1 SWAP2 ADD DUP1 SLOAD PUSH1 0xFF NOT AND SWAP2 ISZERO ISZERO PUSH1 0xFF AND SWAP2 SWAP1 SWAP2 OR SWAP1 SSTORE PUSH1 0x9 SLOAD PUSH1 0x0 NOT DUP2 ADD SWAP4 SWAP1 DUP5 GT PUSH2 0x1043 JUMPI MLOAD PUSH1 0x1 PUSH1 0x1 PUSH1 0xA0 SHL SUB SWAP2 SWAP1 SWAP2 AND DUP2 MSTORE PUSH1 0x20 DUP2 ADD SWAP2 SWAP1 SWAP2 MSTORE PUSH32 0x6C5D0EF1D0199B6DE41ECBCE95F59643BE4D723CA363FAF92D756E61E82FB13E SWAP1 PUSH1 0x40 SWAP1 LOG2 DUP1 RETURN JUMPDEST PUSH4 0x4E487B71 PUSH1 0xE0 SHL DUP6 MSTORE PUSH1 0x11 DUP7 MSTORE PUSH1 0x24 DUP6 REVERT JUMPDEST PUSH4 0x4E487B71 PUSH1 0xE0 SHL DUP13 MSTORE DUP12 DUP14 MSTORE PUSH1 0x24 DUP13 REVERT JUMPDEST PUSH4 0x4E487B71 PUSH1 0xE0 SHL DUP13 MSTORE PUSH1 0x41 DUP14 MSTORE PUSH1 0x24 DUP13 REVERT JUMPDEST PUSH4 0x4E487B71 PUSH1 0xE0 SHL DUP9 MSTORE PUSH1 0x41 DUP10 MSTORE PUSH1 0x24 DUP9 REVERT JUMPDEST SWAP2 PUSH2 0xF30 JUMP JUMPDEST PUSH2 0x109C PUSH2 0x1D46 JUMP JUMPDEST PUSH2 0xF20 JUMP JUMPDEST DUP4 CALLVALUE PUSH2 0xDEE JUMPI DUP1 PUSH1 0x3 NOT CALLDATASIZE ADD SLT PUSH2 0xDEE JUMPI DUP1 SLOAD DUP2 SWAP1 PUSH1 0x1 PUSH1 0x1 PUSH1 0xA0 SHL SUB DUP2 AND SWAP1 PUSH2 0x10CC CALLER DUP4 EQ PUSH2 0x1C4F JUMP JUMPDEST PUSH1 0x1 PUSH1 0x1 PUSH1 0xA0 SHL SUB NOT AND DUP3 SSTORE PUSH32 0x8BE0079C531659141344CD1FD0A4F28419497F9722A3DAAFE3B4186F6B6457E0 DUP3 DUP1 LOG3 DUP1 RETURN JUMPDEST DUP4 CALLVALUE PUSH2 0xDEE JUMPI DUP1 PUSH1 0x3 NOT CALLDATASIZE ADD SLT PUSH2 0xDEE JUMPI PUSH2 0xA43 PUSH2 0x1D46 JUMP JUMPDEST SWAP1 POP CALLVALUE PUSH2 0x29A JUMPI PUSH1 0x20 SWAP1 DUP2 PUSH1 0x3 NOT CALLDATASIZE ADD SLT PUSH2 0xA22 JUMPI DUP1 CALLDATALOAD SWAP1 PUSH1 0x1 SWAP3 PUSH2 0x1141 PUSH1 0x2 DUP6 SLOAD EQ ISZERO PUSH2 0x1DDC JUMP JUMPDEST PUSH1 0x2 DUP5 SSTORE PUSH2 0x114E DUP4 PUSH2 0x1BEF JUMP JUMPDEST POP SWAP5 DUP4 DUP8 MSTORE PUSH1 0xA SWAP6 DUP7 DUP4 MSTORE DUP2 DUP9 KECCAK256 CALLER DUP10 MSTORE DUP4 MSTORE DUP2 DUP9 KECCAK256 SWAP4 DUP1 DUP6 SLOAD SWAP6 DUP11 DUP2 SSTORE DUP11 DUP10 DUP3 ADD SSTORE DUP11 PUSH1 0x2 DUP3 ADD SSTORE ADD SWAP2 PUSH1 0xFF NOT SWAP3 DUP4 DUP2 SLOAD AND SWAP1 SSTORE DUP2 DUP2 ADD PUSH2 0x1191 DUP8 DUP3 SLOAD PUSH2 0x1EF7 JUMP JUMPDEST SWAP1 SSTORE SLOAD DUP4 MLOAD PUSH4 0xA9059CBB PUSH1 0xE0 SHL DUP2 MSTORE CALLER DUP4 DUP3 ADD SWAP1 DUP2 MSTORE PUSH1 0x20 DUP2 ADD DUP9 SWAP1 MSTORE SWAP1 SWAP10 SWAP2 DUP7 SWAP2 DUP12 SWAP2 PUSH1 0x1 PUSH1 0x1 PUSH1 0xA0 SHL SUB AND SWAP1 DUP3 SWAP1 DUP15 SWAP1 DUP3 SWAP1 PUSH1 0x40 ADD SUB SWAP3 GAS CALL SWAP9 DUP10 ISZERO PUSH2 0x133E JUMPI DUP9 SWAP10 PUSH2 0x1321 JUMPI JUMPDEST POP PUSH2 0x11E7 DUP7 PUSH1 0xC SLOAD PUSH2 0x1EF7 JUMP JUMPDEST PUSH1 0xC SSTORE PUSH2 0x1223 PUSH1 0xB SLOAD PUSH2 0x121E DUP7 MLOAD PUSH2 0x11FE DUP2 PUSH2 0x1CB1 JUMP JUMPDEST PUSH1 0x1E DUP2 MSTORE PUSH1 0x0 DUP1 MLOAD PUSH1 0x20 PUSH2 0x20D6 DUP4 CODECOPY DUP2 MLOAD SWAP2 MSTORE DUP10 DUP3 ADD MSTORE DUP3 DUP13 GT ISZERO PUSH2 0x1F34 JUMP JUMPDEST PUSH2 0x1D05 JUMP JUMPDEST PUSH1 0xB SSTORE DUP10 SWAP2 DUP3 DUP10 JUMPDEST PUSH2 0x1281 JUMPI JUMPDEST POP POP POP PUSH32 0xBB757047C2B5F3974FE26B7C10F732E7BCE710B0952A71082702781E62AE0595 SWAP5 SWAP6 SWAP7 POP ISZERO PUSH2 0x126B JUMPI JUMPDEST POP MLOAD SWAP3 DUP4 MSTORE CALLER SWAP3 LOG3 DUP1 SSTORE DUP1 RETURN JUMPDEST CALLER DUP9 MSTORE PUSH1 0xE DUP4 MSTORE DUP2 DUP9 KECCAK256 SWAP1 DUP2 SLOAD AND SWAP1 SSTORE CODESIZE PUSH2 0x125E JUMP JUMPDEST CALLER DUP13 MSTORE PUSH1 0xD DUP8 MSTORE DUP12 DUP7 DUP2 KECCAK256 DUP1 SLOAD DUP4 LT ISZERO PUSH2 0x131A JUMPI DUP8 PUSH2 0x12A1 DUP5 DUP7 SWAP4 PUSH2 0x1BC1 JUMP JUMPDEST SWAP1 SLOAD SWAP1 PUSH1 0x3 SHL SHR SWAP3 DUP13 DUP5 EQ ISZERO SWAP4 DUP5 PUSH2 0x12FC JUMPI JUMPDEST POP POP POP POP PUSH2 0x12CB JUMPI PUSH2 0x12C5 SWAP1 PUSH2 0x1D37 JUMP JUMPDEST DUP10 PUSH2 0x122B JUMP JUMPDEST POP DUP10 SWAP9 SWAP3 POP PUSH32 0xBB757047C2B5F3974FE26B7C10F732E7BCE710B0952A71082702781E62AE0595 SWAP2 POP CODESIZE SWAP1 POP DUP1 PUSH2 0x1230 JUMP JUMPDEST PUSH1 0xFF SWAP5 POP DUP2 MSTORE DUP7 DUP12 MSTORE DUP2 DUP2 KECCAK256 CALLER DUP3 MSTORE DUP12 MSTORE KECCAK256 ADD SLOAD AND DUP3 DUP8 DUP15 CODESIZE PUSH2 0x12B4 JUMP JUMPDEST POP POP PUSH2 0x1230 JUMP JUMPDEST PUSH2 0x1337 SWAP1 DUP7 RETURNDATASIZE DUP9 GT PUSH2 0x657 JUMPI PUSH2 0x648 DUP2 DUP4 PUSH2 0x1CE3 JUMP JUMPDEST POP CODESIZE PUSH2 0x11DA JUMP JUMPDEST DUP5 MLOAD RETURNDATASIZE DUP13 DUP3 RETURNDATACOPY RETURNDATASIZE SWAP1 REVERT JUMPDEST SWAP1 POP CALLVALUE PUSH2 0x29A JUMPI DUP3 PUSH1 0x3 NOT CALLDATASIZE ADD SLT PUSH2 0x29A JUMPI PUSH1 0x20 SWAP3 POP SLOAD SWAP1 MLOAD SWAP1 DUP2 MSTORE RETURN JUMPDEST DUP4 DUP4 CALLVALUE PUSH2 0x1C1 JUMPI PUSH2 0x1376 CALLDATASIZE PUSH2 0x1C2A JUMP JUMPDEST PUSH1 0x1 SWAP3 PUSH2 0x1387 PUSH1 0x2 DUP6 SLOAD EQ ISZERO PUSH2 0x1DDC JUMP JUMPDEST PUSH1 0x2 DUP5 SSTORE PUSH2 0x1398 PUSH1 0x9 SLOAD DUP5 LT PUSH2 0x1E34 JUMP JUMPDEST PUSH2 0x13A1 DUP4 PUSH2 0x1BEF JUMP JUMPDEST POP SWAP1 DUP4 DUP7 MSTORE PUSH1 0xA PUSH1 0x20 SWAP3 DUP2 DUP5 MSTORE DUP3 DUP9 KECCAK256 CALLER DUP10 MSTORE DUP5 MSTORE DUP3 DUP9 KECCAK256 SWAP9 DUP6 DUP11 SLOAD LT PUSH2 0x16F2 JUMPI DUP9 SWAP10 PUSH2 0x13CD DUP9 PUSH2 0x1D6E JUMP JUMPDEST DUP6 PUSH2 0x14C6 DUP7 DUP4 SLOAD SWAP6 DUP11 DUP14 DUP6 PUSH1 0x3 SWAP10 PUSH2 0x13EA DUP12 DUP7 ADD SWAP2 DUP3 SLOAD SWAP1 PUSH2 0x205C JUMP JUMPDEST SWAP3 DUP7 MLOAD PUSH2 0x13F6 DUP2 PUSH2 0x1CB1 JUMP JUMPDEST PUSH1 0x1A DUP2 MSTORE PUSH1 0x0 DUP1 MLOAD PUSH1 0x20 PUSH2 0x20B6 DUP4 CODECOPY DUP2 MLOAD SWAP2 MSTORE SWAP4 DUP5 SWAP2 ADD MSTORE DUP10 ADD SWAP4 PUSH2 0x1424 DUP6 SLOAD PUSH5 0xE8D4A51000 DUP1 SWAP7 DIV PUSH2 0x1EF7 JUMP JUMPDEST PUSH2 0x1433 PUSH1 0x2 DUP13 ADD SWAP2 DUP3 SLOAD PUSH2 0x1E9E JUMP JUMPDEST SWAP1 SSTORE DUP11 PUSH2 0x1443 DUP14 DUP13 ADD SLOAD TIMESTAMP PUSH2 0x1EF7 JUMP JUMPDEST SWAP8 DUP3 SWAP9 PUSH1 0x6 SLOAD GT PUSH2 0x1670 JUMPI JUMPDEST POP POP SWAP1 PUSH2 0x1460 PUSH2 0x146B SWAP3 DUP12 SLOAD PUSH2 0x1EF7 JUMP JUMPDEST SWAP1 DUP2 DUP12 SSTORE SLOAD SWAP1 PUSH2 0x205C JUMP JUMPDEST SWAP1 DUP8 DUP14 MLOAD PUSH2 0x1478 DUP2 PUSH2 0x1CB1 JUMP JUMPDEST PUSH1 0x1A DUP2 MSTORE ADD MSTORE DIV SWAP1 SSTORE DUP6 DUP2 ADD PUSH2 0x148F DUP13 DUP3 SLOAD PUSH2 0x1EF7 JUMP JUMPDEST SWAP1 SSTORE SLOAD DUP9 MLOAD PUSH4 0xA9059CBB PUSH1 0xE0 SHL DUP2 MSTORE CALLER DUP8 DUP3 ADD SWAP1 DUP2 MSTORE PUSH1 0x20 DUP2 ADD SWAP4 SWAP1 SWAP4 MSTORE SWAP14 DUP15 SWAP4 PUSH1 0x1 PUSH1 0x1 PUSH1 0xA0 SHL SUB SWAP1 SWAP3 AND SWAP3 DUP5 SWAP3 DUP4 SWAP2 PUSH1 0x40 ADD SWAP1 JUMP JUMPDEST SUB SWAP3 GAS CALL SWAP10 DUP11 ISZERO PUSH2 0x1666 JUMPI DUP10 SWAP11 PUSH2 0x1649 JUMPI JUMPDEST POP PUSH2 0x14E5 DUP8 PUSH1 0xC SLOAD PUSH2 0x1EF7 JUMP JUMPDEST PUSH1 0xC SSTORE DUP1 SLOAD ISZERO PUSH2 0x1523 JUMPI JUMPDEST DUP11 DUP10 DUP10 DUP10 PUSH32 0xF279E6A1F5E320CCA91135676D9CB6E44CA8A08C0B88342BCDB1144F6511B568 DUP11 DUP11 MLOAD SWAP3 DUP4 MSTORE CALLER SWAP3 LOG3 DUP1 SSTORE DUP1 RETURN JUMPDEST DUP2 ADD SWAP3 PUSH1 0xFF NOT SWAP4 DUP5 DUP2 SLOAD AND SWAP1 SSTORE PUSH2 0x1564 PUSH1 0xB SLOAD PUSH2 0x121E DUP8 MLOAD PUSH2 0x1544 DUP2 PUSH2 0x1CB1 JUMP JUMPDEST PUSH1 0x1E DUP2 MSTORE PUSH1 0x0 DUP1 MLOAD PUSH1 0x20 PUSH2 0x20D6 DUP4 CODECOPY DUP2 MLOAD SWAP2 MSTORE DUP11 DUP3 ADD MSTORE DUP3 DUP14 GT ISZERO PUSH2 0x1F34 JUMP JUMPDEST PUSH1 0xB SSTORE DUP11 SWAP3 DUP4 DUP11 JUMPDEST PUSH2 0x15C1 JUMPI JUMPDEST POP POP POP POP PUSH32 0xF279E6A1F5E320CCA91135676D9CB6E44CA8A08C0B88342BCDB1144F6511B568 SWAP5 SWAP6 SWAP7 POP ISZERO PUSH2 0x15AB JUMPI JUMPDEST DUP7 SWAP6 SWAP5 SWAP4 DUP2 DUP1 PUSH2 0x14F0 JUMP JUMPDEST CALLER DUP9 MSTORE PUSH1 0xE DUP4 MSTORE DUP2 DUP9 KECCAK256 SWAP1 DUP2 SLOAD AND SWAP1 SSTORE DUP8 PUSH2 0x15A0 JUMP JUMPDEST CALLER DUP14 MSTORE PUSH1 0xD DUP9 MSTORE DUP13 DUP8 DUP2 KECCAK256 DUP1 SLOAD DUP4 LT ISZERO PUSH2 0x1642 JUMPI DUP9 PUSH1 0xFF SWAP3 PUSH2 0x15E4 DUP6 DUP10 SWAP5 PUSH2 0x1BC1 JUMP JUMPDEST SWAP1 SLOAD SWAP1 DUP8 SHL SHR DUP2 MSTORE DUP7 DUP13 MSTORE DUP2 DUP2 KECCAK256 CALLER DUP3 MSTORE DUP13 MSTORE KECCAK256 ADD SLOAD AND PUSH2 0x160E JUMPI PUSH2 0x1608 SWAP1 PUSH2 0x1D37 JUMP JUMPDEST DUP11 PUSH2 0x156C JUMP JUMPDEST POP DUP11 SWAP10 SWAP4 POP PUSH32 0xF279E6A1F5E320CCA91135676D9CB6E44CA8A08C0B88342BCDB1144F6511B568 SWAP3 POP DUP13 SWAP2 POP DUP2 SWAP1 POP DUP1 PUSH2 0x1571 JUMP JUMPDEST POP POP PUSH2 0x1571 JUMP JUMPDEST PUSH2 0x165F SWAP1 DUP8 RETURNDATASIZE DUP10 GT PUSH2 0x657 JUMPI PUSH2 0x648 DUP2 DUP4 PUSH2 0x1CE3 JUMP JUMPDEST POP DUP12 PUSH2 0x14D8 JUMP JUMPDEST DUP6 MLOAD RETURNDATASIZE DUP14 DUP3 RETURNDATACOPY RETURNDATASIZE SWAP1 REVERT JUMPDEST PUSH2 0x1460 SWAP2 SWAP9 POP SWAP2 PUSH2 0x146B SWAP4 SWAP3 PUSH2 0x16CD DUP13 PUSH1 0x0 DUP1 MLOAD PUSH1 0x20 PUSH2 0x20D6 DUP4 CODECOPY DUP2 MLOAD SWAP2 MSTORE PUSH1 0x64 PUSH2 0x169D PUSH1 0x7 SLOAD DUP8 PUSH2 0x205C JUMP JUMPDEST DUP11 DUP5 DUP8 MLOAD PUSH2 0x16AA DUP2 PUSH2 0x1CB1 JUMP JUMPDEST PUSH1 0x1A DUP2 MSTORE ADD MSTORE DIV SWAP4 MLOAD SWAP2 PUSH2 0x16BD DUP4 PUSH2 0x1CB1 JUMP JUMPDEST PUSH1 0x1E DUP4 MSTORE DUP3 ADD MSTORE DUP4 DUP4 GT ISZERO PUSH2 0x1F34 JUMP JUMPDEST PUSH2 0x16E5 PUSH2 0x16DA DUP3 DUP5 PUSH2 0x1D2A JUMP JUMPDEST SWAP11 DUP11 ADD SWAP2 DUP3 SLOAD PUSH2 0x1EF7 JUMP JUMPDEST SWAP1 SSTORE SWAP2 SWAP3 POP POP DUP11 DUP15 PUSH2 0x144F JUMP JUMPDEST DUP4 MLOAD PUSH3 0x461BCD PUSH1 0xE5 SHL DUP2 MSTORE SWAP1 DUP2 ADD DUP6 SWAP1 MSTORE PUSH1 0x13 PUSH1 0x24 DUP3 ADD MSTORE PUSH19 0x135BDB9D185B9D081A5B9CDD59999A5CD85B9D PUSH1 0x6A SHL PUSH1 0x44 DUP3 ADD MSTORE PUSH1 0x64 SWAP1 REVERT JUMPDEST SWAP1 POP CALLVALUE PUSH2 0x29A JUMPI PUSH1 0x20 CALLDATASIZE PUSH1 0x3 NOT ADD SLT PUSH2 0x29A JUMPI DUP1 CALLDATALOAD SWAP1 PUSH2 0x1755 PUSH1 0x1 DUP1 PUSH1 0xA0 SHL SUB DUP6 SLOAD AND CALLER EQ PUSH2 0x1C4F JUMP JUMPDEST PUSH1 0x14 DUP3 GT PUSH2 0x1797 JUMPI POP SWAP1 PUSH32 0x72AA1EF4707DFA7DEFD1468E6FFC70BF9517CE19E3AFAD93FCF4BE42F2D494F5 SWAP2 PUSH1 0x7 SLOAD SWAP1 DUP1 PUSH1 0x7 SSTORE DUP3 MLOAD SWAP2 DUP3 MSTORE PUSH1 0x20 DUP3 ADD MSTORE LOG1 DUP1 RETURN JUMPDEST DUP3 MLOAD PUSH3 0x461BCD PUSH1 0xE5 SHL DUP2 MSTORE PUSH1 0x20 SWAP2 DUP2 ADD SWAP2 SWAP1 SWAP2 MSTORE PUSH1 0x11 PUSH1 0x24 DUP3 ADD MSTORE PUSH17 0x4665652074726F7020C3A96C6576C3A965 PUSH1 0x78 SHL PUSH1 0x44 DUP3 ADD MSTORE PUSH1 0x64 SWAP1 REVERT JUMPDEST SWAP2 SWAP1 POP CALLVALUE PUSH2 0x29A JUMPI PUSH1 0x20 CALLDATASIZE PUSH1 0x3 NOT ADD SLT PUSH2 0x29A JUMPI PUSH1 0xC0 SWAP3 POP PUSH2 0x17F3 DUP3 CALLDATALOAD PUSH2 0x1BEF JUMP JUMPDEST POP PUSH1 0x1 DUP1 PUSH1 0xA0 SHL SUB DUP2 SLOAD AND SWAP3 PUSH1 0x1 DUP3 ADD SLOAD SWAP3 PUSH1 0x2 DUP4 ADD SLOAD SWAP1 PUSH1 0xFF PUSH1 0x5 PUSH1 0x3 DUP7 ADD SLOAD SWAP5 DUP7 ADD SLOAD SWAP6 ADD SLOAD AND SWAP5 DUP2 MLOAD SWAP7 DUP8 MSTORE PUSH1 0x20 DUP8 ADD MSTORE DUP6 ADD MSTORE PUSH1 0x60 DUP5 ADD MSTORE PUSH1 0x80 DUP4 ADD MSTORE ISZERO ISZERO PUSH1 0xA0 DUP3 ADD MSTORE RETURN JUMPDEST POP POP CALLVALUE PUSH2 0x1C1 JUMPI DUP2 PUSH1 0x3 NOT CALLDATASIZE ADD SLT PUSH2 0x1C1 JUMPI PUSH1 0x20 SWAP1 PUSH1 0x5 SLOAD SWAP1 MLOAD SWAP1 DUP2 MSTORE RETURN JUMPDEST POP POP CALLVALUE PUSH2 0x1C1 JUMPI DUP2 PUSH1 0x3 NOT CALLDATASIZE ADD SLT PUSH2 0x1C1 JUMPI PUSH1 0x20 SWAP1 PUSH1 0x7 SLOAD SWAP1 MLOAD SWAP1 DUP2 MSTORE RETURN JUMPDEST SWAP2 SWAP1 POP CALLVALUE PUSH2 0x29A JUMPI PUSH1 0x20 CALLDATASIZE PUSH1 0x3 NOT ADD SLT PUSH2 0x29A JUMPI DUP2 CALLDATALOAD SWAP3 PUSH1 0x9 SLOAD DUP5 LT ISZERO PUSH2 0xDEE JUMPI POP PUSH2 0x17F3 PUSH1 0xC0 SWAP4 PUSH2 0x1BEF JUMP JUMPDEST POP POP CALLVALUE PUSH2 0x1C1 JUMPI DUP1 PUSH1 0x3 NOT CALLDATASIZE ADD SLT PUSH2 0x1C1 JUMPI PUSH2 0x18C2 PUSH2 0x1B90 JUMP JUMPDEST PUSH1 0x1 PUSH1 0x1 PUSH1 0xA0 SHL SUB AND DUP3 MSTORE PUSH1 0xD PUSH1 0x20 MSTORE DUP1 DUP3 KECCAK256 DUP1 SLOAD PUSH1 0x24 CALLDATALOAD SWAP4 SWAP1 DUP5 LT ISZERO PUSH2 0xDEE JUMPI POP PUSH1 0x20 SWAP3 PUSH2 0x18F0 SWAP2 PUSH2 0x1BC1 JUMP JUMPDEST SWAP2 SWAP1 SLOAD SWAP1 MLOAD SWAP2 PUSH1 0x3 SHL SHR DUP2 MSTORE RETURN JUMPDEST SWAP1 POP CALLVALUE PUSH2 0x29A JUMPI DUP3 PUSH1 0x3 NOT CALLDATASIZE ADD SLT PUSH2 0x29A JUMPI DUP3 DUP1 SWAP2 PUSH1 0x9 SLOAD SWAP3 JUMPDEST DUP4 DUP2 LT PUSH2 0x1929 JUMPI PUSH1 0x20 DUP7 DUP7 MLOAD SWAP1 DUP2 MSTORE RETURN JUMPDEST PUSH2 0x1932 DUP2 PUSH2 0x1BEF JUMP JUMPDEST POP DUP3 DUP2 ADD SLOAD SWAP1 DUP2 PUSH2 0x194E JUMPI JUMPDEST POP POP PUSH2 0x1949 SWAP1 PUSH2 0x1D37 JUMP JUMPDEST PUSH2 0x1918 JUMP JUMPDEST SLOAD DUP7 MLOAD PUSH4 0x240BC6B PUSH1 0xE2 SHL DUP2 MSTORE SWAP3 SWAP8 SWAP3 PUSH1 0x1 PUSH1 0x1 PUSH1 0xA0 SHL SUB SWAP1 SWAP2 AND SWAP2 SWAP1 PUSH1 0x60 SWAP1 DUP2 DUP2 DUP8 DUP2 DUP8 GAS STATICCALL SWAP2 DUP3 ISZERO PUSH2 0x1AA4 JUMPI DUP8 SWAP3 PUSH2 0x1A48 JUMPI JUMPDEST POP POP SWAP1 PUSH2 0x199B PUSH1 0x1 PUSH1 0x1 PUSH1 0x70 SHL SUB PUSH2 0x19A0 SWAP4 AND PUSH2 0x1FBB JUMP JUMPDEST PUSH2 0x205C JUMP JUMPDEST DUP7 MLOAD DUP1 SWAP3 PUSH4 0x18160DDD PUSH1 0xE0 SHL DUP3 MSTORE DUP2 DUP7 PUSH1 0x20 SWAP4 DUP5 SWAP4 GAS STATICCALL SWAP3 DUP4 ISZERO PUSH2 0x1A3E JUMPI DUP7 SWAP4 PUSH2 0x1A0D JUMPI JUMPDEST POP PUSH2 0x1A05 SWAP3 PUSH2 0x1949 SWAP5 SWAP3 PUSH2 0x1A00 PUSH2 0xD27 SWAP4 PUSH1 0x0 DUP1 MLOAD PUSH1 0x20 PUSH2 0x20B6 DUP4 CODECOPY DUP2 MLOAD SWAP2 MSTORE DUP13 MLOAD SWAP2 PUSH2 0x19F1 DUP4 PUSH2 0x1CB1 JUMP JUMPDEST PUSH1 0x1A DUP4 MSTORE DUP3 ADD MSTORE DUP4 ISZERO ISZERO PUSH2 0x1F34 JUMP JUMPDEST PUSH2 0x1F9B JUMP JUMPDEST SWAP6 SWAP1 CODESIZE PUSH2 0x193E JUMP JUMPDEST SWAP1 DUP1 SWAP4 POP DUP2 DUP2 RETURNDATASIZE DUP4 GT PUSH2 0x1A37 JUMPI JUMPDEST PUSH2 0x1A25 DUP2 DUP4 PUSH2 0x1CE3 JUMP JUMPDEST DUP2 ADD SUB SLT PUSH2 0x37C JUMPI MLOAD SWAP2 PUSH2 0xD27 PUSH2 0x19C5 JUMP JUMPDEST POP RETURNDATASIZE PUSH2 0x1A1B JUMP JUMPDEST DUP9 MLOAD RETURNDATASIZE DUP9 DUP3 RETURNDATACOPY RETURNDATASIZE SWAP1 REVERT JUMPDEST SWAP1 DUP1 SWAP3 POP DUP2 RETURNDATASIZE DUP4 GT PUSH2 0x1A9D JUMPI JUMPDEST PUSH2 0x1A5F DUP2 DUP4 PUSH2 0x1CE3 JUMP JUMPDEST DUP2 ADD SUB SLT PUSH2 0x37C JUMPI PUSH2 0x1A70 DUP2 PUSH2 0x1E8A JUMP JUMPDEST POP DUP8 PUSH2 0x1A7E PUSH1 0x20 DUP4 ADD PUSH2 0x1E8A JUMP JUMPDEST SWAP2 ADD MLOAD PUSH4 0xFFFFFFFF DUP2 AND SUB PUSH2 0x37C JUMPI PUSH2 0x199B PUSH1 0x1 PUSH1 0x1 PUSH1 0x70 SHL SUB PUSH2 0x1983 JUMP JUMPDEST POP RETURNDATASIZE PUSH2 0x1A55 JUMP JUMPDEST DUP10 MLOAD RETURNDATASIZE DUP10 DUP3 RETURNDATACOPY RETURNDATASIZE SWAP1 REVERT JUMPDEST POP POP CALLVALUE PUSH2 0x1C1 JUMPI DUP2 PUSH1 0x3 NOT CALLDATASIZE ADD SLT PUSH2 0x1C1 JUMPI PUSH1 0x20 SWAP1 PUSH1 0x9 SLOAD SWAP1 MLOAD SWAP1 DUP2 MSTORE RETURN JUMPDEST POP POP CALLVALUE PUSH2 0x1C1 JUMPI DUP2 PUSH1 0x3 NOT CALLDATASIZE ADD SLT PUSH2 0x1C1 JUMPI PUSH1 0x20 SWAP1 PUSH1 0x6 SLOAD SWAP1 MLOAD SWAP1 DUP2 MSTORE RETURN JUMPDEST SWAP2 SWAP1 POP CALLVALUE PUSH2 0x29A JUMPI PUSH1 0x20 CALLDATASIZE PUSH1 0x3 NOT ADD SLT PUSH2 0x29A JUMPI PUSH32 0xC390A98ACE15A7BB6BAB611EEDFDBB2685043B241A869420043CDFB23CCFEE50 SWAP2 CALLDATALOAD PUSH2 0x1B37 PUSH1 0x1 DUP1 PUSH1 0xA0 SHL SUB DUP6 SLOAD AND CALLER EQ PUSH2 0x1C4F JUMP JUMPDEST PUSH2 0x1B3F PUSH2 0x1D46 JUMP JUMPDEST PUSH1 0x3 SLOAD SWAP1 DUP1 PUSH1 0x3 SSTORE DUP3 MLOAD SWAP2 DUP3 MSTORE PUSH1 0x20 DUP3 ADD MSTORE LOG1 DUP1 RETURN JUMPDEST DUP5 SWAP1 DUP5 CALLVALUE PUSH2 0x29A JUMPI PUSH1 0x20 CALLDATASIZE PUSH1 0x3 NOT ADD SLT PUSH2 0x29A JUMPI PUSH1 0x20 SWAP3 PUSH1 0xFF SWAP2 SWAP1 PUSH1 0x1 PUSH1 0x1 PUSH1 0xA0 SHL SUB PUSH2 0x1B80 PUSH2 0x1B90 JUMP JUMPDEST AND DUP2 MSTORE PUSH1 0xE DUP6 MSTORE KECCAK256 SLOAD AND ISZERO ISZERO DUP2 MSTORE RETURN JUMPDEST PUSH1 0x4 CALLDATALOAD SWAP1 PUSH1 0x1 PUSH1 0x1 PUSH1 0xA0 SHL SUB DUP3 AND DUP3 SUB PUSH2 0x1BA6 JUMPI JUMP JUMPDEST PUSH1 0x0 DUP1 REVERT JUMPDEST PUSH1 0x24 CALLDATALOAD SWAP1 PUSH1 0x1 PUSH1 0x1 PUSH1 0xA0 SHL SUB DUP3 AND DUP3 SUB PUSH2 0x1BA6 JUMPI JUMP JUMPDEST DUP1 SLOAD DUP3 LT ISZERO PUSH2 0x1BD9 JUMPI PUSH1 0x0 MSTORE PUSH1 0x20 PUSH1 0x0 KECCAK256 ADD SWAP1 PUSH1 0x0 SWAP1 JUMP JUMPDEST PUSH4 0x4E487B71 PUSH1 0xE0 SHL PUSH1 0x0 MSTORE PUSH1 0x32 PUSH1 0x4 MSTORE PUSH1 0x24 PUSH1 0x0 REVERT JUMPDEST PUSH1 0x9 SLOAD DUP2 LT ISZERO PUSH2 0x1BD9 JUMPI PUSH1 0x6 SWAP1 PUSH1 0x9 PUSH1 0x0 MSTORE MUL PUSH32 0x6E1540171B6C0C960B71A7020D9F60077F6AF931A8BBF590DA0223DACF75C7AF ADD SWAP1 PUSH1 0x0 SWAP1 JUMP JUMPDEST PUSH1 0x40 SWAP1 PUSH1 0x3 NOT ADD SLT PUSH2 0x1BA6 JUMPI PUSH1 0x4 CALLDATALOAD SWAP1 PUSH1 0x24 CALLDATALOAD SWAP1 JUMP JUMPDEST PUSH1 0x44 CALLDATALOAD SWAP1 DUP2 ISZERO ISZERO DUP3 SUB PUSH2 0x1BA6 JUMPI JUMP JUMPDEST ISZERO PUSH2 0x1C56 JUMPI JUMP JUMPDEST PUSH1 0x40 MLOAD PUSH3 0x461BCD PUSH1 0xE5 SHL DUP2 MSTORE PUSH1 0x20 PUSH1 0x4 DUP3 ADD MSTORE PUSH1 0x2D PUSH1 0x24 DUP3 ADD MSTORE PUSH32 0x4F776E61626C653A206C5F617070656C616E74206E5F65737420706173206C65 PUSH1 0x44 DUP3 ADD MSTORE PUSH13 0x2070726F707269657461697265 PUSH1 0x98 SHL PUSH1 0x64 DUP3 ADD MSTORE PUSH1 0x84 SWAP1 REVERT JUMPDEST PUSH1 0x40 DUP2 ADD SWAP1 DUP2 LT PUSH8 0xFFFFFFFFFFFFFFFF DUP3 GT OR PUSH2 0x1CCD JUMPI PUSH1 0x40 MSTORE JUMP JUMPDEST PUSH4 0x4E487B71 PUSH1 0xE0 SHL PUSH1 0x0 MSTORE PUSH1 0x41 PUSH1 0x4 MSTORE PUSH1 0x24 PUSH1 0x0 REVERT JUMPDEST SWAP1 PUSH1 0x1F DUP1 NOT SWAP2 ADD AND DUP2 ADD SWAP1 DUP2 LT PUSH8 0xFFFFFFFFFFFFFFFF DUP3 GT OR PUSH2 0x1CCD JUMPI PUSH1 0x40 MSTORE JUMP JUMPDEST PUSH1 0x0 NOT DUP2 ADD SWAP2 SWAP1 DUP3 GT PUSH2 0x1D14 JUMPI JUMP JUMPDEST PUSH4 0x4E487B71 PUSH1 0xE0 SHL PUSH1 0x0 MSTORE PUSH1 0x11 PUSH1 0x4 MSTORE PUSH1 0x24 PUSH1 0x0 REVERT JUMPDEST SWAP2 SWAP1 DUP3 SUB SWAP2 DUP3 GT PUSH2 0x1D14 JUMPI JUMP JUMPDEST PUSH1 0x0 NOT DUP2 EQ PUSH2 0x1D14 JUMPI PUSH1 0x1 ADD SWAP1 JUMP JUMPDEST PUSH1 0x9 SLOAD PUSH1 0x0 JUMPDEST DUP2 DUP2 LT PUSH2 0x1D57 JUMPI POP POP JUMP JUMPDEST DUP1 PUSH2 0x1D64 PUSH2 0x1D69 SWAP3 PUSH2 0x1D6E JUMP JUMPDEST PUSH2 0x1D37 JUMP JUMPDEST PUSH2 0x1D4C JUMP JUMPDEST PUSH2 0x1D77 SWAP1 PUSH2 0x1BEF JUMP JUMPDEST POP PUSH1 0x2 DUP2 ADD SWAP1 DUP2 SLOAD NUMBER GT ISZERO PUSH2 0x1DD8 JUMPI PUSH1 0x4 DUP2 ADD SLOAD SWAP1 DUP2 ISZERO PUSH2 0x1DD1 JUMPI PUSH2 0x1DCA SWAP1 PUSH2 0xD27 PUSH1 0x3 PUSH2 0x1DB7 PUSH2 0xD10 PUSH2 0xD05 PUSH2 0x1DAF DUP10 SLOAD NUMBER PUSH2 0x1EF7 JUMP JUMPDEST DUP5 SLOAD SWAP1 PUSH2 0x205C JUMP JUMPDEST SWAP3 ADD SWAP4 PUSH2 0x1DC5 DUP6 SLOAD SWAP4 PUSH2 0x2039 JUMP JUMPDEST PUSH2 0x2081 JUMP JUMPDEST SWAP1 SSTORE NUMBER SWAP1 SSTORE JUMP JUMPDEST POP POP NUMBER SWAP1 SSTORE JUMP JUMPDEST POP POP JUMP JUMPDEST ISZERO PUSH2 0x1DE3 JUMPI JUMP JUMPDEST PUSH1 0x40 MLOAD PUSH3 0x461BCD PUSH1 0xE5 SHL DUP2 MSTORE PUSH1 0x20 PUSH1 0x4 DUP3 ADD MSTORE PUSH1 0x24 DUP1 DUP3 ADD MSTORE PUSH32 0x5265656E7472616E637947756172643A207265656E7472616E63652064657465 PUSH1 0x44 DUP3 ADD MSTORE PUSH4 0x63746565 PUSH1 0xE0 SHL PUSH1 0x64 DUP3 ADD MSTORE PUSH1 0x84 SWAP1 REVERT JUMPDEST ISZERO PUSH2 0x1E3B JUMPI JUMP JUMPDEST PUSH1 0x40 MLOAD PUSH3 0x461BCD PUSH1 0xE5 SHL DUP2 MSTORE PUSH1 0x20 PUSH1 0x4 DUP3 ADD MSTORE PUSH1 0xF PUSH1 0x24 DUP3 ADD MSTORE PUSH15 0x141BDBDB081A5B995E1A5CDD185B9D PUSH1 0x8A SHL PUSH1 0x44 DUP3 ADD MSTORE PUSH1 0x64 SWAP1 REVERT JUMPDEST SWAP1 DUP2 PUSH1 0x20 SWAP2 SUB SLT PUSH2 0x1BA6 JUMPI MLOAD DUP1 ISZERO ISZERO DUP2 SUB PUSH2 0x1BA6 JUMPI SWAP1 JUMP JUMPDEST MLOAD SWAP1 PUSH1 0x1 PUSH1 0x1 PUSH1 0x70 SHL SUB DUP3 AND DUP3 SUB PUSH2 0x1BA6 JUMPI JUMP JUMPDEST SWAP1 DUP2 ADD SWAP1 DUP2 DUP2 GT PUSH2 0x1D14 JUMPI DUP2 LT PUSH2 0x1EB2 JUMPI SWAP1 JUMP JUMPDEST PUSH1 0x40 MLOAD PUSH3 0x461BCD PUSH1 0xE5 SHL DUP2 MSTORE PUSH1 0x20 PUSH1 0x4 DUP3 ADD MSTORE PUSH1 0x1B PUSH1 0x24 DUP3 ADD MSTORE PUSH32 0x536166654D6174683A206164646974696F6E206F766572666C6F770000000000 PUSH1 0x44 DUP3 ADD MSTORE PUSH1 0x64 SWAP1 REVERT JUMPDEST SWAP1 PUSH2 0x1F31 SWAP2 PUSH2 0x1F2C PUSH1 0x40 MLOAD PUSH2 0x1F0B DUP2 PUSH2 0x1CB1 JUMP JUMPDEST PUSH1 0x1E DUP2 MSTORE PUSH1 0x0 DUP1 MLOAD PUSH1 0x20 PUSH2 0x20D6 DUP4 CODECOPY DUP2 MLOAD SWAP2 MSTORE PUSH1 0x20 DUP3 ADD MSTORE DUP3 DUP5 GT ISZERO PUSH2 0x1F34 JUMP JUMPDEST PUSH2 0x1D2A JUMP JUMPDEST SWAP1 JUMP JUMPDEST ISZERO PUSH2 0x1F3C JUMPI POP JUMP JUMPDEST PUSH1 0x40 MLOAD SWAP1 PUSH3 0x461BCD PUSH1 0xE5 SHL DUP3 MSTORE DUP2 PUSH1 0x20 DUP1 PUSH1 0x4 DUP4 ADD MSTORE DUP3 MLOAD SWAP1 DUP2 PUSH1 0x24 DUP5 ADD MSTORE PUSH1 0x0 SWAP4 JUMPDEST DUP3 DUP6 LT PUSH2 0x1F82 JUMPI POP POP PUSH1 0x44 SWAP3 POP PUSH1 0x0 DUP4 DUP3 DUP5 ADD ADD MSTORE PUSH1 0x1F DUP1 NOT SWAP2 ADD AND DUP2 ADD SUB ADD SWAP1 REVERT JUMPDEST DUP5 DUP2 ADD DUP3 ADD MLOAD DUP7 DUP7 ADD PUSH1 0x44 ADD MSTORE SWAP4 DUP2 ADD SWAP4 DUP6 SWAP4 POP PUSH2 0x1F5F JUMP JUMPDEST DUP2 ISZERO PUSH2 0x1FA5 JUMPI DIV SWAP1 JUMP JUMPDEST PUSH4 0x4E487B71 PUSH1 0xE0 SHL PUSH1 0x0 MSTORE PUSH1 0x12 PUSH1 0x4 MSTORE PUSH1 0x24 PUSH1 0x0 REVERT JUMPDEST DUP1 ISZERO PUSH2 0x2033 JUMPI DUP1 PUSH1 0x1 SHL SWAP1 DUP1 DUP3 DIV PUSH1 0x2 SUB PUSH2 0x1D14 JUMPI PUSH2 0x1FDC PUSH1 0x2 SWAP2 DUP4 PUSH2 0x1F9B JUMP JUMPDEST SUB PUSH2 0x1FE4 JUMPI SWAP1 JUMP JUMPDEST PUSH1 0x40 MLOAD PUSH3 0x461BCD PUSH1 0xE5 SHL DUP2 MSTORE PUSH1 0x20 PUSH1 0x4 DUP3 ADD MSTORE PUSH1 0x21 PUSH1 0x24 DUP3 ADD MSTORE PUSH32 0x536166654D6174683A206D756C7469706C69636174696F6E206F766572666C6F PUSH1 0x44 DUP3 ADD MSTORE PUSH1 0x77 PUSH1 0xF8 SHL PUSH1 0x64 DUP3 ADD MSTORE PUSH1 0x84 SWAP1 REVERT JUMPDEST POP PUSH1 0x0 SWAP1 JUMP JUMPDEST DUP1 ISZERO PUSH2 0x2033 JUMPI PUSH5 0xE8D4A51000 DUP1 DUP3 MUL SWAP2 DUP1 DUP4 DIV DUP3 SUB PUSH2 0x1D14 JUMPI PUSH2 0x1FDC SWAP1 DUP4 PUSH2 0x1F9B JUMP JUMPDEST SWAP1 DUP2 ISZERO PUSH2 0x207A JUMPI DUP1 DUP3 MUL SWAP2 DUP1 DUP4 DIV DUP3 SUB PUSH2 0x1D14 JUMPI PUSH2 0x1FDC SWAP1 DUP4 PUSH2 0x1F9B JUMP JUMPDEST POP POP PUSH1 0x0 SWAP1 JUMP JUMPDEST SWAP1 PUSH2 0x1F31 SWAP2 PUSH2 0x1A00 PUSH1 0x40 MLOAD PUSH2 0x2095 DUP2 PUSH2 0x1CB1 JUMP JUMPDEST PUSH1 0x1A DUP2 MSTORE PUSH1 0x0 DUP1 MLOAD PUSH1 0x20 PUSH2 0x20B6 DUP4 CODECOPY DUP2 MLOAD SWAP2 MSTORE PUSH1 0x20 DUP3 ADD MSTORE DUP4 ISZERO ISZERO PUSH2 0x1F34 JUMP INVALID MSTORE8 PUSH2 0x6665 0x4D PUSH2 0x7468 GASPRICE KECCAK256 PUSH5 0x6976697369 PUSH16 0x6E206279207A65726F00000000000053 PUSH2 0x6665 0x4D PUSH2 0x7468 GASPRICE KECCAK256 PUSH20 0x75627472616374696F6E206F766572666C6F7700 STOP LOG2 PUSH5 0x6970667358 0x22 SLT KECCAK256 0xCC LT DUP14 0xF7 0xBF 0xBC SGT 0xCC POP 0x2E PUSH4 0xD90B7D6A MSTORE8 PUSH15 0x4B69F6DD19094F753FB2F58E1707EB PUSH5 0x736F6C6343 STOP ADDMOD EQ STOP CALLER "},"methodIdentifiers":{"addPool(uint256,address,bool)":"7abceffd","claimReward(uint256)":"ae169a50","deposit(uint256,uint256)":"e2bbb158","earlyWithdrawalFee()":"16330d40","emergencyWithdraw(uint256)":"5312ea8e","getPoolInfo(uint256)":"2f380b35","getTotalValueLockedUSD()":"0cf1f18b","getUserInfo(uint256,address)":"1069f3b5","getUserPools(address)":"9816af58","isUserStaking(address)":"00ff815b","massUpdatePools()":"630b5ba1","minStakingPeriod()":"069c34f6","owner()":"8da5cb5b","pancakeRouter()":"c21ebd07","pendingReward(uint256,address)":"98969e82","poolInfo(uint256)":"1526fe27","poolLength()":"081e3eda","recoverToken(address)":"9be65a60","renounceOwnership()":"715018a6","rewardPerBlock()":"8ae39cac","rewardToken()":"f7c618c1","startBlock()":"48cd4cb1","totalAllocPoint()":"17caf6f1","totalUsersStaking()":"90970510","totalValueLocked()":"ec18154e","transferOwnership(address)":"f2fde38b","updateEarlyWithdrawalFee(uint256)":"3632e6c6","updateMinStakingPeriod(uint256)":"993e013c","updatePool(uint256,uint256,bool,bool)":"ef433697","updatePoolRewards(uint256)":"adb82b31","updateRewardPerBlock(uint256)":"01f8a976","userInfo(uint256,address)":"93f1a40b","userPools(address,uint256)":"1064aa55","withdraw(uint256,uint256)":"441a3e70"}}}}}