{"contracts/StakingManager.sol":{"StakingManager":{"abi":[{"inputs":[],"stateMutability":"nonpayable","type":"constructor"},{"anonymous":false,"inputs":[{"indexed":false,"internalType":"uint256","name":"tvl","type":"uint256"},{"indexed":false,"internalType":"uint256","name":"users","type":"uint256"},{"indexed":false,"internalType":"uint256","name":"pools","type":"uint256"}],"name":"GlobalStatsUpdated","type":"event"},{"anonymous":false,"inputs":[{"indexed":true,"internalType":"address","name":"previousOwner","type":"address"},{"indexed":true,"internalType":"address","name":"newOwner","type":"address"}],"name":"OwnershipTransferred","type":"event"},{"anonymous":false,"inputs":[{"indexed":true,"internalType":"address","name":"stakingContract","type":"address"},{"indexed":false,"internalType":"string","name":"name","type":"string"}],"name":"StakingInstanceAdded","type":"event"},{"anonymous":false,"inputs":[{"indexed":true,"internalType":"address","name":"stakingContract","type":"address"},{"indexed":false,"internalType":"bool","name":"isActive","type":"bool"}],"name":"StakingInstanceUpdated","type":"event"},{"inputs":[{"internalType":"contract StakingPancakeSwap","name":"_stakingContract","type":"address"},{"internalType":"string","name":"_name","type":"string"}],"name":"addStakingInstance","outputs":[],"stateMutability":"nonpayable","type":"function"},{"inputs":[],"name":"getGlobalStatsSummary","outputs":[{"internalType":"uint256","name":"totalStakingInstances","type":"uint256"},{"internalType":"uint256","name":"activeInstances","type":"uint256"},{"internalType":"uint256","name":"tvl","type":"uint256"},{"internalType":"uint256","name":"users","type":"uint256"},{"internalType":"uint256","name":"pools","type":"uint256"}],"stateMutability":"view","type":"function"},{"inputs":[{"internalType":"address","name":"_stakingContract","type":"address"},{"internalType":"uint256","name":"_pid","type":"uint256"},{"internalType":"address","name":"_user","type":"address"}],"name":"getPendingRewards","outputs":[{"internalType":"uint256","name":"","type":"uint256"}],"stateMutability":"view","type":"function"},{"inputs":[{"internalType":"address","name":"_lpToken","type":"address"}],"name":"getPoolsForLpToken","outputs":[{"internalType":"address[]","name":"","type":"address[]"}],"stateMutability":"view","type":"function"},{"inputs":[],"name":"getStakingInstanceCount","outputs":[{"internalType":"uint256","name":"","type":"uint256"}],"stateMutability":"view","type":"function"},{"inputs":[{"internalType":"uint256","name":"_index","type":"uint256"}],"name":"getStakingInstanceDetails","outputs":[{"internalType":"address","name":"contractAddress","type":"address"},{"internalType":"string","name":"name","type":"string"},{"internalType":"bool","name":"isActive","type":"bool"},{"internalType":"uint256","name":"createdAt","type":"uint256"},{"internalType":"uint256","name":"tvl","type":"uint256"},{"internalType":"uint256","name":"users","type":"uint256"},{"internalType":"uint256","name":"poolCount","type":"uint256"}],"stateMutability":"view","type":"function"},{"inputs":[{"internalType":"address","name":"","type":"address"}],"name":"isRegisteredContract","outputs":[{"internalType":"bool","name":"","type":"bool"}],"stateMutability":"view","type":"function"},{"inputs":[{"internalType":"address","name":"_stakingContract","type":"address"},{"internalType":"address","name":"_user","type":"address"}],"name":"isUserStaking","outputs":[{"internalType":"bool","name":"","type":"bool"}],"stateMutability":"view","type":"function"},{"inputs":[],"name":"owner","outputs":[{"internalType":"address","name":"","type":"address"}],"stateMutability":"view","type":"function"},{"inputs":[{"internalType":"address","name":"","type":"address"},{"internalType":"uint256","name":"","type":"uint256"}],"name":"poolsByLpToken","outputs":[{"internalType":"address","name":"","type":"address"}],"stateMutability":"view","type":"function"},{"inputs":[{"internalType":"address","name":"_stakingContract","type":"address"},{"internalType":"address","name":"_lpToken","type":"address"}],"name":"registerPoolByLpToken","outputs":[],"stateMutability":"nonpayable","type":"function"},{"inputs":[],"name":"renounceOwnership","outputs":[],"stateMutability":"nonpayable","type":"function"},{"inputs":[{"internalType":"uint256","name":"","type":"uint256"}],"name":"stakingInstances","outputs":[{"internalType":"contract StakingPancakeSwap","name":"stakingContract","type":"address"},{"internalType":"string","name":"name","type":"string"},{"internalType":"bool","name":"isActive","type":"bool"},{"internalType":"uint256","name":"createdAt","type":"uint256"}],"stateMutability":"view","type":"function"},{"inputs":[],"name":"totalPools","outputs":[{"internalType":"uint256","name":"","type":"uint256"}],"stateMutability":"view","type":"function"},{"inputs":[],"name":"totalUsers","outputs":[{"internalType":"uint256","name":"","type":"uint256"}],"stateMutability":"view","type":"function"},{"inputs":[],"name":"totalValueLockedUSD","outputs":[{"internalType":"uint256","name":"","type":"uint256"}],"stateMutability":"view","type":"function"},{"inputs":[{"internalType":"address","name":"newOwner","type":"address"}],"name":"transferOwnership","outputs":[],"stateMutability":"nonpayable","type":"function"},{"inputs":[],"name":"updateGlobalStats","outputs":[],"stateMutability":"nonpayable","type":"function"},{"inputs":[{"internalType":"uint256","name":"_index","type":"uint256"},{"internalType":"bool","name":"_isActive","type":"bool"}],"name":"updateStakingInstance","outputs":[],"stateMutability":"nonpayable","type":"function"}],"evm":{"bytecode":{"linkReferences":{},"object":"6080806040523461005b5760008054336001600160a01b0319821681178355916001600160a01b03909116907f8be0079c531659141344cd1fd0a4f28419497f9722a3daafe3b4186f6b6457e09080a361125790816100618239f35b600080fdfe6040608081526004908136101561001557600080fd5b600091823560e01c80626aa5c714610e505780631aea47f014610e31578063222cd11c14610d6b5780634172105a14610d4e57806349b1fd7b14610bbf57806369cae55014610b42578063715018a614610ae45780638d5648741461093a5780638da5cb5b14610912578063ab3c7e52146108f3578063b57de2d314610875578063bff1f9e114610856578063cc2583b9146107b9578063cf76bdd014610409578063e1d347c11461035f578063e61d3a5414610266578063e6b1ca211461020a578063f1052af5146101c85763f2fde38b146100f157600080fd5b346101c45760203660031901126101c45761010a610f13565b83546001600160a01b03808216939192610125338614611104565b169384156101645750506001600160a01b031916821783557f8be0079c531659141344cd1fd0a4f28419497f9722a3daafe3b4186f6b6457e08380a380f35b5162461bcd60e51b8152602091810191909152603260248201527f4f776e61626c653a206e6f75766561752070726f707269c3a9746169726520656044820152717374206c2761647265737365207ac3a9726f60701b6064820152608490fd5b8280fd5b5050346102065760203660031901126102065760209160ff9082906001600160a01b036101f3610f13565b1681526002855220541690519015158152f35b5080fd5b505034610206578060031936011261020657610224610f13565b6001600160a01b0390811683526003602052818320805460243594908510156102635750602093610254916110ec565b90549060031b1c169051908152f35b80fd5b50919034610206578060031936011261020657610281610f13565b9061028a610f2e565b6001600160a01b03928316808552600260205282852054909291906102b19060ff166111a3565b8233148015610353575b15610320578316845260036020528320805490600160401b82101561030d57906102ea916001820181556110ec565b909283549160031b92831b921b19161790556103076006546111ef565b60065580f35b634e487b7160e01b855260418652602485fd5b815162461bcd60e51b8152602081880152600d60248201526c4e6f6e206175746f726973c3a960981b6044820152606490fd5b508385541633146102bb565b505034610206576020806003193601126101c4576001600160a01b039283610385610f13565b1681526003825282812091835190818185549182815201908195855282852090855b8181106103f357505050826103bd910383610fce565b8451948186019282875251809352850193925b8281106103dd5785850386f35b83518716855293810193928101926001016103d0565b82548a16845292840192600192830192016103a7565b50346101c457816003193601126101c4576001600160a01b03813581811693908490036107b557602480359267ffffffffffffffff908185116107b157366023860112156107b157848601359582871161079f5784519689602097601f19926104798a85601f840116018c610fce565b808b52368882840101116101c45780888b9301838d01378a0101526104a2838b54163314611104565b881561075d57888a526002875260ff868b20541661071b578551936080850185811082821117610709578752898552878501918983528786019360019788865260608801964288528954600160401b8110156106f657808b61050692018c55610f44565b9990996106e45751166bffffffffffffffffffffffff60a01b89541617885588880194519182519485116106d35750508c8a6105428654610f94565b91601f831161068b575b915050508c8a92601f85116001146105fd575093836105ec9997946105c5947f31a6301c96f9b13ba8bd25faf22b1c31f44418e3bbc0c77fbf6b27c581360fba9e9d9c9a9894600398926105f2575b505060001982881b1c191690881b1790555b511515600285019060ff801983541691151516179055565b51910155868852600284528188209060ff19825416179055519282849384528301906110ac565b0390a280f35b01519050388061059b565b8493929193168584528b8420935b818110610676575098846105c5947f31a6301c96f9b13ba8bd25faf22b1c31f44418e3bbc0c77fbf6b27c581360fba9e9d9c9a989460039894849b986105ec9e1061065e575b505050811b0190556105ad565b0151600019838a1b60f8161c19169055388080610651565b828401518555938a0193928c01928c0161060b565b86815220601f850160051c8101918c86106106c9575b601f0160051c019089908f5b8382106106be5790508c915061054c565b81550189908f6106ad565b90915081906106a1565b634e487b7160e01b8f52604190528dfd5b5050634e487b7160e01b8e528d82528dfd5b5050634e487b7160e01b8e52604182528dfd5b634e487b7160e01b8c5260418452868cfd5b855162461bcd60e51b81528083018890526017818701527f436f6e747261742064656a6120656e72656769737472650000000000000000006044820152606490fd5b855162461bcd60e51b8152808301889052601b818701527f4164726573736520646520636f6e7472617420696e76616c69646500000000006044820152606490fd5b634e487b7160e01b8952604190528288fd5b8780fd5b8480fd5b50346101c457816003193601126101c45735602435908115158083036107b5577fa91ab5b8a26b614d5159c9b2061cb48bd031a68a8530311cf50410f99b2c11b19261084a60209361084560018060a01b039361081a858b54163314611104565b6108276001548410611166565b600261083284610f44565b50019060ff801983541691151516179055565b610f44565b5054169351908152a280f35b5050346102065781600319360112610206576020906005549051908152f35b50913461026357806003193601126102635760015491815b8381106108ba575060a0935460055491600654938151958652602086015284015260608301526080820152f35b60ff60026108c783610f44565b500154166108de575b6108d9906111ef565b61088d565b916108eb6108d9916111ef565b9290506108d0565b5050346102065781600319360112610206576020906006549051908152f35b505034610206578160031936011261020657905490516001600160a01b039091168152602090f35b5090346101c457602092836003193601126102635761096183356108456001548210611166565b509260018060a01b038454169360ff6002820154169360038201549080519263760c0aa760e11b8452888486818b5afa938415610ada578694610aa7575b508151630909705160e41b815294898682818c5afa958615610a9d578796610a6a575b50898351809263040f1f6d60e11b8252818c5afa968715610a5f578097610a2a575b50506109f56001610a0b9201611006565b60e083519a8b9a8b528a015260e08901906110ac565b951515908701526060860152608085015260a084015260c08301520390f35b909196508982813d8311610a58575b610a438183610fce565b81010312610263575051946109f560016109e4565b503d610a39565b8351903d90823e3d90fd5b9095508981813d8311610a96575b610a828183610fce565b81010312610a92575194386109c2565b8680fd5b503d610a78565b83513d89823e3d90fd5b9093508881813d8311610ad3575b610abf8183610fce565b81010312610acf5751923861099f565b8580fd5b503d610ab5565b82513d88823e3d90fd5b8334610263578060031936011261026357805481906001600160a01b03811690610b0f338314611104565b6001600160a01b03191682557f8be0079c531659141344cd1fd0a4f28419497f9722a3daafe3b4186f6b6457e08280a380f35b508290346102065760203660031901126102065735906001548210156102635750610b6c90610f44565b5080546001600160a01b031690610b8560018201611006565b92600360ff60028401541692015490610baf815195869586526080602087015260808601906110ac565b9215159084015260608301520390f35b509190346102065781600319360112610206578190829383600154905b818110610c2657857f96f06edce356a6f04cc55aeea56c38fcad8c40121241354d668655db1bae953c6060878a88828955816005556006549181519384526020840152820152a180f35b60ff6002610c3383610f44565b50015416610c4a575b610c45906111ef565b610bdc565b95610c5487610f44565b5054845163760c0aa760e11b81526001600160a01b039091169560209190828287818b5afa918215610d445791839187938b92610d09575b5090610c9791611214565b97875192838092630909705160e41b82525afa918215610cff578892610ccf575b5050610cc790610c4592611214565b969050610c3c565b90809250813d8311610cf8575b610ce68183610fce565b81010312610a92575181610cc7610cb8565b503d610cdc565b86513d8a823e3d90fd5b92839194508092503d8311610d3d575b610d238183610fce565b81010312610d3957610c97869284925191610c8c565b8880fd5b503d610d19565b87513d8b823e3d90fd5b50346101c457826003193601126101c45760209250549051908152f35b5091903461020657606036600319011261020657610d87610f13565b926044356001600160a01b0381811692918390036107b5576044951691828552602095869260028452610dbf60ff87892054166111a3565b85519485938492634c4b4f4160e11b84526024359084015260248301525afa928315610e26578093610df4575b505051908152f35b909192508382813d8311610e1f575b610e0d8183610fce565b81010312610263575051903880610dec565b503d610e03565b8251903d90823e3d90fd5b5050346102065781600319360112610206576020906001549051908152f35b5090346101c457806003193601126101c457610e6a610f13565b92610e73610f2e565b9360018060a01b03809116908183526024602096879360028552610e9c60ff88882054166111a3565b8651978894859362ff815b60e01b855216908301525afa928315610f07578193610ecb575b5050519015158152f35b909192508381813d8311610f00575b610ee48183610fce565b8101031261020657519081151582036102635750903880610ec1565b503d610eda565b509051903d90823e3d90fd5b600435906001600160a01b0382168203610f2957565b600080fd5b602435906001600160a01b0382168203610f2957565b600154811015610f7e57600160005260021b7fb10e2d527612073b26eecdfd717e6a320cf44b4afac2b0732d9fcbe2b7fa0cf60190600090565b634e487b7160e01b600052603260045260246000fd5b90600182811c92168015610fc4575b6020831014610fae57565b634e487b7160e01b600052602260045260246000fd5b91607f1691610fa3565b90601f8019910116810190811067ffffffffffffffff821117610ff057604052565b634e487b7160e01b600052604160045260246000fd5b906040519182600082549261101a84610f94565b9081845260019485811690816000146110895750600114611046575b505061104492500383610fce565b565b9093915060005260209081600020936000915b81831061107157505061104493508201013880611036565b85548884018501529485019487945091830191611059565b91505061104494506020925060ff191682840152151560051b8201013880611036565b919082519283825260005b8481106110d8575050826000602080949584010152601f8019910116010190565b6020818301810151848301820152016110b7565b8054821015610f7e5760005260206000200190600090565b1561110b57565b60405162461bcd60e51b815260206004820152602d60248201527f4f776e61626c653a206c5f617070656c616e74206e5f65737420706173206c6560448201526c2070726f70726965746169726560981b6064820152608490fd5b1561116d57565b60405162461bcd60e51b815260206004820152600e60248201526d496e64657820696e76616c69646560901b6044820152606490fd5b156111aa57565b60405162461bcd60e51b815260206004820152601760248201527f436f6e74726174206e6f6e20656e72656769737472c3a90000000000000000006044820152606490fd5b60001981146111fe5760010190565b634e487b7160e01b600052601160045260246000fd5b919082018092116111fe5756fea26469706673582212201adbf9c0c2a60f85c7fbe77c63c53ecf2dce50df8fac11ca7a2a86411e035bbe64736f6c63430008140033","opcodes":"PUSH1 0x80 DUP1 PUSH1 0x40 MSTORE CALLVALUE PUSH2 0x5B JUMPI PUSH1 0x0 DUP1 SLOAD CALLER PUSH1 0x1 PUSH1 0x1 PUSH1 0xA0 SHL SUB NOT DUP3 AND DUP2 OR DUP4 SSTORE SWAP2 PUSH1 0x1 PUSH1 0x1 PUSH1 0xA0 SHL SUB SWAP1 SWAP2 AND SWAP1 PUSH32 0x8BE0079C531659141344CD1FD0A4F28419497F9722A3DAAFE3B4186F6B6457E0 SWAP1 DUP1 LOG3 PUSH2 0x1257 SWAP1 DUP2 PUSH2 0x61 DUP3 CODECOPY RETURN JUMPDEST PUSH1 0x0 DUP1 REVERT INVALID PUSH1 0x40 PUSH1 0x80 DUP2 MSTORE PUSH1 0x4 SWAP1 DUP2 CALLDATASIZE LT ISZERO PUSH2 0x15 JUMPI PUSH1 0x0 DUP1 REVERT JUMPDEST PUSH1 0x0 SWAP2 DUP3 CALLDATALOAD PUSH1 0xE0 SHR DUP1 PUSH3 0x6AA5C7 EQ PUSH2 0xE50 JUMPI DUP1 PUSH4 0x1AEA47F0 EQ PUSH2 0xE31 JUMPI DUP1 PUSH4 0x222CD11C EQ PUSH2 0xD6B JUMPI DUP1 PUSH4 0x4172105A EQ PUSH2 0xD4E JUMPI DUP1 PUSH4 0x49B1FD7B EQ PUSH2 0xBBF JUMPI DUP1 PUSH4 0x69CAE550 EQ PUSH2 0xB42 JUMPI DUP1 PUSH4 0x715018A6 EQ PUSH2 0xAE4 JUMPI DUP1 PUSH4 0x8D564874 EQ PUSH2 0x93A JUMPI DUP1 PUSH4 0x8DA5CB5B EQ PUSH2 0x912 JUMPI DUP1 PUSH4 0xAB3C7E52 EQ PUSH2 0x8F3 JUMPI DUP1 PUSH4 0xB57DE2D3 EQ PUSH2 0x875 JUMPI DUP1 PUSH4 0xBFF1F9E1 EQ PUSH2 0x856 JUMPI DUP1 PUSH4 0xCC2583B9 EQ PUSH2 0x7B9 JUMPI DUP1 PUSH4 0xCF76BDD0 EQ PUSH2 0x409 JUMPI DUP1 PUSH4 0xE1D347C1 EQ PUSH2 0x35F JUMPI DUP1 PUSH4 0xE61D3A54 EQ PUSH2 0x266 JUMPI DUP1 PUSH4 0xE6B1CA21 EQ PUSH2 0x20A JUMPI DUP1 PUSH4 0xF1052AF5 EQ PUSH2 0x1C8 JUMPI PUSH4 0xF2FDE38B EQ PUSH2 0xF1 JUMPI PUSH1 0x0 DUP1 REVERT JUMPDEST CALLVALUE PUSH2 0x1C4 JUMPI PUSH1 0x20 CALLDATASIZE PUSH1 0x3 NOT ADD SLT PUSH2 0x1C4 JUMPI PUSH2 0x10A PUSH2 0xF13 JUMP JUMPDEST DUP4 SLOAD PUSH1 0x1 PUSH1 0x1 PUSH1 0xA0 SHL SUB DUP1 DUP3 AND SWAP4 SWAP2 SWAP3 PUSH2 0x125 CALLER DUP7 EQ PUSH2 0x1104 JUMP JUMPDEST AND SWAP4 DUP5 ISZERO PUSH2 0x164 JUMPI POP POP PUSH1 0x1 PUSH1 0x1 PUSH1 0xA0 SHL SUB NOT AND DUP3 OR DUP4 SSTORE PUSH32 0x8BE0079C531659141344CD1FD0A4F28419497F9722A3DAAFE3B4186F6B6457E0 DUP4 DUP1 LOG3 DUP1 RETURN JUMPDEST MLOAD PUSH3 0x461BCD PUSH1 0xE5 SHL DUP2 MSTORE PUSH1 0x20 SWAP2 DUP2 ADD SWAP2 SWAP1 SWAP2 MSTORE PUSH1 0x32 PUSH1 0x24 DUP3 ADD MSTORE PUSH32 0x4F776E61626C653A206E6F75766561752070726F707269C3A974616972652065 PUSH1 0x44 DUP3 ADD MSTORE PUSH18 0x7374206C2761647265737365207AC3A9726F PUSH1 0x70 SHL PUSH1 0x64 DUP3 ADD MSTORE PUSH1 0x84 SWAP1 REVERT JUMPDEST DUP3 DUP1 REVERT JUMPDEST POP POP CALLVALUE PUSH2 0x206 JUMPI PUSH1 0x20 CALLDATASIZE PUSH1 0x3 NOT ADD SLT PUSH2 0x206 JUMPI PUSH1 0x20 SWAP2 PUSH1 0xFF SWAP1 DUP3 SWAP1 PUSH1 0x1 PUSH1 0x1 PUSH1 0xA0 SHL SUB PUSH2 0x1F3 PUSH2 0xF13 JUMP JUMPDEST AND DUP2 MSTORE PUSH1 0x2 DUP6 MSTORE KECCAK256 SLOAD AND SWAP1 MLOAD SWAP1 ISZERO ISZERO DUP2 MSTORE RETURN JUMPDEST POP DUP1 REVERT JUMPDEST POP POP CALLVALUE PUSH2 0x206 JUMPI DUP1 PUSH1 0x3 NOT CALLDATASIZE ADD SLT PUSH2 0x206 JUMPI PUSH2 0x224 PUSH2 0xF13 JUMP JUMPDEST PUSH1 0x1 PUSH1 0x1 PUSH1 0xA0 SHL SUB SWAP1 DUP2 AND DUP4 MSTORE PUSH1 0x3 PUSH1 0x20 MSTORE DUP2 DUP4 KECCAK256 DUP1 SLOAD PUSH1 0x24 CALLDATALOAD SWAP5 SWAP1 DUP6 LT ISZERO PUSH2 0x263 JUMPI POP PUSH1 0x20 SWAP4 PUSH2 0x254 SWAP2 PUSH2 0x10EC JUMP JUMPDEST SWAP1 SLOAD SWAP1 PUSH1 0x3 SHL SHR AND SWAP1 MLOAD SWAP1 DUP2 MSTORE RETURN JUMPDEST DUP1 REVERT JUMPDEST POP SWAP2 SWAP1 CALLVALUE PUSH2 0x206 JUMPI DUP1 PUSH1 0x3 NOT CALLDATASIZE ADD SLT PUSH2 0x206 JUMPI PUSH2 0x281 PUSH2 0xF13 JUMP JUMPDEST SWAP1 PUSH2 0x28A PUSH2 0xF2E JUMP JUMPDEST PUSH1 0x1 PUSH1 0x1 PUSH1 0xA0 SHL SUB SWAP3 DUP4 AND DUP1 DUP6 MSTORE PUSH1 0x2 PUSH1 0x20 MSTORE DUP3 DUP6 KECCAK256 SLOAD SWAP1 SWAP3 SWAP2 SWAP1 PUSH2 0x2B1 SWAP1 PUSH1 0xFF AND PUSH2 0x11A3 JUMP JUMPDEST DUP3 CALLER EQ DUP1 ISZERO PUSH2 0x353 JUMPI JUMPDEST ISZERO PUSH2 0x320 JUMPI DUP4 AND DUP5 MSTORE PUSH1 0x3 PUSH1 0x20 MSTORE DUP4 KECCAK256 DUP1 SLOAD SWAP1 PUSH1 0x1 PUSH1 0x40 SHL DUP3 LT ISZERO PUSH2 0x30D JUMPI SWAP1 PUSH2 0x2EA SWAP2 PUSH1 0x1 DUP3 ADD DUP2 SSTORE PUSH2 0x10EC JUMP JUMPDEST SWAP1 SWAP3 DUP4 SLOAD SWAP2 PUSH1 0x3 SHL SWAP3 DUP4 SHL SWAP3 SHL NOT AND OR SWAP1 SSTORE PUSH2 0x307 PUSH1 0x6 SLOAD PUSH2 0x11EF JUMP JUMPDEST PUSH1 0x6 SSTORE DUP1 RETURN JUMPDEST PUSH4 0x4E487B71 PUSH1 0xE0 SHL DUP6 MSTORE PUSH1 0x41 DUP7 MSTORE PUSH1 0x24 DUP6 REVERT JUMPDEST DUP2 MLOAD PUSH3 0x461BCD PUSH1 0xE5 SHL DUP2 MSTORE PUSH1 0x20 DUP2 DUP9 ADD MSTORE PUSH1 0xD PUSH1 0x24 DUP3 ADD MSTORE PUSH13 0x4E6F6E206175746F726973C3A9 PUSH1 0x98 SHL PUSH1 0x44 DUP3 ADD MSTORE PUSH1 0x64 SWAP1 REVERT JUMPDEST POP DUP4 DUP6 SLOAD AND CALLER EQ PUSH2 0x2BB JUMP JUMPDEST POP POP CALLVALUE PUSH2 0x206 JUMPI PUSH1 0x20 DUP1 PUSH1 0x3 NOT CALLDATASIZE ADD SLT PUSH2 0x1C4 JUMPI PUSH1 0x1 PUSH1 0x1 PUSH1 0xA0 SHL SUB SWAP3 DUP4 PUSH2 0x385 PUSH2 0xF13 JUMP JUMPDEST AND DUP2 MSTORE PUSH1 0x3 DUP3 MSTORE DUP3 DUP2 KECCAK256 SWAP2 DUP4 MLOAD SWAP1 DUP2 DUP2 DUP6 SLOAD SWAP2 DUP3 DUP2 MSTORE ADD SWAP1 DUP2 SWAP6 DUP6 MSTORE DUP3 DUP6 KECCAK256 SWAP1 DUP6 JUMPDEST DUP2 DUP2 LT PUSH2 0x3F3 JUMPI POP POP POP DUP3 PUSH2 0x3BD SWAP2 SUB DUP4 PUSH2 0xFCE JUMP JUMPDEST DUP5 MLOAD SWAP5 DUP2 DUP7 ADD SWAP3 DUP3 DUP8 MSTORE MLOAD DUP1 SWAP4 MSTORE DUP6 ADD SWAP4 SWAP3 JUMPDEST DUP3 DUP2 LT PUSH2 0x3DD JUMPI DUP6 DUP6 SUB DUP7 RETURN JUMPDEST DUP4 MLOAD DUP8 AND DUP6 MSTORE SWAP4 DUP2 ADD SWAP4 SWAP3 DUP2 ADD SWAP3 PUSH1 0x1 ADD PUSH2 0x3D0 JUMP JUMPDEST DUP3 SLOAD DUP11 AND DUP5 MSTORE SWAP3 DUP5 ADD SWAP3 PUSH1 0x1 SWAP3 DUP4 ADD SWAP3 ADD PUSH2 0x3A7 JUMP JUMPDEST POP CALLVALUE PUSH2 0x1C4 JUMPI DUP2 PUSH1 0x3 NOT CALLDATASIZE ADD SLT PUSH2 0x1C4 JUMPI PUSH1 0x1 PUSH1 0x1 PUSH1 0xA0 SHL SUB DUP2 CALLDATALOAD DUP2 DUP2 AND SWAP4 SWAP1 DUP5 SWAP1 SUB PUSH2 0x7B5 JUMPI PUSH1 0x24 DUP1 CALLDATALOAD SWAP3 PUSH8 0xFFFFFFFFFFFFFFFF SWAP1 DUP2 DUP6 GT PUSH2 0x7B1 JUMPI CALLDATASIZE PUSH1 0x23 DUP7 ADD SLT ISZERO PUSH2 0x7B1 JUMPI DUP5 DUP7 ADD CALLDATALOAD SWAP6 DUP3 DUP8 GT PUSH2 0x79F JUMPI DUP5 MLOAD SWAP7 DUP10 PUSH1 0x20 SWAP8 PUSH1 0x1F NOT SWAP3 PUSH2 0x479 DUP11 DUP6 PUSH1 0x1F DUP5 ADD AND ADD DUP13 PUSH2 0xFCE JUMP JUMPDEST DUP1 DUP12 MSTORE CALLDATASIZE DUP9 DUP3 DUP5 ADD ADD GT PUSH2 0x1C4 JUMPI DUP1 DUP9 DUP12 SWAP4 ADD DUP4 DUP14 ADD CALLDATACOPY DUP11 ADD ADD MSTORE PUSH2 0x4A2 DUP4 DUP12 SLOAD AND CALLER EQ PUSH2 0x1104 JUMP JUMPDEST DUP9 ISZERO PUSH2 0x75D JUMPI DUP9 DUP11 MSTORE PUSH1 0x2 DUP8 MSTORE PUSH1 0xFF DUP7 DUP12 KECCAK256 SLOAD AND PUSH2 0x71B JUMPI DUP6 MLOAD SWAP4 PUSH1 0x80 DUP6 ADD DUP6 DUP2 LT DUP3 DUP3 GT OR PUSH2 0x709 JUMPI DUP8 MSTORE DUP10 DUP6 MSTORE DUP8 DUP6 ADD SWAP2 DUP10 DUP4 MSTORE DUP8 DUP7 ADD SWAP4 PUSH1 0x1 SWAP8 DUP9 DUP7 MSTORE PUSH1 0x60 DUP9 ADD SWAP7 TIMESTAMP DUP9 MSTORE DUP10 SLOAD PUSH1 0x1 PUSH1 0x40 SHL DUP2 LT ISZERO PUSH2 0x6F6 JUMPI DUP1 DUP12 PUSH2 0x506 SWAP3 ADD DUP13 SSTORE PUSH2 0xF44 JUMP JUMPDEST SWAP10 SWAP1 SWAP10 PUSH2 0x6E4 JUMPI MLOAD AND PUSH12 0xFFFFFFFFFFFFFFFFFFFFFFFF PUSH1 0xA0 SHL DUP10 SLOAD AND OR DUP9 SSTORE DUP9 DUP9 ADD SWAP5 MLOAD SWAP2 DUP3 MLOAD SWAP5 DUP6 GT PUSH2 0x6D3 JUMPI POP POP DUP13 DUP11 PUSH2 0x542 DUP7 SLOAD PUSH2 0xF94 JUMP JUMPDEST SWAP2 PUSH1 0x1F DUP4 GT PUSH2 0x68B JUMPI JUMPDEST SWAP2 POP POP POP DUP13 DUP11 SWAP3 PUSH1 0x1F DUP6 GT PUSH1 0x1 EQ PUSH2 0x5FD JUMPI POP SWAP4 DUP4 PUSH2 0x5EC SWAP10 SWAP8 SWAP5 PUSH2 0x5C5 SWAP5 PUSH32 0x31A6301C96F9B13BA8BD25FAF22B1C31F44418E3BBC0C77FBF6B27C581360FBA SWAP15 SWAP14 SWAP13 SWAP11 SWAP9 SWAP5 PUSH1 0x3 SWAP9 SWAP3 PUSH2 0x5F2 JUMPI JUMPDEST POP POP PUSH1 0x0 NOT DUP3 DUP9 SHL SHR NOT AND SWAP1 DUP9 SHL OR SWAP1 SSTORE JUMPDEST MLOAD ISZERO ISZERO PUSH1 0x2 DUP6 ADD SWAP1 PUSH1 0xFF DUP1 NOT DUP4 SLOAD AND SWAP2 ISZERO ISZERO AND OR SWAP1 SSTORE JUMP JUMPDEST MLOAD SWAP2 ADD SSTORE DUP7 DUP9 MSTORE PUSH1 0x2 DUP5 MSTORE DUP2 DUP9 KECCAK256 SWAP1 PUSH1 0xFF NOT DUP3 SLOAD AND OR SWAP1 SSTORE MLOAD SWAP3 DUP3 DUP5 SWAP4 DUP5 MSTORE DUP4 ADD SWAP1 PUSH2 0x10AC JUMP JUMPDEST SUB SWAP1 LOG2 DUP1 RETURN JUMPDEST ADD MLOAD SWAP1 POP CODESIZE DUP1 PUSH2 0x59B JUMP JUMPDEST DUP5 SWAP4 SWAP3 SWAP2 SWAP4 AND DUP6 DUP5 MSTORE DUP12 DUP5 KECCAK256 SWAP4 JUMPDEST DUP2 DUP2 LT PUSH2 0x676 JUMPI POP SWAP9 DUP5 PUSH2 0x5C5 SWAP5 PUSH32 0x31A6301C96F9B13BA8BD25FAF22B1C31F44418E3BBC0C77FBF6B27C581360FBA SWAP15 SWAP14 SWAP13 SWAP11 SWAP9 SWAP5 PUSH1 0x3 SWAP9 SWAP5 DUP5 SWAP12 SWAP9 PUSH2 0x5EC SWAP15 LT PUSH2 0x65E JUMPI JUMPDEST POP POP POP DUP2 SHL ADD SWAP1 SSTORE PUSH2 0x5AD JUMP JUMPDEST ADD MLOAD PUSH1 0x0 NOT DUP4 DUP11 SHL PUSH1 0xF8 AND SHR NOT AND SWAP1 SSTORE CODESIZE DUP1 DUP1 PUSH2 0x651 JUMP JUMPDEST DUP3 DUP5 ADD MLOAD DUP6 SSTORE SWAP4 DUP11 ADD SWAP4 SWAP3 DUP13 ADD SWAP3 DUP13 ADD PUSH2 0x60B JUMP JUMPDEST DUP7 DUP2 MSTORE KECCAK256 PUSH1 0x1F DUP6 ADD PUSH1 0x5 SHR DUP2 ADD SWAP2 DUP13 DUP7 LT PUSH2 0x6C9 JUMPI JUMPDEST PUSH1 0x1F ADD PUSH1 0x5 SHR ADD SWAP1 DUP10 SWAP1 DUP16 JUMPDEST DUP4 DUP3 LT PUSH2 0x6BE JUMPI SWAP1 POP DUP13 SWAP2 POP PUSH2 0x54C JUMP JUMPDEST DUP2 SSTORE ADD DUP10 SWAP1 DUP16 PUSH2 0x6AD JUMP JUMPDEST SWAP1 SWAP2 POP DUP2 SWAP1 PUSH2 0x6A1 JUMP JUMPDEST PUSH4 0x4E487B71 PUSH1 0xE0 SHL DUP16 MSTORE PUSH1 0x41 SWAP1 MSTORE DUP14 REVERT JUMPDEST POP POP PUSH4 0x4E487B71 PUSH1 0xE0 SHL DUP15 MSTORE DUP14 DUP3 MSTORE DUP14 REVERT JUMPDEST POP POP PUSH4 0x4E487B71 PUSH1 0xE0 SHL DUP15 MSTORE PUSH1 0x41 DUP3 MSTORE DUP14 REVERT JUMPDEST PUSH4 0x4E487B71 PUSH1 0xE0 SHL DUP13 MSTORE PUSH1 0x41 DUP5 MSTORE DUP7 DUP13 REVERT JUMPDEST DUP6 MLOAD PUSH3 0x461BCD PUSH1 0xE5 SHL DUP2 MSTORE DUP1 DUP4 ADD DUP9 SWAP1 MSTORE PUSH1 0x17 DUP2 DUP8 ADD MSTORE PUSH32 0x436F6E747261742064656A6120656E7265676973747265000000000000000000 PUSH1 0x44 DUP3 ADD MSTORE PUSH1 0x64 SWAP1 REVERT JUMPDEST DUP6 MLOAD PUSH3 0x461BCD PUSH1 0xE5 SHL DUP2 MSTORE DUP1 DUP4 ADD DUP9 SWAP1 MSTORE PUSH1 0x1B DUP2 DUP8 ADD MSTORE PUSH32 0x4164726573736520646520636F6E7472617420696E76616C6964650000000000 PUSH1 0x44 DUP3 ADD MSTORE PUSH1 0x64 SWAP1 REVERT JUMPDEST PUSH4 0x4E487B71 PUSH1 0xE0 SHL DUP10 MSTORE PUSH1 0x41 SWAP1 MSTORE DUP3 DUP9 REVERT JUMPDEST DUP8 DUP1 REVERT JUMPDEST DUP5 DUP1 REVERT JUMPDEST POP CALLVALUE PUSH2 0x1C4 JUMPI DUP2 PUSH1 0x3 NOT CALLDATASIZE ADD SLT PUSH2 0x1C4 JUMPI CALLDATALOAD PUSH1 0x24 CALLDATALOAD SWAP1 DUP2 ISZERO ISZERO DUP1 DUP4 SUB PUSH2 0x7B5 JUMPI PUSH32 0xA91AB5B8A26B614D5159C9B2061CB48BD031A68A8530311CF50410F99B2C11B1 SWAP3 PUSH2 0x84A PUSH1 0x20 SWAP4 PUSH2 0x845 PUSH1 0x1 DUP1 PUSH1 0xA0 SHL SUB SWAP4 PUSH2 0x81A DUP6 DUP12 SLOAD AND CALLER EQ PUSH2 0x1104 JUMP JUMPDEST PUSH2 0x827 PUSH1 0x1 SLOAD DUP5 LT PUSH2 0x1166 JUMP JUMPDEST PUSH1 0x2 PUSH2 0x832 DUP5 PUSH2 0xF44 JUMP JUMPDEST POP ADD SWAP1 PUSH1 0xFF DUP1 NOT DUP4 SLOAD AND SWAP2 ISZERO ISZERO AND OR SWAP1 SSTORE JUMP JUMPDEST PUSH2 0xF44 JUMP JUMPDEST POP SLOAD AND SWAP4 MLOAD SWAP1 DUP2 MSTORE LOG2 DUP1 RETURN JUMPDEST POP POP CALLVALUE PUSH2 0x206 JUMPI DUP2 PUSH1 0x3 NOT CALLDATASIZE ADD SLT PUSH2 0x206 JUMPI PUSH1 0x20 SWAP1 PUSH1 0x5 SLOAD SWAP1 MLOAD SWAP1 DUP2 MSTORE RETURN JUMPDEST POP SWAP2 CALLVALUE PUSH2 0x263 JUMPI DUP1 PUSH1 0x3 NOT CALLDATASIZE ADD SLT PUSH2 0x263 JUMPI PUSH1 0x1 SLOAD SWAP2 DUP2 JUMPDEST DUP4 DUP2 LT PUSH2 0x8BA JUMPI POP PUSH1 0xA0 SWAP4 SLOAD PUSH1 0x5 SLOAD SWAP2 PUSH1 0x6 SLOAD SWAP4 DUP2 MLOAD SWAP6 DUP7 MSTORE PUSH1 0x20 DUP7 ADD MSTORE DUP5 ADD MSTORE PUSH1 0x60 DUP4 ADD MSTORE PUSH1 0x80 DUP3 ADD MSTORE RETURN JUMPDEST PUSH1 0xFF PUSH1 0x2 PUSH2 0x8C7 DUP4 PUSH2 0xF44 JUMP JUMPDEST POP ADD SLOAD AND PUSH2 0x8DE JUMPI JUMPDEST PUSH2 0x8D9 SWAP1 PUSH2 0x11EF JUMP JUMPDEST PUSH2 0x88D JUMP JUMPDEST SWAP2 PUSH2 0x8EB PUSH2 0x8D9 SWAP2 PUSH2 0x11EF JUMP JUMPDEST SWAP3 SWAP1 POP PUSH2 0x8D0 JUMP JUMPDEST POP POP CALLVALUE PUSH2 0x206 JUMPI DUP2 PUSH1 0x3 NOT CALLDATASIZE ADD SLT PUSH2 0x206 JUMPI PUSH1 0x20 SWAP1 PUSH1 0x6 SLOAD SWAP1 MLOAD SWAP1 DUP2 MSTORE RETURN JUMPDEST POP POP CALLVALUE PUSH2 0x206 JUMPI DUP2 PUSH1 0x3 NOT CALLDATASIZE ADD SLT PUSH2 0x206 JUMPI SWAP1 SLOAD SWAP1 MLOAD PUSH1 0x1 PUSH1 0x1 PUSH1 0xA0 SHL SUB SWAP1 SWAP2 AND DUP2 MSTORE PUSH1 0x20 SWAP1 RETURN JUMPDEST POP SWAP1 CALLVALUE PUSH2 0x1C4 JUMPI PUSH1 0x20 SWAP3 DUP4 PUSH1 0x3 NOT CALLDATASIZE ADD SLT PUSH2 0x263 JUMPI PUSH2 0x961 DUP4 CALLDATALOAD PUSH2 0x845 PUSH1 0x1 SLOAD DUP3 LT PUSH2 0x1166 JUMP JUMPDEST POP SWAP3 PUSH1 0x1 DUP1 PUSH1 0xA0 SHL SUB DUP5 SLOAD AND SWAP4 PUSH1 0xFF PUSH1 0x2 DUP3 ADD SLOAD AND SWAP4 PUSH1 0x3 DUP3 ADD SLOAD SWAP1 DUP1 MLOAD SWAP3 PUSH4 0x760C0AA7 PUSH1 0xE1 SHL DUP5 MSTORE DUP9 DUP5 DUP7 DUP2 DUP12 GAS STATICCALL SWAP4 DUP5 ISZERO PUSH2 0xADA JUMPI DUP7 SWAP5 PUSH2 0xAA7 JUMPI JUMPDEST POP DUP2 MLOAD PUSH4 0x9097051 PUSH1 0xE4 SHL DUP2 MSTORE SWAP5 DUP10 DUP7 DUP3 DUP2 DUP13 GAS STATICCALL SWAP6 DUP7 ISZERO PUSH2 0xA9D JUMPI DUP8 SWAP7 PUSH2 0xA6A JUMPI JUMPDEST POP DUP10 DUP4 MLOAD DUP1 SWAP3 PUSH4 0x40F1F6D PUSH1 0xE1 SHL DUP3 MSTORE DUP2 DUP13 GAS STATICCALL SWAP7 DUP8 ISZERO PUSH2 0xA5F JUMPI DUP1 SWAP8 PUSH2 0xA2A JUMPI JUMPDEST POP POP PUSH2 0x9F5 PUSH1 0x1 PUSH2 0xA0B SWAP3 ADD PUSH2 0x1006 JUMP JUMPDEST PUSH1 0xE0 DUP4 MLOAD SWAP11 DUP12 SWAP11 DUP12 MSTORE DUP11 ADD MSTORE PUSH1 0xE0 DUP10 ADD SWAP1 PUSH2 0x10AC JUMP JUMPDEST SWAP6 ISZERO ISZERO SWAP1 DUP8 ADD MSTORE PUSH1 0x60 DUP7 ADD MSTORE PUSH1 0x80 DUP6 ADD MSTORE PUSH1 0xA0 DUP5 ADD MSTORE PUSH1 0xC0 DUP4 ADD MSTORE SUB SWAP1 RETURN JUMPDEST SWAP1 SWAP2 SWAP7 POP DUP10 DUP3 DUP2 RETURNDATASIZE DUP4 GT PUSH2 0xA58 JUMPI JUMPDEST PUSH2 0xA43 DUP2 DUP4 PUSH2 0xFCE JUMP JUMPDEST DUP2 ADD SUB SLT PUSH2 0x263 JUMPI POP MLOAD SWAP5 PUSH2 0x9F5 PUSH1 0x1 PUSH2 0x9E4 JUMP JUMPDEST POP RETURNDATASIZE PUSH2 0xA39 JUMP JUMPDEST DUP4 MLOAD SWAP1 RETURNDATASIZE SWAP1 DUP3 RETURNDATACOPY RETURNDATASIZE SWAP1 REVERT JUMPDEST SWAP1 SWAP6 POP DUP10 DUP2 DUP2 RETURNDATASIZE DUP4 GT PUSH2 0xA96 JUMPI JUMPDEST PUSH2 0xA82 DUP2 DUP4 PUSH2 0xFCE JUMP JUMPDEST DUP2 ADD SUB SLT PUSH2 0xA92 JUMPI MLOAD SWAP5 CODESIZE PUSH2 0x9C2 JUMP JUMPDEST DUP7 DUP1 REVERT JUMPDEST POP RETURNDATASIZE PUSH2 0xA78 JUMP JUMPDEST DUP4 MLOAD RETURNDATASIZE DUP10 DUP3 RETURNDATACOPY RETURNDATASIZE SWAP1 REVERT JUMPDEST SWAP1 SWAP4 POP DUP9 DUP2 DUP2 RETURNDATASIZE DUP4 GT PUSH2 0xAD3 JUMPI JUMPDEST PUSH2 0xABF DUP2 DUP4 PUSH2 0xFCE JUMP JUMPDEST DUP2 ADD SUB SLT PUSH2 0xACF JUMPI MLOAD SWAP3 CODESIZE PUSH2 0x99F JUMP JUMPDEST DUP6 DUP1 REVERT JUMPDEST POP RETURNDATASIZE PUSH2 0xAB5 JUMP JUMPDEST DUP3 MLOAD RETURNDATASIZE DUP9 DUP3 RETURNDATACOPY RETURNDATASIZE SWAP1 REVERT JUMPDEST DUP4 CALLVALUE PUSH2 0x263 JUMPI DUP1 PUSH1 0x3 NOT CALLDATASIZE ADD SLT PUSH2 0x263 JUMPI DUP1 SLOAD DUP2 SWAP1 PUSH1 0x1 PUSH1 0x1 PUSH1 0xA0 SHL SUB DUP2 AND SWAP1 PUSH2 0xB0F CALLER DUP4 EQ PUSH2 0x1104 JUMP JUMPDEST PUSH1 0x1 PUSH1 0x1 PUSH1 0xA0 SHL SUB NOT AND DUP3 SSTORE PUSH32 0x8BE0079C531659141344CD1FD0A4F28419497F9722A3DAAFE3B4186F6B6457E0 DUP3 DUP1 LOG3 DUP1 RETURN JUMPDEST POP DUP3 SWAP1 CALLVALUE PUSH2 0x206 JUMPI PUSH1 0x20 CALLDATASIZE PUSH1 0x3 NOT ADD SLT PUSH2 0x206 JUMPI CALLDATALOAD SWAP1 PUSH1 0x1 SLOAD DUP3 LT ISZERO PUSH2 0x263 JUMPI POP PUSH2 0xB6C SWAP1 PUSH2 0xF44 JUMP JUMPDEST POP DUP1 SLOAD PUSH1 0x1 PUSH1 0x1 PUSH1 0xA0 SHL SUB AND SWAP1 PUSH2 0xB85 PUSH1 0x1 DUP3 ADD PUSH2 0x1006 JUMP JUMPDEST SWAP3 PUSH1 0x3 PUSH1 0xFF PUSH1 0x2 DUP5 ADD SLOAD AND SWAP3 ADD SLOAD SWAP1 PUSH2 0xBAF DUP2 MLOAD SWAP6 DUP7 SWAP6 DUP7 MSTORE PUSH1 0x80 PUSH1 0x20 DUP8 ADD MSTORE PUSH1 0x80 DUP7 ADD SWAP1 PUSH2 0x10AC JUMP JUMPDEST SWAP3 ISZERO ISZERO SWAP1 DUP5 ADD MSTORE PUSH1 0x60 DUP4 ADD MSTORE SUB SWAP1 RETURN JUMPDEST POP SWAP2 SWAP1 CALLVALUE PUSH2 0x206 JUMPI DUP2 PUSH1 0x3 NOT CALLDATASIZE ADD SLT PUSH2 0x206 JUMPI DUP2 SWAP1 DUP3 SWAP4 DUP4 PUSH1 0x1 SLOAD SWAP1 JUMPDEST DUP2 DUP2 LT PUSH2 0xC26 JUMPI DUP6 PUSH32 0x96F06EDCE356A6F04CC55AEEA56C38FCAD8C40121241354D668655DB1BAE953C PUSH1 0x60 DUP8 DUP11 DUP9 DUP3 DUP10 SSTORE DUP2 PUSH1 0x5 SSTORE PUSH1 0x6 SLOAD SWAP2 DUP2 MLOAD SWAP4 DUP5 MSTORE PUSH1 0x20 DUP5 ADD MSTORE DUP3 ADD MSTORE LOG1 DUP1 RETURN JUMPDEST PUSH1 0xFF PUSH1 0x2 PUSH2 0xC33 DUP4 PUSH2 0xF44 JUMP JUMPDEST POP ADD SLOAD AND PUSH2 0xC4A JUMPI JUMPDEST PUSH2 0xC45 SWAP1 PUSH2 0x11EF JUMP JUMPDEST PUSH2 0xBDC JUMP JUMPDEST SWAP6 PUSH2 0xC54 DUP8 PUSH2 0xF44 JUMP JUMPDEST POP SLOAD DUP5 MLOAD PUSH4 0x760C0AA7 PUSH1 0xE1 SHL DUP2 MSTORE PUSH1 0x1 PUSH1 0x1 PUSH1 0xA0 SHL SUB SWAP1 SWAP2 AND SWAP6 PUSH1 0x20 SWAP2 SWAP1 DUP3 DUP3 DUP8 DUP2 DUP12 GAS STATICCALL SWAP2 DUP3 ISZERO PUSH2 0xD44 JUMPI SWAP2 DUP4 SWAP2 DUP8 SWAP4 DUP12 SWAP3 PUSH2 0xD09 JUMPI JUMPDEST POP SWAP1 PUSH2 0xC97 SWAP2 PUSH2 0x1214 JUMP JUMPDEST SWAP8 DUP8 MLOAD SWAP3 DUP4 DUP1 SWAP3 PUSH4 0x9097051 PUSH1 0xE4 SHL DUP3 MSTORE GAS STATICCALL SWAP2 DUP3 ISZERO PUSH2 0xCFF JUMPI DUP9 SWAP3 PUSH2 0xCCF JUMPI JUMPDEST POP POP PUSH2 0xCC7 SWAP1 PUSH2 0xC45 SWAP3 PUSH2 0x1214 JUMP JUMPDEST SWAP7 SWAP1 POP PUSH2 0xC3C JUMP JUMPDEST SWAP1 DUP1 SWAP3 POP DUP2 RETURNDATASIZE DUP4 GT PUSH2 0xCF8 JUMPI JUMPDEST PUSH2 0xCE6 DUP2 DUP4 PUSH2 0xFCE JUMP JUMPDEST DUP2 ADD SUB SLT PUSH2 0xA92 JUMPI MLOAD DUP2 PUSH2 0xCC7 PUSH2 0xCB8 JUMP JUMPDEST POP RETURNDATASIZE PUSH2 0xCDC JUMP JUMPDEST DUP7 MLOAD RETURNDATASIZE DUP11 DUP3 RETURNDATACOPY RETURNDATASIZE SWAP1 REVERT JUMPDEST SWAP3 DUP4 SWAP2 SWAP5 POP DUP1 SWAP3 POP RETURNDATASIZE DUP4 GT PUSH2 0xD3D JUMPI JUMPDEST PUSH2 0xD23 DUP2 DUP4 PUSH2 0xFCE JUMP JUMPDEST DUP2 ADD SUB SLT PUSH2 0xD39 JUMPI PUSH2 0xC97 DUP7 SWAP3 DUP5 SWAP3 MLOAD SWAP2 PUSH2 0xC8C JUMP JUMPDEST DUP9 DUP1 REVERT JUMPDEST POP RETURNDATASIZE PUSH2 0xD19 JUMP JUMPDEST DUP8 MLOAD RETURNDATASIZE DUP12 DUP3 RETURNDATACOPY RETURNDATASIZE SWAP1 REVERT JUMPDEST POP CALLVALUE PUSH2 0x1C4 JUMPI DUP3 PUSH1 0x3 NOT CALLDATASIZE ADD SLT PUSH2 0x1C4 JUMPI PUSH1 0x20 SWAP3 POP SLOAD SWAP1 MLOAD SWAP1 DUP2 MSTORE RETURN JUMPDEST POP SWAP2 SWAP1 CALLVALUE PUSH2 0x206 JUMPI PUSH1 0x60 CALLDATASIZE PUSH1 0x3 NOT ADD SLT PUSH2 0x206 JUMPI PUSH2 0xD87 PUSH2 0xF13 JUMP JUMPDEST SWAP3 PUSH1 0x44 CALLDATALOAD PUSH1 0x1 PUSH1 0x1 PUSH1 0xA0 SHL SUB DUP2 DUP2 AND SWAP3 SWAP2 DUP4 SWAP1 SUB PUSH2 0x7B5 JUMPI PUSH1 0x44 SWAP6 AND SWAP2 DUP3 DUP6 MSTORE PUSH1 0x20 SWAP6 DUP7 SWAP3 PUSH1 0x2 DUP5 MSTORE PUSH2 0xDBF PUSH1 0xFF DUP8 DUP10 KECCAK256 SLOAD AND PUSH2 0x11A3 JUMP JUMPDEST DUP6 MLOAD SWAP5 DUP6 SWAP4 DUP5 SWAP3 PUSH4 0x4C4B4F41 PUSH1 0xE1 SHL DUP5 MSTORE PUSH1 0x24 CALLDATALOAD SWAP1 DUP5 ADD MSTORE PUSH1 0x24 DUP4 ADD MSTORE GAS STATICCALL SWAP3 DUP4 ISZERO PUSH2 0xE26 JUMPI DUP1 SWAP4 PUSH2 0xDF4 JUMPI JUMPDEST POP POP MLOAD SWAP1 DUP2 MSTORE RETURN JUMPDEST SWAP1 SWAP2 SWAP3 POP DUP4 DUP3 DUP2 RETURNDATASIZE DUP4 GT PUSH2 0xE1F JUMPI JUMPDEST PUSH2 0xE0D DUP2 DUP4 PUSH2 0xFCE JUMP JUMPDEST DUP2 ADD SUB SLT PUSH2 0x263 JUMPI POP MLOAD SWAP1 CODESIZE DUP1 PUSH2 0xDEC JUMP JUMPDEST POP RETURNDATASIZE PUSH2 0xE03 JUMP JUMPDEST DUP3 MLOAD SWAP1 RETURNDATASIZE SWAP1 DUP3 RETURNDATACOPY RETURNDATASIZE SWAP1 REVERT JUMPDEST POP POP CALLVALUE PUSH2 0x206 JUMPI DUP2 PUSH1 0x3 NOT CALLDATASIZE ADD SLT PUSH2 0x206 JUMPI PUSH1 0x20 SWAP1 PUSH1 0x1 SLOAD SWAP1 MLOAD SWAP1 DUP2 MSTORE RETURN JUMPDEST POP SWAP1 CALLVALUE PUSH2 0x1C4 JUMPI DUP1 PUSH1 0x3 NOT CALLDATASIZE ADD SLT PUSH2 0x1C4 JUMPI PUSH2 0xE6A PUSH2 0xF13 JUMP JUMPDEST SWAP3 PUSH2 0xE73 PUSH2 0xF2E JUMP JUMPDEST SWAP4 PUSH1 0x1 DUP1 PUSH1 0xA0 SHL SUB DUP1 SWAP2 AND SWAP1 DUP2 DUP4 MSTORE PUSH1 0x24 PUSH1 0x20 SWAP7 DUP8 SWAP4 PUSH1 0x2 DUP6 MSTORE PUSH2 0xE9C PUSH1 0xFF DUP9 DUP9 KECCAK256 SLOAD AND PUSH2 0x11A3 JUMP JUMPDEST DUP7 MLOAD SWAP8 DUP9 SWAP5 DUP6 SWAP4 PUSH3 0xFF815B PUSH1 0xE0 SHL DUP6 MSTORE AND SWAP1 DUP4 ADD MSTORE GAS STATICCALL SWAP3 DUP4 ISZERO PUSH2 0xF07 JUMPI DUP2 SWAP4 PUSH2 0xECB JUMPI JUMPDEST POP POP MLOAD SWAP1 ISZERO ISZERO DUP2 MSTORE RETURN JUMPDEST SWAP1 SWAP2 SWAP3 POP DUP4 DUP2 DUP2 RETURNDATASIZE DUP4 GT PUSH2 0xF00 JUMPI JUMPDEST PUSH2 0xEE4 DUP2 DUP4 PUSH2 0xFCE JUMP JUMPDEST DUP2 ADD SUB SLT PUSH2 0x206 JUMPI MLOAD SWAP1 DUP2 ISZERO ISZERO DUP3 SUB PUSH2 0x263 JUMPI POP SWAP1 CODESIZE DUP1 PUSH2 0xEC1 JUMP JUMPDEST POP RETURNDATASIZE PUSH2 0xEDA JUMP JUMPDEST POP SWAP1 MLOAD SWAP1 RETURNDATASIZE SWAP1 DUP3 RETURNDATACOPY RETURNDATASIZE SWAP1 REVERT JUMPDEST PUSH1 0x4 CALLDATALOAD SWAP1 PUSH1 0x1 PUSH1 0x1 PUSH1 0xA0 SHL SUB DUP3 AND DUP3 SUB PUSH2 0xF29 JUMPI JUMP JUMPDEST PUSH1 0x0 DUP1 REVERT JUMPDEST PUSH1 0x24 CALLDATALOAD SWAP1 PUSH1 0x1 PUSH1 0x1 PUSH1 0xA0 SHL SUB DUP3 AND DUP3 SUB PUSH2 0xF29 JUMPI JUMP JUMPDEST PUSH1 0x1 SLOAD DUP2 LT ISZERO PUSH2 0xF7E JUMPI PUSH1 0x1 PUSH1 0x0 MSTORE PUSH1 0x2 SHL PUSH32 0xB10E2D527612073B26EECDFD717E6A320CF44B4AFAC2B0732D9FCBE2B7FA0CF6 ADD SWAP1 PUSH1 0x0 SWAP1 JUMP JUMPDEST PUSH4 0x4E487B71 PUSH1 0xE0 SHL PUSH1 0x0 MSTORE PUSH1 0x32 PUSH1 0x4 MSTORE PUSH1 0x24 PUSH1 0x0 REVERT JUMPDEST SWAP1 PUSH1 0x1 DUP3 DUP2 SHR SWAP3 AND DUP1 ISZERO PUSH2 0xFC4 JUMPI JUMPDEST PUSH1 0x20 DUP4 LT EQ PUSH2 0xFAE JUMPI JUMP JUMPDEST PUSH4 0x4E487B71 PUSH1 0xE0 SHL PUSH1 0x0 MSTORE PUSH1 0x22 PUSH1 0x4 MSTORE PUSH1 0x24 PUSH1 0x0 REVERT JUMPDEST SWAP2 PUSH1 0x7F AND SWAP2 PUSH2 0xFA3 JUMP JUMPDEST SWAP1 PUSH1 0x1F DUP1 NOT SWAP2 ADD AND DUP2 ADD SWAP1 DUP2 LT PUSH8 0xFFFFFFFFFFFFFFFF DUP3 GT OR PUSH2 0xFF0 JUMPI PUSH1 0x40 MSTORE JUMP JUMPDEST PUSH4 0x4E487B71 PUSH1 0xE0 SHL PUSH1 0x0 MSTORE PUSH1 0x41 PUSH1 0x4 MSTORE PUSH1 0x24 PUSH1 0x0 REVERT JUMPDEST SWAP1 PUSH1 0x40 MLOAD SWAP2 DUP3 PUSH1 0x0 DUP3 SLOAD SWAP3 PUSH2 0x101A DUP5 PUSH2 0xF94 JUMP JUMPDEST SWAP1 DUP2 DUP5 MSTORE PUSH1 0x1 SWAP5 DUP6 DUP2 AND SWAP1 DUP2 PUSH1 0x0 EQ PUSH2 0x1089 JUMPI POP PUSH1 0x1 EQ PUSH2 0x1046 JUMPI JUMPDEST POP POP PUSH2 0x1044 SWAP3 POP SUB DUP4 PUSH2 0xFCE JUMP JUMPDEST JUMP JUMPDEST SWAP1 SWAP4 SWAP2 POP PUSH1 0x0 MSTORE PUSH1 0x20 SWAP1 DUP2 PUSH1 0x0 KECCAK256 SWAP4 PUSH1 0x0 SWAP2 JUMPDEST DUP2 DUP4 LT PUSH2 0x1071 JUMPI POP POP PUSH2 0x1044 SWAP4 POP DUP3 ADD ADD CODESIZE DUP1 PUSH2 0x1036 JUMP JUMPDEST DUP6 SLOAD DUP9 DUP5 ADD DUP6 ADD MSTORE SWAP5 DUP6 ADD SWAP5 DUP8 SWAP5 POP SWAP2 DUP4 ADD SWAP2 PUSH2 0x1059 JUMP JUMPDEST SWAP2 POP POP PUSH2 0x1044 SWAP5 POP PUSH1 0x20 SWAP3 POP PUSH1 0xFF NOT AND DUP3 DUP5 ADD MSTORE ISZERO ISZERO PUSH1 0x5 SHL DUP3 ADD ADD CODESIZE DUP1 PUSH2 0x1036 JUMP JUMPDEST SWAP2 SWAP1 DUP3 MLOAD SWAP3 DUP4 DUP3 MSTORE PUSH1 0x0 JUMPDEST DUP5 DUP2 LT PUSH2 0x10D8 JUMPI POP POP DUP3 PUSH1 0x0 PUSH1 0x20 DUP1 SWAP5 SWAP6 DUP5 ADD ADD MSTORE PUSH1 0x1F DUP1 NOT SWAP2 ADD AND ADD ADD SWAP1 JUMP JUMPDEST PUSH1 0x20 DUP2 DUP4 ADD DUP2 ADD MLOAD DUP5 DUP4 ADD DUP3 ADD MSTORE ADD PUSH2 0x10B7 JUMP JUMPDEST DUP1 SLOAD DUP3 LT ISZERO PUSH2 0xF7E JUMPI PUSH1 0x0 MSTORE PUSH1 0x20 PUSH1 0x0 KECCAK256 ADD SWAP1 PUSH1 0x0 SWAP1 JUMP JUMPDEST ISZERO PUSH2 0x110B JUMPI JUMP JUMPDEST PUSH1 0x40 MLOAD PUSH3 0x461BCD PUSH1 0xE5 SHL DUP2 MSTORE PUSH1 0x20 PUSH1 0x4 DUP3 ADD MSTORE PUSH1 0x2D PUSH1 0x24 DUP3 ADD MSTORE PUSH32 0x4F776E61626C653A206C5F617070656C616E74206E5F65737420706173206C65 PUSH1 0x44 DUP3 ADD MSTORE PUSH13 0x2070726F707269657461697265 PUSH1 0x98 SHL PUSH1 0x64 DUP3 ADD MSTORE PUSH1 0x84 SWAP1 REVERT JUMPDEST ISZERO PUSH2 0x116D JUMPI JUMP JUMPDEST PUSH1 0x40 MLOAD PUSH3 0x461BCD PUSH1 0xE5 SHL DUP2 MSTORE PUSH1 0x20 PUSH1 0x4 DUP3 ADD MSTORE PUSH1 0xE PUSH1 0x24 DUP3 ADD MSTORE PUSH14 0x496E64657820696E76616C696465 PUSH1 0x90 SHL PUSH1 0x44 DUP3 ADD MSTORE PUSH1 0x64 SWAP1 REVERT JUMPDEST ISZERO PUSH2 0x11AA JUMPI JUMP JUMPDEST PUSH1 0x40 MLOAD PUSH3 0x461BCD PUSH1 0xE5 SHL DUP2 MSTORE PUSH1 0x20 PUSH1 0x4 DUP3 ADD MSTORE PUSH1 0x17 PUSH1 0x24 DUP3 ADD MSTORE PUSH32 0x436F6E74726174206E6F6E20656E72656769737472C3A9000000000000000000 PUSH1 0x44 DUP3 ADD MSTORE PUSH1 0x64 SWAP1 REVERT JUMPDEST PUSH1 0x0 NOT DUP2 EQ PUSH2 0x11FE JUMPI PUSH1 0x1 ADD SWAP1 JUMP JUMPDEST PUSH4 0x4E487B71 PUSH1 0xE0 SHL PUSH1 0x0 MSTORE PUSH1 0x11 PUSH1 0x4 MSTORE PUSH1 0x24 PUSH1 0x0 REVERT JUMPDEST SWAP2 SWAP1 DUP3 ADD DUP1 SWAP3 GT PUSH2 0x11FE JUMPI JUMP INVALID LOG2 PUSH5 0x6970667358 0x22 SLT KECCAK256 BYTE 0xDB 0xF9 0xC0 0xC2 0xA6 0xF DUP6 0xC7 0xFB 0xE7 PUSH29 0x63C53ECF2DCE50DF8FAC11CA7A2A86411E035BBE64736F6C6343000814 STOP CALLER "},"methodIdentifiers":{"addStakingInstance(address,string)":"cf76bdd0","getGlobalStatsSummary()":"b57de2d3","getPendingRewards(address,uint256,address)":"222cd11c","getPoolsForLpToken(address)":"e1d347c1","getStakingInstanceCount()":"1aea47f0","getStakingInstanceDetails(uint256)":"8d564874","isRegisteredContract(address)":"f1052af5","isUserStaking(address,address)":"006aa5c7","owner()":"8da5cb5b","poolsByLpToken(address,uint256)":"e6b1ca21","registerPoolByLpToken(address,address)":"e61d3a54","renounceOwnership()":"715018a6","stakingInstances(uint256)":"69cae550","totalPools()":"ab3c7e52","totalUsers()":"bff1f9e1","totalValueLockedUSD()":"4172105a","transferOwnership(address)":"f2fde38b","updateGlobalStats()":"49b1fd7b","updateStakingInstance(uint256,bool)":"cc2583b9"}}}}}