{"contracts/MonitoringInterface.sol":{"MonitoringInterface":{"abi":[{"inputs":[{"internalType":"contract StakingManager","name":"_stakingManager","type":"address"}],"stateMutability":"nonpayable","type":"constructor"},{"anonymous":false,"inputs":[{"indexed":true,"internalType":"address","name":"previousOwner","type":"address"},{"indexed":true,"internalType":"address","name":"newOwner","type":"address"}],"name":"OwnershipTransferred","type":"event"},{"anonymous":false,"inputs":[{"indexed":true,"internalType":"address","name":"user","type":"address"},{"indexed":false,"internalType":"uint256","name":"totalStaked","type":"uint256"},{"indexed":false,"internalType":"uint256","name":"totalRewards","type":"uint256"}],"name":"UserDataFetched","type":"event"},{"anonymous":false,"inputs":[{"indexed":true,"internalType":"address","name":"user","type":"address"}],"name":"UserRegistered","type":"event"},{"inputs":[{"internalType":"address","name":"_stakingContract","type":"address"},{"internalType":"uint256","name":"_pid","type":"uint256"}],"name":"getPoolDetails","outputs":[{"internalType":"address","name":"lpToken","type":"address"},{"internalType":"uint256","name":"allocPoint","type":"uint256"},{"internalType":"uint256","name":"totalStaked","type":"uint256"},{"internalType":"bool","name":"isActive","type":"bool"},{"internalType":"uint256","name":"apr","type":"uint256"}],"stateMutability":"view","type":"function"},{"inputs":[{"internalType":"address","name":"_user","type":"address"}],"name":"getUserStakingData","outputs":[{"components":[{"internalType":"address","name":"stakingContract","type":"address"},{"internalType":"uint256","name":"poolId","type":"uint256"},{"internalType":"uint256","name":"amount","type":"uint256"},{"internalType":"uint256","name":"pendingRewards","type":"uint256"},{"internalType":"uint256","name":"lastStakeTime","type":"uint256"},{"internalType":"bool","name":"isActive","type":"bool"}],"internalType":"struct MonitoringInterface.UserStakingData[]","name":"stakingData","type":"tuple[]"},{"internalType":"uint256","name":"totalStakedAmount","type":"uint256"},{"internalType":"uint256","name":"totalPendingRewards","type":"uint256"}],"stateMutability":"nonpayable","type":"function"},{"inputs":[{"internalType":"address","name":"_user","type":"address"}],"name":"getUserSummary","outputs":[{"internalType":"uint256","name":"totalStakingContracts","type":"uint256"},{"internalType":"uint256","name":"totalPools","type":"uint256"},{"internalType":"uint256","name":"totalStaked","type":"uint256"},{"internalType":"uint256","name":"totalRewards","type":"uint256"},{"internalType":"uint256","name":"stakingSince","type":"uint256"}],"stateMutability":"view","type":"function"},{"inputs":[{"internalType":"address","name":"_user","type":"address"},{"internalType":"address","name":"_stakingContract","type":"address"},{"internalType":"uint256","name":"_pid","type":"uint256"}],"name":"isUserStakingInPool","outputs":[{"internalType":"bool","name":"","type":"bool"}],"stateMutability":"view","type":"function"},{"inputs":[],"name":"owner","outputs":[{"internalType":"address","name":"","type":"address"}],"stateMutability":"view","type":"function"},{"inputs":[],"name":"renounceOwnership","outputs":[],"stateMutability":"nonpayable","type":"function"},{"inputs":[],"name":"stakingManager","outputs":[{"internalType":"contract StakingManager","name":"","type":"address"}],"stateMutability":"view","type":"function"},{"inputs":[{"internalType":"address","name":"newOwner","type":"address"}],"name":"transferOwnership","outputs":[],"stateMutability":"nonpayable","type":"function"},{"inputs":[{"internalType":"contract StakingManager","name":"_newManager","type":"address"}],"name":"updateStakingManager","outputs":[],"stateMutability":"nonpayable","type":"function"}],"evm":{"bytecode":{"linkReferences":{},"object":"6080346100a757601f61139c38819003918201601f19168301916001600160401b038311848410176100ac578084926020946040528339810103126100a757516001600160a01b0390818116908190036100a75760005460018060a01b0319903382821617600055604051933391167f8be0079c531659141344cd1fd0a4f28419497f9722a3daafe3b4186f6b6457e0600080a360015416176001556112d990816100c38239f35b600080fd5b634e487b7160e01b600052604160045260246000fdfe608080604052600436101561001357600080fd5b60003560e01c90816322828cc214610fa1575080633f09481e14610e56578063436ec6ef1461089f5780634ba5ab84146105b4578063715018a6146105575780638da5cb5b1461052e5780638fbd0c2d146101eb57806396a1b6b51461015a5763f2fde38b1461008257600080fd5b346101555760203660031901126101555761009b610fc5565b600054906001600160a01b03808316916100b6338414610fdb565b169182156100f5576001600160a01b031916821760009081557f8be0079c531659141344cd1fd0a4f28419497f9722a3daafe3b4186f6b6457e09080a3005b60405162461bcd60e51b815260206004820152603260248201527f4f776e61626c653a206e6f75766561752070726f707269c3a9746169726520656044820152717374206c2761647265737365207ac3a9726f60701b6064820152608490fd5b600080fd5b34610155576020366003190112610155576004356001600160a01b03818116918290036101555761019090600054163314610fdb565b80156101b3576bffffffffffffffffffffffff60a01b6001541617600155600080f35b60405162461bcd60e51b815260206004820152601060248201526f4164726573736520696e76616c69646560801b6044820152606490fd5b3461015557602036600319011261015557610204610fc5565b60008060008060018060a01b0360015416604051956301aea47f60e41b8752602087600481855afa96871561044a576000976104fa575b506000199160005b888110610281575060a097505050600019810361027b57506000925b6040519485526020850152604084015260608301526080820152f35b9261025f565b604051632355921d60e21b815260048101829052600081602481865afa801561044a576000916000916104cd575b506102c4575b506102bf90611091565b610243565b60405162ff815b60e01b81526001600160a01b0385811660048301526020908290602490829086165afa90811561044a57600091610493575b50156102b557939692949598909761031490611091565b604051631302d5eb60e31b81526001600160a01b038781166004830152909490600090869060249082908a165afa94851561044a5760009561046a575b50845161035d9161121e565b60005b8551811015610456576103ab60a089610379848a61122b565b51604051631069f3b560e01b815260048101919091526001600160a01b03909116602482015291829081906044820190565b0381600180851b038c165afa801561044a5760008091600093600091610412575b506103e3575b5050506103de90611091565b610360565b6103f2906103f8939f9c61121e565b9a61121e565b9b8a8110610408575b80806103d2565b99506103de610401565b92505050610438915060a03d60a011610443575b610430818361106f565b810190611255565b9093919250386103cc565b503d610426565b6040513d6000823e3d90fd5b50979450976102bf919996959350906102b5565b61035d91955061048c903d806000833e610484818361106f565b8101906111a4565b9490610351565b90506020813d6020116104c5575b816104ae6020938361106f565b81010312610155576104bf906110ca565b8b6102fd565b3d91506104a1565b90506104ec91503d806000833e6104e4818361106f565b8101906110d7565b50505050919050908b6102af565b9096506020813d602011610526575b816105166020938361106f565b810103126101555751958761023b565b3d9150610509565b34610155576000366003190112610155576000546040516001600160a01b039091168152602090f35b3461015557600036600319011261015557600080546001600160a01b03811690610582338314610fdb565b6001600160a01b03191682557f8be0079c531659141344cd1fd0a4f28419497f9722a3daafe3b4186f6b6457e08280a3005b34610155576040366003190112610155576105cd610fc5565b60015460405163f1052af560e01b81526001600160a01b0392831660048201819052602493602093909290849082908790829087165afa90811561044a5760009161086a575b501561082657604051632f380b3560e01b81528435600482015260c0818681855afa91821561044a576000946000916000936000956107cc575b506040516322b8e72b60e21b81528281600481855afa90811561044a57839060009261079e575b506040516317caf6f160e01b81529192829060049082905afa90811561044a57600091610771575b5080151580610768575b1561075a5783820291808304851490151715610745576106c591611283565b9662a066809788810298818a04148115171561073057633ea80a0002978089046064149015171561071c57506106fd8360a098611283565b945b604051961686528501526040840152151560608301526080820152f35b634e487b7160e01b60009081526011600452fd5b50634e487b7160e01b60009081526011600452fd5b88634e487b7160e01b60005260116004526000fd5b505060a096506000946106ff565b508415156106a6565b90508281813d8311610797575b610788818361106f565b8101031261015557518961069c565b503d61077e565b809250813d83116107c5575b6107b4818361106f565b810103126101555751826004610674565b503d6107aa565b9350935094505060c0813d821161081e575b816107eb60c0938361106f565b81010312610155576107fc816110b6565b90848101519461081360a0608084015193016110ca565b92959192938861064d565b3d91506107de565b60405162461bcd60e51b8152600481018490526017818601527f436f6e74726174206e6f6e20656e72656769737472c3a90000000000000000006044820152606490fd5b90508381813d8311610898575b610881818361106f565b8101031261015557610892906110ca565b85610613565b503d610877565b34610155576020366003190112610155576108b8610fc5565b6001546040516301aea47f60e41b8152916001600160a01b0390911690602083600481855afa92831561044a57600093610e22575b5060009060005b848110610cd657506109058261118c565b91610913604051938461106f565b808352610922601f199161118c565b0160005b818110610c9557505060009360009460009460005b838110610a0f57505050507fe6e2b1193dc22bbdbae028d5c2ff52ae11cd8acfba56564a6533a9f75408d3ce604080519286845285602085015260018060a01b031692a26040519160608084018185528351809152608060208187019501926000915b8383106109b857878088888c602084015260408301520390f35b845180516001600160a01b03168852602081810151818a0152604080830151908a01528184015189850152818301518984015260a09182015115159189019190915260c0909701969094019360019092019161099e565b604051632355921d60e21b815260048101829052600081602481865afa801561044a57600091600091610c70575b50610a52575b50610a4d90611091565b61093b565b60405162ff815b60e01b81526001600160a01b0387811660048301526020908290602490829086165afa90811561044a57600091610c36575b5015610a4357916040979395969491975191631302d5eb60e31b835260018060a01b038816600484015260008360248160018060a01b0388165afa92831561044a57600093610c19575b5060005b8351811015610c0557610b22610aef828661122b565b51604051631069f3b560e01b8152600481018290526001600160a01b038c1660248201529160a090839081906044820190565b0381600180851b038b165afa91821561044a57600091600093600092600091610bdb575b50610b5e575b50505050610b5990611091565b610ad9565b610bcb928c9a9f610bbf610b59979e8e8d610bd19997610bc59760405192610b858461103d565b6001600160a01b03168352602083015260408201879052606082018990526080820152600160a0820152610bb9838361122b565b5261122b565b5061121e565b9d61121e565b96611091565b97908c8080610b4c565b9250509250610bf9915060a03d60a01161044357610430818361106f565b92509390939138610b46565b509496959397909250610a4d915090610a43565b610c2f9193503d806000833e610484818361106f565b918a610ad5565b90506020813d602011610c68575b81610c516020938361106f565b8101031261015557610c62906110ca565b8a610a8b565b3d9150610c44565b9050610c8791503d806000833e6104e4818361106f565b50505050919050908a610a3d565b602090604051610ca48161103d565b60008152600083820152600060408201526000606082015260006080820152600060a082015282828701015201610926565b604051632355921d60e21b8152600481018290526024906000818381895afa801561044a57600091600091610dfd575b50610d1c575b5050610d1790611091565b6108f4565b60405162ff815b60e01b81526001600160a01b0385811660048301819052921692906020818381875afa90811561044a57600091610dc3575b50610d61575b50610d0c565b9060009160409694965180948193631302d5eb60e31b835260048301525afa91821561044a57610d1792610d9f92600091610da8575b50519061121e565b92908680610d5b565b610dbd91503d806000833e610484818361106f565b88610d97565b90506020813d602011610df5575b81610dde6020938361106f565b8101031261015557610def906110ca565b89610d55565b3d9150610dd1565b9050610e1491503d806000833e6104e4818361106f565b505050509190509088610d06565b9092506020813d602011610e4e575b81610e3e6020938361106f565b81010312610155575191836108ed565b3d9150610e31565b3461015557606036600319011261015557610e6f610fc5565b6024356001600160a01b038181169291839003610155576001541691604051809363f1052af560e01b825282600483015281602460209687935afa90811561044a57600091610f6c575b5015610f2e57604051631069f3b560e01b81526044803560048301526001600160a01b039390931660248201529160a09183919082905afa90811561044a57600091610f0b575b506040519015158152f35b610f23915060a03d811161044357610430818361106f565b935050505082610f00565b60405162461bcd60e51b8152600481018490526016602482015275436f6e74726174206e6f6e20656e726567697374726560501b6044820152606490fd5b90508381813d8311610f9a575b610f83818361106f565b8101031261015557610f94906110ca565b84610eb9565b503d610f79565b34610155576000366003190112610155576001546001600160a01b03168152602090f35b600435906001600160a01b038216820361015557565b15610fe257565b60405162461bcd60e51b815260206004820152602d60248201527f4f776e61626c653a206c5f617070656c616e74206e5f65737420706173206c6560448201526c2070726f70726965746169726560981b6064820152608490fd5b60c0810190811067ffffffffffffffff82111761105957604052565b634e487b7160e01b600052604160045260246000fd5b90601f8019910116810190811067ffffffffffffffff82111761105957604052565b60001981146110a05760010190565b634e487b7160e01b600052601160045260246000fd5b51906001600160a01b038216820361015557565b5190811515820361015557565b909160e082840312610155576110ec826110b6565b9260208084015167ffffffffffffffff9081811161015557850183601f820112156101555780519182116110595760405193611131601f8401601f191685018661106f565b8285528383830101116101555760005b82811061117957505090600091830101529161115f604082016110ca565b9160608201519160808101519160c060a083015192015190565b8181018401518582018501528301611141565b67ffffffffffffffff81116110595760051b60200190565b60209081818403126101555780519067ffffffffffffffff821161015557019180601f840112156101555782516111da8161118c565b936111e8604051958661106f565b818552838086019260051b820101928311610155578301905b82821061120f575050505090565b81518152908301908301611201565b919082018092116110a057565b805182101561123f5760209160051b010190565b634e487b7160e01b600052603260045260246000fd5b908160a0910312610155578051916020820151916040810151916112806080606084015193016110ca565b90565b811561128d570490565b634e487b7160e01b600052601260045260246000fdfea2646970667358221220c02e00e9efa1b15be8c555d476c5959e1c0c49818d1e5a045e4267eb27084e2164736f6c63430008140033","opcodes":"PUSH1 0x80 CALLVALUE PUSH2 0xA7 JUMPI PUSH1 0x1F PUSH2 0x139C CODESIZE DUP2 SWAP1 SUB SWAP2 DUP3 ADD PUSH1 0x1F NOT AND DUP4 ADD SWAP2 PUSH1 0x1 PUSH1 0x1 PUSH1 0x40 SHL SUB DUP4 GT DUP5 DUP5 LT OR PUSH2 0xAC JUMPI DUP1 DUP5 SWAP3 PUSH1 0x20 SWAP5 PUSH1 0x40 MSTORE DUP4 CODECOPY DUP2 ADD SUB SLT PUSH2 0xA7 JUMPI MLOAD PUSH1 0x1 PUSH1 0x1 PUSH1 0xA0 SHL SUB SWAP1 DUP2 DUP2 AND SWAP1 DUP2 SWAP1 SUB PUSH2 0xA7 JUMPI PUSH1 0x0 SLOAD PUSH1 0x1 DUP1 PUSH1 0xA0 SHL SUB NOT SWAP1 CALLER DUP3 DUP3 AND OR PUSH1 0x0 SSTORE PUSH1 0x40 MLOAD SWAP4 CALLER SWAP2 AND PUSH32 0x8BE0079C531659141344CD1FD0A4F28419497F9722A3DAAFE3B4186F6B6457E0 PUSH1 0x0 DUP1 LOG3 PUSH1 0x1 SLOAD AND OR PUSH1 0x1 SSTORE PUSH2 0x12D9 SWAP1 DUP2 PUSH2 0xC3 DUP3 CODECOPY RETURN JUMPDEST PUSH1 0x0 DUP1 REVERT JUMPDEST PUSH4 0x4E487B71 PUSH1 0xE0 SHL PUSH1 0x0 MSTORE PUSH1 0x41 PUSH1 0x4 MSTORE PUSH1 0x24 PUSH1 0x0 REVERT INVALID PUSH1 0x80 DUP1 PUSH1 0x40 MSTORE PUSH1 0x4 CALLDATASIZE LT ISZERO PUSH2 0x13 JUMPI PUSH1 0x0 DUP1 REVERT JUMPDEST PUSH1 0x0 CALLDATALOAD PUSH1 0xE0 SHR SWAP1 DUP2 PUSH4 0x22828CC2 EQ PUSH2 0xFA1 JUMPI POP DUP1 PUSH4 0x3F09481E EQ PUSH2 0xE56 JUMPI DUP1 PUSH4 0x436EC6EF EQ PUSH2 0x89F JUMPI DUP1 PUSH4 0x4BA5AB84 EQ PUSH2 0x5B4 JUMPI DUP1 PUSH4 0x715018A6 EQ PUSH2 0x557 JUMPI DUP1 PUSH4 0x8DA5CB5B EQ PUSH2 0x52E JUMPI DUP1 PUSH4 0x8FBD0C2D EQ PUSH2 0x1EB JUMPI DUP1 PUSH4 0x96A1B6B5 EQ PUSH2 0x15A JUMPI PUSH4 0xF2FDE38B EQ PUSH2 0x82 JUMPI PUSH1 0x0 DUP1 REVERT JUMPDEST CALLVALUE PUSH2 0x155 JUMPI PUSH1 0x20 CALLDATASIZE PUSH1 0x3 NOT ADD SLT PUSH2 0x155 JUMPI PUSH2 0x9B PUSH2 0xFC5 JUMP JUMPDEST PUSH1 0x0 SLOAD SWAP1 PUSH1 0x1 PUSH1 0x1 PUSH1 0xA0 SHL SUB DUP1 DUP4 AND SWAP2 PUSH2 0xB6 CALLER DUP5 EQ PUSH2 0xFDB JUMP JUMPDEST AND SWAP2 DUP3 ISZERO PUSH2 0xF5 JUMPI PUSH1 0x1 PUSH1 0x1 PUSH1 0xA0 SHL SUB NOT AND DUP3 OR PUSH1 0x0 SWAP1 DUP2 SSTORE PUSH32 0x8BE0079C531659141344CD1FD0A4F28419497F9722A3DAAFE3B4186F6B6457E0 SWAP1 DUP1 LOG3 STOP JUMPDEST PUSH1 0x40 MLOAD PUSH3 0x461BCD PUSH1 0xE5 SHL DUP2 MSTORE PUSH1 0x20 PUSH1 0x4 DUP3 ADD MSTORE PUSH1 0x32 PUSH1 0x24 DUP3 ADD MSTORE PUSH32 0x4F776E61626C653A206E6F75766561752070726F707269C3A974616972652065 PUSH1 0x44 DUP3 ADD MSTORE PUSH18 0x7374206C2761647265737365207AC3A9726F PUSH1 0x70 SHL PUSH1 0x64 DUP3 ADD MSTORE PUSH1 0x84 SWAP1 REVERT JUMPDEST PUSH1 0x0 DUP1 REVERT JUMPDEST CALLVALUE PUSH2 0x155 JUMPI PUSH1 0x20 CALLDATASIZE PUSH1 0x3 NOT ADD SLT PUSH2 0x155 JUMPI PUSH1 0x4 CALLDATALOAD PUSH1 0x1 PUSH1 0x1 PUSH1 0xA0 SHL SUB DUP2 DUP2 AND SWAP2 DUP3 SWAP1 SUB PUSH2 0x155 JUMPI PUSH2 0x190 SWAP1 PUSH1 0x0 SLOAD AND CALLER EQ PUSH2 0xFDB JUMP JUMPDEST DUP1 ISZERO PUSH2 0x1B3 JUMPI PUSH12 0xFFFFFFFFFFFFFFFFFFFFFFFF PUSH1 0xA0 SHL PUSH1 0x1 SLOAD AND OR PUSH1 0x1 SSTORE PUSH1 0x0 DUP1 RETURN JUMPDEST PUSH1 0x40 MLOAD PUSH3 0x461BCD PUSH1 0xE5 SHL DUP2 MSTORE PUSH1 0x20 PUSH1 0x4 DUP3 ADD MSTORE PUSH1 0x10 PUSH1 0x24 DUP3 ADD MSTORE PUSH16 0x4164726573736520696E76616C696465 PUSH1 0x80 SHL PUSH1 0x44 DUP3 ADD MSTORE PUSH1 0x64 SWAP1 REVERT JUMPDEST CALLVALUE PUSH2 0x155 JUMPI PUSH1 0x20 CALLDATASIZE PUSH1 0x3 NOT ADD SLT PUSH2 0x155 JUMPI PUSH2 0x204 PUSH2 0xFC5 JUMP JUMPDEST PUSH1 0x0 DUP1 PUSH1 0x0 DUP1 PUSH1 0x1 DUP1 PUSH1 0xA0 SHL SUB PUSH1 0x1 SLOAD AND PUSH1 0x40 MLOAD SWAP6 PUSH4 0x1AEA47F PUSH1 0xE4 SHL DUP8 MSTORE PUSH1 0x20 DUP8 PUSH1 0x4 DUP2 DUP6 GAS STATICCALL SWAP7 DUP8 ISZERO PUSH2 0x44A JUMPI PUSH1 0x0 SWAP8 PUSH2 0x4FA JUMPI JUMPDEST POP PUSH1 0x0 NOT SWAP2 PUSH1 0x0 JUMPDEST DUP9 DUP2 LT PUSH2 0x281 JUMPI POP PUSH1 0xA0 SWAP8 POP POP POP PUSH1 0x0 NOT DUP2 SUB PUSH2 0x27B JUMPI POP PUSH1 0x0 SWAP3 JUMPDEST PUSH1 0x40 MLOAD SWAP5 DUP6 MSTORE PUSH1 0x20 DUP6 ADD MSTORE PUSH1 0x40 DUP5 ADD MSTORE PUSH1 0x60 DUP4 ADD MSTORE PUSH1 0x80 DUP3 ADD MSTORE RETURN JUMPDEST SWAP3 PUSH2 0x25F JUMP JUMPDEST PUSH1 0x40 MLOAD PUSH4 0x2355921D PUSH1 0xE2 SHL DUP2 MSTORE PUSH1 0x4 DUP2 ADD DUP3 SWAP1 MSTORE PUSH1 0x0 DUP2 PUSH1 0x24 DUP2 DUP7 GAS STATICCALL DUP1 ISZERO PUSH2 0x44A JUMPI PUSH1 0x0 SWAP2 PUSH1 0x0 SWAP2 PUSH2 0x4CD JUMPI JUMPDEST POP PUSH2 0x2C4 JUMPI JUMPDEST POP PUSH2 0x2BF SWAP1 PUSH2 0x1091 JUMP JUMPDEST PUSH2 0x243 JUMP JUMPDEST PUSH1 0x40 MLOAD PUSH3 0xFF815B PUSH1 0xE0 SHL DUP2 MSTORE PUSH1 0x1 PUSH1 0x1 PUSH1 0xA0 SHL SUB DUP6 DUP2 AND PUSH1 0x4 DUP4 ADD MSTORE PUSH1 0x20 SWAP1 DUP3 SWAP1 PUSH1 0x24 SWAP1 DUP3 SWAP1 DUP7 AND GAS STATICCALL SWAP1 DUP2 ISZERO PUSH2 0x44A JUMPI PUSH1 0x0 SWAP2 PUSH2 0x493 JUMPI JUMPDEST POP ISZERO PUSH2 0x2B5 JUMPI SWAP4 SWAP7 SWAP3 SWAP5 SWAP6 SWAP9 SWAP1 SWAP8 PUSH2 0x314 SWAP1 PUSH2 0x1091 JUMP JUMPDEST PUSH1 0x40 MLOAD PUSH4 0x1302D5EB PUSH1 0xE3 SHL DUP2 MSTORE PUSH1 0x1 PUSH1 0x1 PUSH1 0xA0 SHL SUB DUP8 DUP2 AND PUSH1 0x4 DUP4 ADD MSTORE SWAP1 SWAP5 SWAP1 PUSH1 0x0 SWAP1 DUP7 SWAP1 PUSH1 0x24 SWAP1 DUP3 SWAP1 DUP11 AND GAS STATICCALL SWAP5 DUP6 ISZERO PUSH2 0x44A JUMPI PUSH1 0x0 SWAP6 PUSH2 0x46A JUMPI JUMPDEST POP DUP5 MLOAD PUSH2 0x35D SWAP2 PUSH2 0x121E JUMP JUMPDEST PUSH1 0x0 JUMPDEST DUP6 MLOAD DUP2 LT ISZERO PUSH2 0x456 JUMPI PUSH2 0x3AB PUSH1 0xA0 DUP10 PUSH2 0x379 DUP5 DUP11 PUSH2 0x122B JUMP JUMPDEST MLOAD PUSH1 0x40 MLOAD PUSH4 0x1069F3B5 PUSH1 0xE0 SHL DUP2 MSTORE PUSH1 0x4 DUP2 ADD SWAP2 SWAP1 SWAP2 MSTORE PUSH1 0x1 PUSH1 0x1 PUSH1 0xA0 SHL SUB SWAP1 SWAP2 AND PUSH1 0x24 DUP3 ADD MSTORE SWAP2 DUP3 SWAP1 DUP2 SWAP1 PUSH1 0x44 DUP3 ADD SWAP1 JUMP JUMPDEST SUB DUP2 PUSH1 0x1 DUP1 DUP6 SHL SUB DUP13 AND GAS STATICCALL DUP1 ISZERO PUSH2 0x44A JUMPI PUSH1 0x0 DUP1 SWAP2 PUSH1 0x0 SWAP4 PUSH1 0x0 SWAP2 PUSH2 0x412 JUMPI JUMPDEST POP PUSH2 0x3E3 JUMPI JUMPDEST POP POP POP PUSH2 0x3DE SWAP1 PUSH2 0x1091 JUMP JUMPDEST PUSH2 0x360 JUMP JUMPDEST PUSH2 0x3F2 SWAP1 PUSH2 0x3F8 SWAP4 SWAP16 SWAP13 PUSH2 0x121E JUMP JUMPDEST SWAP11 PUSH2 0x121E JUMP JUMPDEST SWAP12 DUP11 DUP2 LT PUSH2 0x408 JUMPI JUMPDEST DUP1 DUP1 PUSH2 0x3D2 JUMP JUMPDEST SWAP10 POP PUSH2 0x3DE PUSH2 0x401 JUMP JUMPDEST SWAP3 POP POP POP PUSH2 0x438 SWAP2 POP PUSH1 0xA0 RETURNDATASIZE PUSH1 0xA0 GT PUSH2 0x443 JUMPI JUMPDEST PUSH2 0x430 DUP2 DUP4 PUSH2 0x106F JUMP JUMPDEST DUP2 ADD SWAP1 PUSH2 0x1255 JUMP JUMPDEST SWAP1 SWAP4 SWAP2 SWAP3 POP CODESIZE PUSH2 0x3CC JUMP JUMPDEST POP RETURNDATASIZE PUSH2 0x426 JUMP JUMPDEST PUSH1 0x40 MLOAD RETURNDATASIZE PUSH1 0x0 DUP3 RETURNDATACOPY RETURNDATASIZE SWAP1 REVERT JUMPDEST POP SWAP8 SWAP5 POP SWAP8 PUSH2 0x2BF SWAP2 SWAP10 SWAP7 SWAP6 SWAP4 POP SWAP1 PUSH2 0x2B5 JUMP JUMPDEST PUSH2 0x35D SWAP2 SWAP6 POP PUSH2 0x48C SWAP1 RETURNDATASIZE DUP1 PUSH1 0x0 DUP4 RETURNDATACOPY PUSH2 0x484 DUP2 DUP4 PUSH2 0x106F JUMP JUMPDEST DUP2 ADD SWAP1 PUSH2 0x11A4 JUMP JUMPDEST SWAP5 SWAP1 PUSH2 0x351 JUMP JUMPDEST SWAP1 POP PUSH1 0x20 DUP2 RETURNDATASIZE PUSH1 0x20 GT PUSH2 0x4C5 JUMPI JUMPDEST DUP2 PUSH2 0x4AE PUSH1 0x20 SWAP4 DUP4 PUSH2 0x106F JUMP JUMPDEST DUP2 ADD SUB SLT PUSH2 0x155 JUMPI PUSH2 0x4BF SWAP1 PUSH2 0x10CA JUMP JUMPDEST DUP12 PUSH2 0x2FD JUMP JUMPDEST RETURNDATASIZE SWAP2 POP PUSH2 0x4A1 JUMP JUMPDEST SWAP1 POP PUSH2 0x4EC SWAP2 POP RETURNDATASIZE DUP1 PUSH1 0x0 DUP4 RETURNDATACOPY PUSH2 0x4E4 DUP2 DUP4 PUSH2 0x106F JUMP JUMPDEST DUP2 ADD SWAP1 PUSH2 0x10D7 JUMP JUMPDEST POP POP POP POP SWAP2 SWAP1 POP SWAP1 DUP12 PUSH2 0x2AF JUMP JUMPDEST SWAP1 SWAP7 POP PUSH1 0x20 DUP2 RETURNDATASIZE PUSH1 0x20 GT PUSH2 0x526 JUMPI JUMPDEST DUP2 PUSH2 0x516 PUSH1 0x20 SWAP4 DUP4 PUSH2 0x106F JUMP JUMPDEST DUP2 ADD SUB SLT PUSH2 0x155 JUMPI MLOAD SWAP6 DUP8 PUSH2 0x23B JUMP JUMPDEST RETURNDATASIZE SWAP2 POP PUSH2 0x509 JUMP JUMPDEST CALLVALUE PUSH2 0x155 JUMPI PUSH1 0x0 CALLDATASIZE PUSH1 0x3 NOT ADD SLT PUSH2 0x155 JUMPI PUSH1 0x0 SLOAD PUSH1 0x40 MLOAD PUSH1 0x1 PUSH1 0x1 PUSH1 0xA0 SHL SUB SWAP1 SWAP2 AND DUP2 MSTORE PUSH1 0x20 SWAP1 RETURN JUMPDEST CALLVALUE PUSH2 0x155 JUMPI PUSH1 0x0 CALLDATASIZE PUSH1 0x3 NOT ADD SLT PUSH2 0x155 JUMPI PUSH1 0x0 DUP1 SLOAD PUSH1 0x1 PUSH1 0x1 PUSH1 0xA0 SHL SUB DUP2 AND SWAP1 PUSH2 0x582 CALLER DUP4 EQ PUSH2 0xFDB JUMP JUMPDEST PUSH1 0x1 PUSH1 0x1 PUSH1 0xA0 SHL SUB NOT AND DUP3 SSTORE PUSH32 0x8BE0079C531659141344CD1FD0A4F28419497F9722A3DAAFE3B4186F6B6457E0 DUP3 DUP1 LOG3 STOP JUMPDEST CALLVALUE PUSH2 0x155 JUMPI PUSH1 0x40 CALLDATASIZE PUSH1 0x3 NOT ADD SLT PUSH2 0x155 JUMPI PUSH2 0x5CD PUSH2 0xFC5 JUMP JUMPDEST PUSH1 0x1 SLOAD PUSH1 0x40 MLOAD PUSH4 0xF1052AF5 PUSH1 0xE0 SHL DUP2 MSTORE PUSH1 0x1 PUSH1 0x1 PUSH1 0xA0 SHL SUB SWAP3 DUP4 AND PUSH1 0x4 DUP3 ADD DUP2 SWAP1 MSTORE PUSH1 0x24 SWAP4 PUSH1 0x20 SWAP4 SWAP1 SWAP3 SWAP1 DUP5 SWAP1 DUP3 SWAP1 DUP8 SWAP1 DUP3 SWAP1 DUP8 AND GAS STATICCALL SWAP1 DUP2 ISZERO PUSH2 0x44A JUMPI PUSH1 0x0 SWAP2 PUSH2 0x86A JUMPI JUMPDEST POP ISZERO PUSH2 0x826 JUMPI PUSH1 0x40 MLOAD PUSH4 0x2F380B35 PUSH1 0xE0 SHL DUP2 MSTORE DUP5 CALLDATALOAD PUSH1 0x4 DUP3 ADD MSTORE PUSH1 0xC0 DUP2 DUP7 DUP2 DUP6 GAS STATICCALL SWAP2 DUP3 ISZERO PUSH2 0x44A JUMPI PUSH1 0x0 SWAP5 PUSH1 0x0 SWAP2 PUSH1 0x0 SWAP4 PUSH1 0x0 SWAP6 PUSH2 0x7CC JUMPI JUMPDEST POP PUSH1 0x40 MLOAD PUSH4 0x22B8E72B PUSH1 0xE2 SHL DUP2 MSTORE DUP3 DUP2 PUSH1 0x4 DUP2 DUP6 GAS STATICCALL SWAP1 DUP2 ISZERO PUSH2 0x44A JUMPI DUP4 SWAP1 PUSH1 0x0 SWAP3 PUSH2 0x79E JUMPI JUMPDEST POP PUSH1 0x40 MLOAD PUSH4 0x17CAF6F1 PUSH1 0xE0 SHL DUP2 MSTORE SWAP2 SWAP3 DUP3 SWAP1 PUSH1 0x4 SWAP1 DUP3 SWAP1 GAS STATICCALL SWAP1 DUP2 ISZERO PUSH2 0x44A JUMPI PUSH1 0x0 SWAP2 PUSH2 0x771 JUMPI JUMPDEST POP DUP1 ISZERO ISZERO DUP1 PUSH2 0x768 JUMPI JUMPDEST ISZERO PUSH2 0x75A JUMPI DUP4 DUP3 MUL SWAP2 DUP1 DUP4 DIV DUP6 EQ SWAP1 ISZERO OR ISZERO PUSH2 0x745 JUMPI PUSH2 0x6C5 SWAP2 PUSH2 0x1283 JUMP JUMPDEST SWAP7 PUSH3 0xA06680 SWAP8 DUP9 DUP2 MUL SWAP9 DUP2 DUP11 DIV EQ DUP2 ISZERO OR ISZERO PUSH2 0x730 JUMPI PUSH4 0x3EA80A00 MUL SWAP8 DUP1 DUP10 DIV PUSH1 0x64 EQ SWAP1 ISZERO OR ISZERO PUSH2 0x71C JUMPI POP PUSH2 0x6FD DUP4 PUSH1 0xA0 SWAP9 PUSH2 0x1283 JUMP JUMPDEST SWAP5 JUMPDEST PUSH1 0x40 MLOAD SWAP7 AND DUP7 MSTORE DUP6 ADD MSTORE PUSH1 0x40 DUP5 ADD MSTORE ISZERO ISZERO PUSH1 0x60 DUP4 ADD MSTORE PUSH1 0x80 DUP3 ADD MSTORE RETURN JUMPDEST PUSH4 0x4E487B71 PUSH1 0xE0 SHL PUSH1 0x0 SWAP1 DUP2 MSTORE PUSH1 0x11 PUSH1 0x4 MSTORE REVERT JUMPDEST POP PUSH4 0x4E487B71 PUSH1 0xE0 SHL PUSH1 0x0 SWAP1 DUP2 MSTORE PUSH1 0x11 PUSH1 0x4 MSTORE REVERT JUMPDEST DUP9 PUSH4 0x4E487B71 PUSH1 0xE0 SHL PUSH1 0x0 MSTORE PUSH1 0x11 PUSH1 0x4 MSTORE PUSH1 0x0 REVERT JUMPDEST POP POP PUSH1 0xA0 SWAP7 POP PUSH1 0x0 SWAP5 PUSH2 0x6FF JUMP JUMPDEST POP DUP5 ISZERO ISZERO PUSH2 0x6A6 JUMP JUMPDEST SWAP1 POP DUP3 DUP2 DUP2 RETURNDATASIZE DUP4 GT PUSH2 0x797 JUMPI JUMPDEST PUSH2 0x788 DUP2 DUP4 PUSH2 0x106F JUMP JUMPDEST DUP2 ADD SUB SLT PUSH2 0x155 JUMPI MLOAD DUP10 PUSH2 0x69C JUMP JUMPDEST POP RETURNDATASIZE PUSH2 0x77E JUMP JUMPDEST DUP1 SWAP3 POP DUP2 RETURNDATASIZE DUP4 GT PUSH2 0x7C5 JUMPI JUMPDEST PUSH2 0x7B4 DUP2 DUP4 PUSH2 0x106F JUMP JUMPDEST DUP2 ADD SUB SLT PUSH2 0x155 JUMPI MLOAD DUP3 PUSH1 0x4 PUSH2 0x674 JUMP JUMPDEST POP RETURNDATASIZE PUSH2 0x7AA JUMP JUMPDEST SWAP4 POP SWAP4 POP SWAP5 POP POP PUSH1 0xC0 DUP2 RETURNDATASIZE DUP3 GT PUSH2 0x81E JUMPI JUMPDEST DUP2 PUSH2 0x7EB PUSH1 0xC0 SWAP4 DUP4 PUSH2 0x106F JUMP JUMPDEST DUP2 ADD SUB SLT PUSH2 0x155 JUMPI PUSH2 0x7FC DUP2 PUSH2 0x10B6 JUMP JUMPDEST SWAP1 DUP5 DUP2 ADD MLOAD SWAP5 PUSH2 0x813 PUSH1 0xA0 PUSH1 0x80 DUP5 ADD MLOAD SWAP4 ADD PUSH2 0x10CA JUMP JUMPDEST SWAP3 SWAP6 SWAP2 SWAP3 SWAP4 DUP9 PUSH2 0x64D JUMP JUMPDEST RETURNDATASIZE SWAP2 POP PUSH2 0x7DE JUMP JUMPDEST PUSH1 0x40 MLOAD PUSH3 0x461BCD PUSH1 0xE5 SHL DUP2 MSTORE PUSH1 0x4 DUP2 ADD DUP5 SWAP1 MSTORE PUSH1 0x17 DUP2 DUP7 ADD MSTORE PUSH32 0x436F6E74726174206E6F6E20656E72656769737472C3A9000000000000000000 PUSH1 0x44 DUP3 ADD MSTORE PUSH1 0x64 SWAP1 REVERT JUMPDEST SWAP1 POP DUP4 DUP2 DUP2 RETURNDATASIZE DUP4 GT PUSH2 0x898 JUMPI JUMPDEST PUSH2 0x881 DUP2 DUP4 PUSH2 0x106F JUMP JUMPDEST DUP2 ADD SUB SLT PUSH2 0x155 JUMPI PUSH2 0x892 SWAP1 PUSH2 0x10CA JUMP JUMPDEST DUP6 PUSH2 0x613 JUMP JUMPDEST POP RETURNDATASIZE PUSH2 0x877 JUMP JUMPDEST CALLVALUE PUSH2 0x155 JUMPI PUSH1 0x20 CALLDATASIZE PUSH1 0x3 NOT ADD SLT PUSH2 0x155 JUMPI PUSH2 0x8B8 PUSH2 0xFC5 JUMP JUMPDEST PUSH1 0x1 SLOAD PUSH1 0x40 MLOAD PUSH4 0x1AEA47F PUSH1 0xE4 SHL DUP2 MSTORE SWAP2 PUSH1 0x1 PUSH1 0x1 PUSH1 0xA0 SHL SUB SWAP1 SWAP2 AND SWAP1 PUSH1 0x20 DUP4 PUSH1 0x4 DUP2 DUP6 GAS STATICCALL SWAP3 DUP4 ISZERO PUSH2 0x44A JUMPI PUSH1 0x0 SWAP4 PUSH2 0xE22 JUMPI JUMPDEST POP PUSH1 0x0 SWAP1 PUSH1 0x0 JUMPDEST DUP5 DUP2 LT PUSH2 0xCD6 JUMPI POP PUSH2 0x905 DUP3 PUSH2 0x118C JUMP JUMPDEST SWAP2 PUSH2 0x913 PUSH1 0x40 MLOAD SWAP4 DUP5 PUSH2 0x106F JUMP JUMPDEST DUP1 DUP4 MSTORE PUSH2 0x922 PUSH1 0x1F NOT SWAP2 PUSH2 0x118C JUMP JUMPDEST ADD PUSH1 0x0 JUMPDEST DUP2 DUP2 LT PUSH2 0xC95 JUMPI POP POP PUSH1 0x0 SWAP4 PUSH1 0x0 SWAP5 PUSH1 0x0 SWAP5 PUSH1 0x0 JUMPDEST DUP4 DUP2 LT PUSH2 0xA0F JUMPI POP POP POP POP PUSH32 0xE6E2B1193DC22BBDBAE028D5C2FF52AE11CD8ACFBA56564A6533A9F75408D3CE PUSH1 0x40 DUP1 MLOAD SWAP3 DUP7 DUP5 MSTORE DUP6 PUSH1 0x20 DUP6 ADD MSTORE PUSH1 0x1 DUP1 PUSH1 0xA0 SHL SUB AND SWAP3 LOG2 PUSH1 0x40 MLOAD SWAP2 PUSH1 0x60 DUP1 DUP5 ADD DUP2 DUP6 MSTORE DUP4 MLOAD DUP1 SWAP2 MSTORE PUSH1 0x80 PUSH1 0x20 DUP2 DUP8 ADD SWAP6 ADD SWAP3 PUSH1 0x0 SWAP2 JUMPDEST DUP4 DUP4 LT PUSH2 0x9B8 JUMPI DUP8 DUP1 DUP9 DUP9 DUP13 PUSH1 0x20 DUP5 ADD MSTORE PUSH1 0x40 DUP4 ADD MSTORE SUB SWAP1 RETURN JUMPDEST DUP5 MLOAD DUP1 MLOAD PUSH1 0x1 PUSH1 0x1 PUSH1 0xA0 SHL SUB AND DUP9 MSTORE PUSH1 0x20 DUP2 DUP2 ADD MLOAD DUP2 DUP11 ADD MSTORE PUSH1 0x40 DUP1 DUP4 ADD MLOAD SWAP1 DUP11 ADD MSTORE DUP2 DUP5 ADD MLOAD DUP10 DUP6 ADD MSTORE DUP2 DUP4 ADD MLOAD DUP10 DUP5 ADD MSTORE PUSH1 0xA0 SWAP2 DUP3 ADD MLOAD ISZERO ISZERO SWAP2 DUP10 ADD SWAP2 SWAP1 SWAP2 MSTORE PUSH1 0xC0 SWAP1 SWAP8 ADD SWAP7 SWAP1 SWAP5 ADD SWAP4 PUSH1 0x1 SWAP1 SWAP3 ADD SWAP2 PUSH2 0x99E JUMP JUMPDEST PUSH1 0x40 MLOAD PUSH4 0x2355921D PUSH1 0xE2 SHL DUP2 MSTORE PUSH1 0x4 DUP2 ADD DUP3 SWAP1 MSTORE PUSH1 0x0 DUP2 PUSH1 0x24 DUP2 DUP7 GAS STATICCALL DUP1 ISZERO PUSH2 0x44A JUMPI PUSH1 0x0 SWAP2 PUSH1 0x0 SWAP2 PUSH2 0xC70 JUMPI JUMPDEST POP PUSH2 0xA52 JUMPI JUMPDEST POP PUSH2 0xA4D SWAP1 PUSH2 0x1091 JUMP JUMPDEST PUSH2 0x93B JUMP JUMPDEST PUSH1 0x40 MLOAD PUSH3 0xFF815B PUSH1 0xE0 SHL DUP2 MSTORE PUSH1 0x1 PUSH1 0x1 PUSH1 0xA0 SHL SUB DUP8 DUP2 AND PUSH1 0x4 DUP4 ADD MSTORE PUSH1 0x20 SWAP1 DUP3 SWAP1 PUSH1 0x24 SWAP1 DUP3 SWAP1 DUP7 AND GAS STATICCALL SWAP1 DUP2 ISZERO PUSH2 0x44A JUMPI PUSH1 0x0 SWAP2 PUSH2 0xC36 JUMPI JUMPDEST POP ISZERO PUSH2 0xA43 JUMPI SWAP2 PUSH1 0x40 SWAP8 SWAP4 SWAP6 SWAP7 SWAP5 SWAP2 SWAP8 MLOAD SWAP2 PUSH4 0x1302D5EB PUSH1 0xE3 SHL DUP4 MSTORE PUSH1 0x1 DUP1 PUSH1 0xA0 SHL SUB DUP9 AND PUSH1 0x4 DUP5 ADD MSTORE PUSH1 0x0 DUP4 PUSH1 0x24 DUP2 PUSH1 0x1 DUP1 PUSH1 0xA0 SHL SUB DUP9 AND GAS STATICCALL SWAP3 DUP4 ISZERO PUSH2 0x44A JUMPI PUSH1 0x0 SWAP4 PUSH2 0xC19 JUMPI JUMPDEST POP PUSH1 0x0 JUMPDEST DUP4 MLOAD DUP2 LT ISZERO PUSH2 0xC05 JUMPI PUSH2 0xB22 PUSH2 0xAEF DUP3 DUP7 PUSH2 0x122B JUMP JUMPDEST MLOAD PUSH1 0x40 MLOAD PUSH4 0x1069F3B5 PUSH1 0xE0 SHL DUP2 MSTORE PUSH1 0x4 DUP2 ADD DUP3 SWAP1 MSTORE PUSH1 0x1 PUSH1 0x1 PUSH1 0xA0 SHL SUB DUP13 AND PUSH1 0x24 DUP3 ADD MSTORE SWAP2 PUSH1 0xA0 SWAP1 DUP4 SWAP1 DUP2 SWAP1 PUSH1 0x44 DUP3 ADD SWAP1 JUMP JUMPDEST SUB DUP2 PUSH1 0x1 DUP1 DUP6 SHL SUB DUP12 AND GAS STATICCALL SWAP2 DUP3 ISZERO PUSH2 0x44A JUMPI PUSH1 0x0 SWAP2 PUSH1 0x0 SWAP4 PUSH1 0x0 SWAP3 PUSH1 0x0 SWAP2 PUSH2 0xBDB JUMPI JUMPDEST POP PUSH2 0xB5E JUMPI JUMPDEST POP POP POP POP PUSH2 0xB59 SWAP1 PUSH2 0x1091 JUMP JUMPDEST PUSH2 0xAD9 JUMP JUMPDEST PUSH2 0xBCB SWAP3 DUP13 SWAP11 SWAP16 PUSH2 0xBBF PUSH2 0xB59 SWAP8 SWAP15 DUP15 DUP14 PUSH2 0xBD1 SWAP10 SWAP8 PUSH2 0xBC5 SWAP8 PUSH1 0x40 MLOAD SWAP3 PUSH2 0xB85 DUP5 PUSH2 0x103D JUMP JUMPDEST PUSH1 0x1 PUSH1 0x1 PUSH1 0xA0 SHL SUB AND DUP4 MSTORE PUSH1 0x20 DUP4 ADD MSTORE PUSH1 0x40 DUP3 ADD DUP8 SWAP1 MSTORE PUSH1 0x60 DUP3 ADD DUP10 SWAP1 MSTORE PUSH1 0x80 DUP3 ADD MSTORE PUSH1 0x1 PUSH1 0xA0 DUP3 ADD MSTORE PUSH2 0xBB9 DUP4 DUP4 PUSH2 0x122B JUMP JUMPDEST MSTORE PUSH2 0x122B JUMP JUMPDEST POP PUSH2 0x121E JUMP JUMPDEST SWAP14 PUSH2 0x121E JUMP JUMPDEST SWAP7 PUSH2 0x1091 JUMP JUMPDEST SWAP8 SWAP1 DUP13 DUP1 DUP1 PUSH2 0xB4C JUMP JUMPDEST SWAP3 POP POP SWAP3 POP PUSH2 0xBF9 SWAP2 POP PUSH1 0xA0 RETURNDATASIZE PUSH1 0xA0 GT PUSH2 0x443 JUMPI PUSH2 0x430 DUP2 DUP4 PUSH2 0x106F JUMP JUMPDEST SWAP3 POP SWAP4 SWAP1 SWAP4 SWAP2 CODESIZE PUSH2 0xB46 JUMP JUMPDEST POP SWAP5 SWAP7 SWAP6 SWAP4 SWAP8 SWAP1 SWAP3 POP PUSH2 0xA4D SWAP2 POP SWAP1 PUSH2 0xA43 JUMP JUMPDEST PUSH2 0xC2F SWAP2 SWAP4 POP RETURNDATASIZE DUP1 PUSH1 0x0 DUP4 RETURNDATACOPY PUSH2 0x484 DUP2 DUP4 PUSH2 0x106F JUMP JUMPDEST SWAP2 DUP11 PUSH2 0xAD5 JUMP JUMPDEST SWAP1 POP PUSH1 0x20 DUP2 RETURNDATASIZE PUSH1 0x20 GT PUSH2 0xC68 JUMPI JUMPDEST DUP2 PUSH2 0xC51 PUSH1 0x20 SWAP4 DUP4 PUSH2 0x106F JUMP JUMPDEST DUP2 ADD SUB SLT PUSH2 0x155 JUMPI PUSH2 0xC62 SWAP1 PUSH2 0x10CA JUMP JUMPDEST DUP11 PUSH2 0xA8B JUMP JUMPDEST RETURNDATASIZE SWAP2 POP PUSH2 0xC44 JUMP JUMPDEST SWAP1 POP PUSH2 0xC87 SWAP2 POP RETURNDATASIZE DUP1 PUSH1 0x0 DUP4 RETURNDATACOPY PUSH2 0x4E4 DUP2 DUP4 PUSH2 0x106F JUMP JUMPDEST POP POP POP POP SWAP2 SWAP1 POP SWAP1 DUP11 PUSH2 0xA3D JUMP JUMPDEST PUSH1 0x20 SWAP1 PUSH1 0x40 MLOAD PUSH2 0xCA4 DUP2 PUSH2 0x103D JUMP JUMPDEST PUSH1 0x0 DUP2 MSTORE PUSH1 0x0 DUP4 DUP3 ADD MSTORE PUSH1 0x0 PUSH1 0x40 DUP3 ADD MSTORE PUSH1 0x0 PUSH1 0x60 DUP3 ADD MSTORE PUSH1 0x0 PUSH1 0x80 DUP3 ADD MSTORE PUSH1 0x0 PUSH1 0xA0 DUP3 ADD MSTORE DUP3 DUP3 DUP8 ADD ADD MSTORE ADD PUSH2 0x926 JUMP JUMPDEST PUSH1 0x40 MLOAD PUSH4 0x2355921D PUSH1 0xE2 SHL DUP2 MSTORE PUSH1 0x4 DUP2 ADD DUP3 SWAP1 MSTORE PUSH1 0x24 SWAP1 PUSH1 0x0 DUP2 DUP4 DUP2 DUP10 GAS STATICCALL DUP1 ISZERO PUSH2 0x44A JUMPI PUSH1 0x0 SWAP2 PUSH1 0x0 SWAP2 PUSH2 0xDFD JUMPI JUMPDEST POP PUSH2 0xD1C JUMPI JUMPDEST POP POP PUSH2 0xD17 SWAP1 PUSH2 0x1091 JUMP JUMPDEST PUSH2 0x8F4 JUMP JUMPDEST PUSH1 0x40 MLOAD PUSH3 0xFF815B PUSH1 0xE0 SHL DUP2 MSTORE PUSH1 0x1 PUSH1 0x1 PUSH1 0xA0 SHL SUB DUP6 DUP2 AND PUSH1 0x4 DUP4 ADD DUP2 SWAP1 MSTORE SWAP3 AND SWAP3 SWAP1 PUSH1 0x20 DUP2 DUP4 DUP2 DUP8 GAS STATICCALL SWAP1 DUP2 ISZERO PUSH2 0x44A JUMPI PUSH1 0x0 SWAP2 PUSH2 0xDC3 JUMPI JUMPDEST POP PUSH2 0xD61 JUMPI JUMPDEST POP PUSH2 0xD0C JUMP JUMPDEST SWAP1 PUSH1 0x0 SWAP2 PUSH1 0x40 SWAP7 SWAP5 SWAP7 MLOAD DUP1 SWAP5 DUP2 SWAP4 PUSH4 0x1302D5EB PUSH1 0xE3 SHL DUP4 MSTORE PUSH1 0x4 DUP4 ADD MSTORE GAS STATICCALL SWAP2 DUP3 ISZERO PUSH2 0x44A JUMPI PUSH2 0xD17 SWAP3 PUSH2 0xD9F SWAP3 PUSH1 0x0 SWAP2 PUSH2 0xDA8 JUMPI JUMPDEST POP MLOAD SWAP1 PUSH2 0x121E JUMP JUMPDEST SWAP3 SWAP1 DUP7 DUP1 PUSH2 0xD5B JUMP JUMPDEST PUSH2 0xDBD SWAP2 POP RETURNDATASIZE DUP1 PUSH1 0x0 DUP4 RETURNDATACOPY PUSH2 0x484 DUP2 DUP4 PUSH2 0x106F JUMP JUMPDEST DUP9 PUSH2 0xD97 JUMP JUMPDEST SWAP1 POP PUSH1 0x20 DUP2 RETURNDATASIZE PUSH1 0x20 GT PUSH2 0xDF5 JUMPI JUMPDEST DUP2 PUSH2 0xDDE PUSH1 0x20 SWAP4 DUP4 PUSH2 0x106F JUMP JUMPDEST DUP2 ADD SUB SLT PUSH2 0x155 JUMPI PUSH2 0xDEF SWAP1 PUSH2 0x10CA JUMP JUMPDEST DUP10 PUSH2 0xD55 JUMP JUMPDEST RETURNDATASIZE SWAP2 POP PUSH2 0xDD1 JUMP JUMPDEST SWAP1 POP PUSH2 0xE14 SWAP2 POP RETURNDATASIZE DUP1 PUSH1 0x0 DUP4 RETURNDATACOPY PUSH2 0x4E4 DUP2 DUP4 PUSH2 0x106F JUMP JUMPDEST POP POP POP POP SWAP2 SWAP1 POP SWAP1 DUP9 PUSH2 0xD06 JUMP JUMPDEST SWAP1 SWAP3 POP PUSH1 0x20 DUP2 RETURNDATASIZE PUSH1 0x20 GT PUSH2 0xE4E JUMPI JUMPDEST DUP2 PUSH2 0xE3E PUSH1 0x20 SWAP4 DUP4 PUSH2 0x106F JUMP JUMPDEST DUP2 ADD SUB SLT PUSH2 0x155 JUMPI MLOAD SWAP2 DUP4 PUSH2 0x8ED JUMP JUMPDEST RETURNDATASIZE SWAP2 POP PUSH2 0xE31 JUMP JUMPDEST CALLVALUE PUSH2 0x155 JUMPI PUSH1 0x60 CALLDATASIZE PUSH1 0x3 NOT ADD SLT PUSH2 0x155 JUMPI PUSH2 0xE6F PUSH2 0xFC5 JUMP JUMPDEST PUSH1 0x24 CALLDATALOAD PUSH1 0x1 PUSH1 0x1 PUSH1 0xA0 SHL SUB DUP2 DUP2 AND SWAP3 SWAP2 DUP4 SWAP1 SUB PUSH2 0x155 JUMPI PUSH1 0x1 SLOAD AND SWAP2 PUSH1 0x40 MLOAD DUP1 SWAP4 PUSH4 0xF1052AF5 PUSH1 0xE0 SHL DUP3 MSTORE DUP3 PUSH1 0x4 DUP4 ADD MSTORE DUP2 PUSH1 0x24 PUSH1 0x20 SWAP7 DUP8 SWAP4 GAS STATICCALL SWAP1 DUP2 ISZERO PUSH2 0x44A JUMPI PUSH1 0x0 SWAP2 PUSH2 0xF6C JUMPI JUMPDEST POP ISZERO PUSH2 0xF2E JUMPI PUSH1 0x40 MLOAD PUSH4 0x1069F3B5 PUSH1 0xE0 SHL DUP2 MSTORE PUSH1 0x44 DUP1 CALLDATALOAD PUSH1 0x4 DUP4 ADD MSTORE PUSH1 0x1 PUSH1 0x1 PUSH1 0xA0 SHL SUB SWAP4 SWAP1 SWAP4 AND PUSH1 0x24 DUP3 ADD MSTORE SWAP2 PUSH1 0xA0 SWAP2 DUP4 SWAP2 SWAP1 DUP3 SWAP1 GAS STATICCALL SWAP1 DUP2 ISZERO PUSH2 0x44A JUMPI PUSH1 0x0 SWAP2 PUSH2 0xF0B JUMPI JUMPDEST POP PUSH1 0x40 MLOAD SWAP1 ISZERO ISZERO DUP2 MSTORE RETURN JUMPDEST PUSH2 0xF23 SWAP2 POP PUSH1 0xA0 RETURNDATASIZE DUP2 GT PUSH2 0x443 JUMPI PUSH2 0x430 DUP2 DUP4 PUSH2 0x106F JUMP JUMPDEST SWAP4 POP POP POP POP DUP3 PUSH2 0xF00 JUMP JUMPDEST PUSH1 0x40 MLOAD PUSH3 0x461BCD PUSH1 0xE5 SHL DUP2 MSTORE PUSH1 0x4 DUP2 ADD DUP5 SWAP1 MSTORE PUSH1 0x16 PUSH1 0x24 DUP3 ADD MSTORE PUSH22 0x436F6E74726174206E6F6E20656E7265676973747265 PUSH1 0x50 SHL PUSH1 0x44 DUP3 ADD MSTORE PUSH1 0x64 SWAP1 REVERT JUMPDEST SWAP1 POP DUP4 DUP2 DUP2 RETURNDATASIZE DUP4 GT PUSH2 0xF9A JUMPI JUMPDEST PUSH2 0xF83 DUP2 DUP4 PUSH2 0x106F JUMP JUMPDEST DUP2 ADD SUB SLT PUSH2 0x155 JUMPI PUSH2 0xF94 SWAP1 PUSH2 0x10CA JUMP JUMPDEST DUP5 PUSH2 0xEB9 JUMP JUMPDEST POP RETURNDATASIZE PUSH2 0xF79 JUMP JUMPDEST CALLVALUE PUSH2 0x155 JUMPI PUSH1 0x0 CALLDATASIZE PUSH1 0x3 NOT ADD SLT PUSH2 0x155 JUMPI PUSH1 0x1 SLOAD PUSH1 0x1 PUSH1 0x1 PUSH1 0xA0 SHL SUB AND DUP2 MSTORE PUSH1 0x20 SWAP1 RETURN JUMPDEST PUSH1 0x4 CALLDATALOAD SWAP1 PUSH1 0x1 PUSH1 0x1 PUSH1 0xA0 SHL SUB DUP3 AND DUP3 SUB PUSH2 0x155 JUMPI JUMP JUMPDEST ISZERO PUSH2 0xFE2 JUMPI JUMP JUMPDEST PUSH1 0x40 MLOAD PUSH3 0x461BCD PUSH1 0xE5 SHL DUP2 MSTORE PUSH1 0x20 PUSH1 0x4 DUP3 ADD MSTORE PUSH1 0x2D PUSH1 0x24 DUP3 ADD MSTORE PUSH32 0x4F776E61626C653A206C5F617070656C616E74206E5F65737420706173206C65 PUSH1 0x44 DUP3 ADD MSTORE PUSH13 0x2070726F707269657461697265 PUSH1 0x98 SHL PUSH1 0x64 DUP3 ADD MSTORE PUSH1 0x84 SWAP1 REVERT JUMPDEST PUSH1 0xC0 DUP2 ADD SWAP1 DUP2 LT PUSH8 0xFFFFFFFFFFFFFFFF DUP3 GT OR PUSH2 0x1059 JUMPI PUSH1 0x40 MSTORE JUMP JUMPDEST PUSH4 0x4E487B71 PUSH1 0xE0 SHL PUSH1 0x0 MSTORE PUSH1 0x41 PUSH1 0x4 MSTORE PUSH1 0x24 PUSH1 0x0 REVERT JUMPDEST SWAP1 PUSH1 0x1F DUP1 NOT SWAP2 ADD AND DUP2 ADD SWAP1 DUP2 LT PUSH8 0xFFFFFFFFFFFFFFFF DUP3 GT OR PUSH2 0x1059 JUMPI PUSH1 0x40 MSTORE JUMP JUMPDEST PUSH1 0x0 NOT DUP2 EQ PUSH2 0x10A0 JUMPI PUSH1 0x1 ADD SWAP1 JUMP JUMPDEST PUSH4 0x4E487B71 PUSH1 0xE0 SHL PUSH1 0x0 MSTORE PUSH1 0x11 PUSH1 0x4 MSTORE PUSH1 0x24 PUSH1 0x0 REVERT JUMPDEST MLOAD SWAP1 PUSH1 0x1 PUSH1 0x1 PUSH1 0xA0 SHL SUB DUP3 AND DUP3 SUB PUSH2 0x155 JUMPI JUMP JUMPDEST MLOAD SWAP1 DUP2 ISZERO ISZERO DUP3 SUB PUSH2 0x155 JUMPI JUMP JUMPDEST SWAP1 SWAP2 PUSH1 0xE0 DUP3 DUP5 SUB SLT PUSH2 0x155 JUMPI PUSH2 0x10EC DUP3 PUSH2 0x10B6 JUMP JUMPDEST SWAP3 PUSH1 0x20 DUP1 DUP5 ADD MLOAD PUSH8 0xFFFFFFFFFFFFFFFF SWAP1 DUP2 DUP2 GT PUSH2 0x155 JUMPI DUP6 ADD DUP4 PUSH1 0x1F DUP3 ADD SLT ISZERO PUSH2 0x155 JUMPI DUP1 MLOAD SWAP2 DUP3 GT PUSH2 0x1059 JUMPI PUSH1 0x40 MLOAD SWAP4 PUSH2 0x1131 PUSH1 0x1F DUP5 ADD PUSH1 0x1F NOT AND DUP6 ADD DUP7 PUSH2 0x106F JUMP JUMPDEST DUP3 DUP6 MSTORE DUP4 DUP4 DUP4 ADD ADD GT PUSH2 0x155 JUMPI PUSH1 0x0 JUMPDEST DUP3 DUP2 LT PUSH2 0x1179 JUMPI POP POP SWAP1 PUSH1 0x0 SWAP2 DUP4 ADD ADD MSTORE SWAP2 PUSH2 0x115F PUSH1 0x40 DUP3 ADD PUSH2 0x10CA JUMP JUMPDEST SWAP2 PUSH1 0x60 DUP3 ADD MLOAD SWAP2 PUSH1 0x80 DUP2 ADD MLOAD SWAP2 PUSH1 0xC0 PUSH1 0xA0 DUP4 ADD MLOAD SWAP3 ADD MLOAD SWAP1 JUMP JUMPDEST DUP2 DUP2 ADD DUP5 ADD MLOAD DUP6 DUP3 ADD DUP6 ADD MSTORE DUP4 ADD PUSH2 0x1141 JUMP JUMPDEST PUSH8 0xFFFFFFFFFFFFFFFF DUP2 GT PUSH2 0x1059 JUMPI PUSH1 0x5 SHL PUSH1 0x20 ADD SWAP1 JUMP JUMPDEST PUSH1 0x20 SWAP1 DUP2 DUP2 DUP5 SUB SLT PUSH2 0x155 JUMPI DUP1 MLOAD SWAP1 PUSH8 0xFFFFFFFFFFFFFFFF DUP3 GT PUSH2 0x155 JUMPI ADD SWAP2 DUP1 PUSH1 0x1F DUP5 ADD SLT ISZERO PUSH2 0x155 JUMPI DUP3 MLOAD PUSH2 0x11DA DUP2 PUSH2 0x118C JUMP JUMPDEST SWAP4 PUSH2 0x11E8 PUSH1 0x40 MLOAD SWAP6 DUP7 PUSH2 0x106F JUMP JUMPDEST DUP2 DUP6 MSTORE DUP4 DUP1 DUP7 ADD SWAP3 PUSH1 0x5 SHL DUP3 ADD ADD SWAP3 DUP4 GT PUSH2 0x155 JUMPI DUP4 ADD SWAP1 JUMPDEST DUP3 DUP3 LT PUSH2 0x120F JUMPI POP POP POP POP SWAP1 JUMP JUMPDEST DUP2 MLOAD DUP2 MSTORE SWAP1 DUP4 ADD SWAP1 DUP4 ADD PUSH2 0x1201 JUMP JUMPDEST SWAP2 SWAP1 DUP3 ADD DUP1 SWAP3 GT PUSH2 0x10A0 JUMPI JUMP JUMPDEST DUP1 MLOAD DUP3 LT ISZERO PUSH2 0x123F JUMPI PUSH1 0x20 SWAP2 PUSH1 0x5 SHL ADD ADD SWAP1 JUMP JUMPDEST PUSH4 0x4E487B71 PUSH1 0xE0 SHL PUSH1 0x0 MSTORE PUSH1 0x32 PUSH1 0x4 MSTORE PUSH1 0x24 PUSH1 0x0 REVERT JUMPDEST SWAP1 DUP2 PUSH1 0xA0 SWAP2 SUB SLT PUSH2 0x155 JUMPI DUP1 MLOAD SWAP2 PUSH1 0x20 DUP3 ADD MLOAD SWAP2 PUSH1 0x40 DUP2 ADD MLOAD SWAP2 PUSH2 0x1280 PUSH1 0x80 PUSH1 0x60 DUP5 ADD MLOAD SWAP4 ADD PUSH2 0x10CA JUMP JUMPDEST SWAP1 JUMP JUMPDEST DUP2 ISZERO PUSH2 0x128D JUMPI DIV SWAP1 JUMP JUMPDEST PUSH4 0x4E487B71 PUSH1 0xE0 SHL PUSH1 0x0 MSTORE PUSH1 0x12 PUSH1 0x4 MSTORE PUSH1 0x24 PUSH1 0x0 REVERT INVALID LOG2 PUSH5 0x6970667358 0x22 SLT KECCAK256 0xC0 0x2E STOP 0xE9 0xEF LOG1 0xB1 JUMPDEST 0xE8 0xC5 SSTORE 0xD4 PUSH23 0xC5959E1C0C49818D1E5A045E4267EB27084E2164736F6C PUSH4 0x43000814 STOP CALLER "},"methodIdentifiers":{"getPoolDetails(address,uint256)":"4ba5ab84","getUserStakingData(address)":"436ec6ef","getUserSummary(address)":"8fbd0c2d","isUserStakingInPool(address,address,uint256)":"3f09481e","owner()":"8da5cb5b","renounceOwnership()":"715018a6","stakingManager()":"22828cc2","transferOwnership(address)":"f2fde38b","updateStakingManager(address)":"96a1b6b5"}}}}}