{"contracts/AdminDashboard.sol":{"AdminDashboard":{"abi":[{"inputs":[{"internalType":"contract StakingManager","name":"_stakingManager","type":"address"}],"stateMutability":"nonpayable","type":"constructor"},{"anonymous":false,"inputs":[{"indexed":true,"internalType":"address","name":"admin","type":"address"}],"name":"AdminAdded","type":"event"},{"anonymous":false,"inputs":[{"indexed":true,"internalType":"address","name":"admin","type":"address"}],"name":"AdminRemoved","type":"event"},{"anonymous":false,"inputs":[{"indexed":false,"internalType":"uint256","name":"timestamp","type":"uint256"},{"indexed":false,"internalType":"uint256","name":"tvl","type":"uint256"},{"indexed":false,"internalType":"uint256","name":"users","type":"uint256"},{"indexed":false,"internalType":"uint256","name":"pools","type":"uint256"}],"name":"AnalyticsRecorded","type":"event"},{"anonymous":false,"inputs":[{"indexed":true,"internalType":"address","name":"previousOwner","type":"address"},{"indexed":true,"internalType":"address","name":"newOwner","type":"address"}],"name":"OwnershipTransferred","type":"event"},{"anonymous":false,"inputs":[{"indexed":false,"internalType":"uint256","name":"oldInterval","type":"uint256"},{"indexed":false,"internalType":"uint256","name":"newInterval","type":"uint256"}],"name":"RecordIntervalUpdated","type":"event"},{"inputs":[{"internalType":"address","name":"_admin","type":"address"}],"name":"addAdmin","outputs":[],"stateMutability":"nonpayable","type":"function"},{"inputs":[{"internalType":"address","name":"","type":"address"}],"name":"admins","outputs":[{"internalType":"bool","name":"","type":"bool"}],"stateMutability":"view","type":"function"},{"inputs":[{"internalType":"uint256","name":"","type":"uint256"}],"name":"analyticsHistory","outputs":[{"internalType":"uint256","name":"timestamp","type":"uint256"},{"internalType":"uint256","name":"tvl","type":"uint256"},{"internalType":"uint256","name":"users","type":"uint256"},{"internalType":"uint256","name":"pools","type":"uint256"}],"stateMutability":"view","type":"function"},{"inputs":[{"internalType":"uint256","name":"_startIndex","type":"uint256"},{"internalType":"uint256","name":"_endIndex","type":"uint256"}],"name":"calculateGrowth","outputs":[{"internalType":"int256","name":"tvlGrowth","type":"int256"},{"internalType":"int256","name":"usersGrowth","type":"int256"},{"internalType":"int256","name":"poolsGrowth","type":"int256"}],"stateMutability":"view","type":"function"},{"inputs":[],"name":"forceRecordAnalytics","outputs":[],"stateMutability":"nonpayable","type":"function"},{"inputs":[],"name":"getAnalyticsCount","outputs":[{"internalType":"uint256","name":"","type":"uint256"}],"stateMutability":"view","type":"function"},{"inputs":[{"internalType":"uint256","name":"_count","type":"uint256"}],"name":"getRecentAnalytics","outputs":[{"internalType":"uint256[]","name":"timestamps","type":"uint256[]"},{"internalType":"uint256[]","name":"tvls","type":"uint256[]"},{"internalType":"uint256[]","name":"userCounts","type":"uint256[]"},{"internalType":"uint256[]","name":"poolCounts","type":"uint256[]"}],"stateMutability":"view","type":"function"},{"inputs":[{"internalType":"address","name":"_address","type":"address"}],"name":"isAdmin","outputs":[{"internalType":"bool","name":"","type":"bool"}],"stateMutability":"view","type":"function"},{"inputs":[],"name":"lastRecordTimestamp","outputs":[{"internalType":"uint256","name":"","type":"uint256"}],"stateMutability":"view","type":"function"},{"inputs":[],"name":"owner","outputs":[{"internalType":"address","name":"","type":"address"}],"stateMutability":"view","type":"function"},{"inputs":[],"name":"recordAnalytics","outputs":[],"stateMutability":"nonpayable","type":"function"},{"inputs":[],"name":"recordInterval","outputs":[{"internalType":"uint256","name":"","type":"uint256"}],"stateMutability":"view","type":"function"},{"inputs":[{"internalType":"address","name":"_admin","type":"address"}],"name":"removeAdmin","outputs":[],"stateMutability":"nonpayable","type":"function"},{"inputs":[],"name":"renounceOwnership","outputs":[],"stateMutability":"nonpayable","type":"function"},{"inputs":[],"name":"stakingManager","outputs":[{"internalType":"contract StakingManager","name":"","type":"address"}],"stateMutability":"view","type":"function"},{"inputs":[{"internalType":"address","name":"newOwner","type":"address"}],"name":"transferOwnership","outputs":[],"stateMutability":"nonpayable","type":"function"},{"inputs":[{"internalType":"uint256","name":"_newInterval","type":"uint256"}],"name":"updateRecordInterval","outputs":[],"stateMutability":"nonpayable","type":"function"},{"inputs":[{"internalType":"contract StakingManager","name":"_newManager","type":"address"}],"name":"updateStakingManager","outputs":[],"stateMutability":"nonpayable","type":"function"}],"evm":{"bytecode":{"linkReferences":{},"object":"6080346100c957601f61108738819003918201601f19168301916001600160401b038311848410176100ce578084926020946040528339810103126100c957516001600160a01b0390818116908190036100c957600080546001600160a01b03198082163390811784556040805196909593167f8be0079c531659141344cd1fd0a4f28419497f9722a3daafe3b4186f6b6457e08580a3620151806003556001541617600155338152600560205220600160ff1982541617905542600455610fa290816100e58239f35b600080fd5b634e487b7160e01b600052604160045260246000fdfe60406080815260048036101561001457600080fd5b600091823560e01c80631785f53c14610b9757806322828cc214610b6e57806324d7806c14610b135780633a127e2e146108a6578063429b62e514610867578063509f7803146107c45780635158a18b1461067d57806362fef970146105f657806363ac70b6146105d8578063704802751461050d578063715018a6146104af5780638da5cb5b1461048757806396a1b6b51461042c57806399bc24a5146103c9578063b54166c014610205578063c48c10b7146101e6578063c7100d21146101c35763f2fde38b146100e657600080fd5b346101bf5760203660031901126101bf576001600160a01b03823581811693908490036101bb5784549182169261011e338514610d33565b841561015b5750506001600160a01b031916821783557f8be0079c531659141344cd1fd0a4f28419497f9722a3daafe3b4186f6b6457e08380a380f35b5162461bcd60e51b8152602091810191909152603260248201527f4f776e61626c653a206e6f75766561752070726f707269c3a9746169726520656044820152717374206c2761647265737365207ac3a9726f60701b6064820152608490fd5b8480fd5b8280fd5b8382346101e257816003193601126101e2576020906003549051908152f35b5080fd5b8382346101e257816003193601126101e2576020906002549051908152f35b5090346101bf57826003193601126101bf57338352600560205260ff828420541680156103b6575b1561038557610240815460035490610dd4565b421061034357600154825163b57de2d360e01b81529060a0908290849082906001600160a01b03165afa801561033657927fc4ccdf1a34475c19337fd7d9dc9546759098310733f376df6de605282824496f938591869387926102f7575b506102f19293946102cc82516102b381610df7565b4281528660208201528784820152846060820152610e77565b4290555193849342859094939260609260808301968352602083015260408201520152565b0390a180f35b9093506102f19250610320915060a03d811161032f575b6103188183610e29565b810190610e4b565b9095919490935090915061029e565b503d61030e565b50505051903d90823e3d90fd5b6020606492519162461bcd60e51b8352820152601760248201527f496e74657276616c6c65206e6f6e20c3a9636f756cc3a90000000000000000006044820152fd5b6020606492519162461bcd60e51b8352820152600c60248201526b4e6f6e206175746f7269736560a01b6044820152fd5b5082546001600160a01b0316331461022d565b509190346101e25760203660031901126101e257359060025482101561042957506103f390610ce3565b508054600182015460028301546003909301549351918252602082015260408101919091526060810191909152608090f35b0390f35b80fd5b5050346101e25760203660031901126101e257356001600160a01b03818116918290036101bf57610461908354163314610d33565b61046c811515610d95565b6bffffffffffffffffffffffff60a01b600154161760015580f35b8382346101e257816003193601126101e257905490516001600160a01b039091168152602090f35b8334610429578060031936011261042957805481906001600160a01b038116906104da338314610d33565b6001600160a01b03191682557f8be0079c531659141344cd1fd0a4f28419497f9722a3daafe3b4186f6b6457e08280a380f35b50346101bf5760203660031901126101bf5781356001600160a01b0381811693918490036101bb57610543908554163314610d33565b61054e831515610d95565b828452600560205260ff828520541661059e575081835260056020528220805460ff191660011790557f44d6d25963f097ad14f29f06854a01f575648a1ef82f30e562ccd3889717e3398280a280f35b6020606492519162461bcd60e51b835282015260156024820152742261d4b561d01030b236b4b734b9ba3930ba32bab960591b6044820152fd5b5090346101bf57826003193601126101bf5760209250549051908152f35b5090346101bf57826003193601126101bf578060a0600180821b0361061f818754163314610d33565b6001541684519283809263b57de2d360e01b82525afa801561033657927fc4ccdf1a34475c19337fd7d9dc9546759098310733f376df6de605282824496f938591869387926102f757506102f19293946102cc82516102b381610df7565b509190346101e25760203660031901126101e25760028054918035801580156107bb575b156107b65750825b6106b281610ef4565b946106bc82610ef4565b926106c683610ef4565b946106d084610ef4565b96835b858110610727576106fe8a6104258b6107198f8d61070c8e835198899860808a5260808a0190610caf565b9088820360208a0152610caf565b9186830390870152610caf565b908382036060850152610caf565b8582038281116107a35761074561074083600393610dd4565b610ce3565b508054610752848e610f26565b526001810154610762848b610f26565b5284810154610771848c610f26565b52015461077e828b610f26565b526000198114610790576001016106d3565b634e487b7160e01b855260118452602485fd5b634e487b7160e01b865260118552602486fd5b6106a9565b508381116106a1565b5090346101bf5760203660031901126101bf578035906107ee60018060a01b038554163314610d33565b811561082e5750907f6671416473c0318f323645ba2943a4977b5dc85a11920c4ae812c49bc7a6f0e691600354908060035582519182526020820152a180f35b606490602084519162461bcd60e51b83528201526013602482015272496e74657276616c6c6520696e76616c69646560681b6044820152fd5b5090346101bf5760203660031901126101bf57356001600160a01b038116908190036101bf57818360ff92602095526005855220541690519015158152f35b508290346101e257806003193601126101e25782359060249384359260025480821015610ad157841015610a975783811015610a2f576108e86108ef91610ce3565b5093610ce3565b5060018401549095908015610a15576001870154606481029080820460641490151715610a03576109289161092391610f3a565b610f5a565b945b600285015480156109e55760028801546064810290808204606414901517156109d35761092360039261095c92610f3a565b955b01549687156109b25760030154926064840293808504606414901517156109a25750505061092360609561099192610f3a565b915b81519384526020840152820152f35b634e487b7160e01b825260119052fd5b60030154606097509092501590506109ce575060645b91610993565b6109c8565b5050634e487b7160e01b815260118352fd5b506002870154156109fb57600360645b9561095e565b6003816109f5565b634e487b7160e01b8752601184528287fd5b50600186015415610a295760645b9461092a565b84610a23565b50603a856020608494519362461bcd60e51b85528401528201527f4c27696e6465782064652064c3a97061727420646f697420c3aa74726520696e60448201527f66c3a9726965757220c3a0206c27696e6465782064652066696e0000000000006064820152fd5b506015856020606494519362461bcd60e51b855284015282015274496e6465782064652066696e20696e76616c69646560581b6044820152fd5b835162461bcd60e51b81526020818501526019818901527f496e6465782064652064c3a97061727420696e76616c696465000000000000006044820152606490fd5b509190346101e25760203660031901126101e2576001600160a01b03929035838116908190036101bf576020938184526005855260ff8385205416938415610b61575b505050519015158152f35b5416149150388080610b56565b8382346101e257816003193601126101e25760015490516001600160a01b039091168152602090f35b50346101bf5760203660031901126101bf5781356001600160a01b0381811693918490036101bb57845416610bcd338214610d33565b838552600560205260ff838620541615610c74578314610c21575081835260056020528220805460ff191690557fa3b62bc36326052d97ea62d63c3d60308ed4c3ea8ac079dd8499f1e9c4f80c0f8280a280f35b6020608492519162461bcd60e51b8352820152602860248201527f496d706f737369626c65206465207375707072696d6572206c652070726f707260448201526769c3a9746169726560c01b6064820152fd5b506020606492519162461bcd60e51b835282015260156024820152742830b9903ab71030b236b4b734b9ba3930ba32bab960591b6044820152fd5b90815180825260208080930193019160005b828110610ccf575050505090565b835185529381019392810192600101610cc1565b600254811015610d1d57600260005260021b7f405787fa12a823e0f2b7631cc41b3ba8828b3321ca811111fa75cd3aa3bb5ace0190600090565b634e487b7160e01b600052603260045260246000fd5b15610d3a57565b60405162461bcd60e51b815260206004820152602d60248201527f4f776e61626c653a206c5f617070656c616e74206e5f65737420706173206c6560448201526c2070726f70726965746169726560981b6064820152608490fd5b15610d9c57565b60405162461bcd60e51b815260206004820152601060248201526f4164726573736520696e76616c69646560801b6044820152606490fd5b91908201809211610de157565b634e487b7160e01b600052601160045260246000fd5b6080810190811067ffffffffffffffff821117610e1357604052565b634e487b7160e01b600052604160045260246000fd5b90601f8019910116810190811067ffffffffffffffff821117610e1357604052565b908160a0910312610e72578051916020820151916040810151916080606083015192015190565b600080fd5b60025468010000000000000000811015610e1357806001610e9b9201600255610ce3565b919091610ec65760608160039251845560208101516001850155604081015160028501550151910155565b634e487b7160e01b600052600060045260246000fd5b67ffffffffffffffff8111610e135760051b60200190565b90610efe82610edc565b610f0b6040519182610e29565b8281528092610f1c601f1991610edc565b0190602036910137565b8051821015610d1d5760209160051b010190565b8115610f44570490565b634e487b7160e01b600052601260045260246000fd5b906063198201918213600116610de15756fea2646970667358221220fc065942d1fea1427b185fb70cb7a7e86cc310277a4f28be61e926c597e5301f64736f6c63430008140033","opcodes":"PUSH1 0x80 CALLVALUE PUSH2 0xC9 JUMPI PUSH1 0x1F PUSH2 0x1087 CODESIZE DUP2 SWAP1 SUB SWAP2 DUP3 ADD PUSH1 0x1F NOT AND DUP4 ADD SWAP2 PUSH1 0x1 PUSH1 0x1 PUSH1 0x40 SHL SUB DUP4 GT DUP5 DUP5 LT OR PUSH2 0xCE JUMPI DUP1 DUP5 SWAP3 PUSH1 0x20 SWAP5 PUSH1 0x40 MSTORE DUP4 CODECOPY DUP2 ADD SUB SLT PUSH2 0xC9 JUMPI MLOAD PUSH1 0x1 PUSH1 0x1 PUSH1 0xA0 SHL SUB SWAP1 DUP2 DUP2 AND SWAP1 DUP2 SWAP1 SUB PUSH2 0xC9 JUMPI PUSH1 0x0 DUP1 SLOAD PUSH1 0x1 PUSH1 0x1 PUSH1 0xA0 SHL SUB NOT DUP1 DUP3 AND CALLER SWAP1 DUP2 OR DUP5 SSTORE PUSH1 0x40 DUP1 MLOAD SWAP7 SWAP1 SWAP6 SWAP4 AND PUSH32 0x8BE0079C531659141344CD1FD0A4F28419497F9722A3DAAFE3B4186F6B6457E0 DUP6 DUP1 LOG3 PUSH3 0x15180 PUSH1 0x3 SSTORE PUSH1 0x1 SLOAD AND OR PUSH1 0x1 SSTORE CALLER DUP2 MSTORE PUSH1 0x5 PUSH1 0x20 MSTORE KECCAK256 PUSH1 0x1 PUSH1 0xFF NOT DUP3 SLOAD AND OR SWAP1 SSTORE TIMESTAMP PUSH1 0x4 SSTORE PUSH2 0xFA2 SWAP1 DUP2 PUSH2 0xE5 DUP3 CODECOPY RETURN JUMPDEST PUSH1 0x0 DUP1 REVERT JUMPDEST PUSH4 0x4E487B71 PUSH1 0xE0 SHL PUSH1 0x0 MSTORE PUSH1 0x41 PUSH1 0x4 MSTORE PUSH1 0x24 PUSH1 0x0 REVERT INVALID PUSH1 0x40 PUSH1 0x80 DUP2 MSTORE PUSH1 0x4 DUP1 CALLDATASIZE LT ISZERO PUSH2 0x14 JUMPI PUSH1 0x0 DUP1 REVERT JUMPDEST PUSH1 0x0 SWAP2 DUP3 CALLDATALOAD PUSH1 0xE0 SHR DUP1 PUSH4 0x1785F53C EQ PUSH2 0xB97 JUMPI DUP1 PUSH4 0x22828CC2 EQ PUSH2 0xB6E JUMPI DUP1 PUSH4 0x24D7806C EQ PUSH2 0xB13 JUMPI DUP1 PUSH4 0x3A127E2E EQ PUSH2 0x8A6 JUMPI DUP1 PUSH4 0x429B62E5 EQ PUSH2 0x867 JUMPI DUP1 PUSH4 0x509F7803 EQ PUSH2 0x7C4 JUMPI DUP1 PUSH4 0x5158A18B EQ PUSH2 0x67D JUMPI DUP1 PUSH4 0x62FEF970 EQ PUSH2 0x5F6 JUMPI DUP1 PUSH4 0x63AC70B6 EQ PUSH2 0x5D8 JUMPI DUP1 PUSH4 0x70480275 EQ PUSH2 0x50D JUMPI DUP1 PUSH4 0x715018A6 EQ PUSH2 0x4AF JUMPI DUP1 PUSH4 0x8DA5CB5B EQ PUSH2 0x487 JUMPI DUP1 PUSH4 0x96A1B6B5 EQ PUSH2 0x42C JUMPI DUP1 PUSH4 0x99BC24A5 EQ PUSH2 0x3C9 JUMPI DUP1 PUSH4 0xB54166C0 EQ PUSH2 0x205 JUMPI DUP1 PUSH4 0xC48C10B7 EQ PUSH2 0x1E6 JUMPI DUP1 PUSH4 0xC7100D21 EQ PUSH2 0x1C3 JUMPI PUSH4 0xF2FDE38B EQ PUSH2 0xE6 JUMPI PUSH1 0x0 DUP1 REVERT JUMPDEST CALLVALUE PUSH2 0x1BF JUMPI PUSH1 0x20 CALLDATASIZE PUSH1 0x3 NOT ADD SLT PUSH2 0x1BF JUMPI PUSH1 0x1 PUSH1 0x1 PUSH1 0xA0 SHL SUB DUP3 CALLDATALOAD DUP2 DUP2 AND SWAP4 SWAP1 DUP5 SWAP1 SUB PUSH2 0x1BB JUMPI DUP5 SLOAD SWAP2 DUP3 AND SWAP3 PUSH2 0x11E CALLER DUP6 EQ PUSH2 0xD33 JUMP JUMPDEST DUP5 ISZERO PUSH2 0x15B JUMPI POP POP PUSH1 0x1 PUSH1 0x1 PUSH1 0xA0 SHL SUB NOT AND DUP3 OR DUP4 SSTORE PUSH32 0x8BE0079C531659141344CD1FD0A4F28419497F9722A3DAAFE3B4186F6B6457E0 DUP4 DUP1 LOG3 DUP1 RETURN JUMPDEST MLOAD PUSH3 0x461BCD PUSH1 0xE5 SHL DUP2 MSTORE PUSH1 0x20 SWAP2 DUP2 ADD SWAP2 SWAP1 SWAP2 MSTORE PUSH1 0x32 PUSH1 0x24 DUP3 ADD MSTORE PUSH32 0x4F776E61626C653A206E6F75766561752070726F707269C3A974616972652065 PUSH1 0x44 DUP3 ADD MSTORE PUSH18 0x7374206C2761647265737365207AC3A9726F PUSH1 0x70 SHL PUSH1 0x64 DUP3 ADD MSTORE PUSH1 0x84 SWAP1 REVERT JUMPDEST DUP5 DUP1 REVERT JUMPDEST DUP3 DUP1 REVERT JUMPDEST DUP4 DUP3 CALLVALUE PUSH2 0x1E2 JUMPI DUP2 PUSH1 0x3 NOT CALLDATASIZE ADD SLT PUSH2 0x1E2 JUMPI PUSH1 0x20 SWAP1 PUSH1 0x3 SLOAD SWAP1 MLOAD SWAP1 DUP2 MSTORE RETURN JUMPDEST POP DUP1 REVERT JUMPDEST DUP4 DUP3 CALLVALUE PUSH2 0x1E2 JUMPI DUP2 PUSH1 0x3 NOT CALLDATASIZE ADD SLT PUSH2 0x1E2 JUMPI PUSH1 0x20 SWAP1 PUSH1 0x2 SLOAD SWAP1 MLOAD SWAP1 DUP2 MSTORE RETURN JUMPDEST POP SWAP1 CALLVALUE PUSH2 0x1BF JUMPI DUP3 PUSH1 0x3 NOT CALLDATASIZE ADD SLT PUSH2 0x1BF JUMPI CALLER DUP4 MSTORE PUSH1 0x5 PUSH1 0x20 MSTORE PUSH1 0xFF DUP3 DUP5 KECCAK256 SLOAD AND DUP1 ISZERO PUSH2 0x3B6 JUMPI JUMPDEST ISZERO PUSH2 0x385 JUMPI PUSH2 0x240 DUP2 SLOAD PUSH1 0x3 SLOAD SWAP1 PUSH2 0xDD4 JUMP JUMPDEST TIMESTAMP LT PUSH2 0x343 JUMPI PUSH1 0x1 SLOAD DUP3 MLOAD PUSH4 0xB57DE2D3 PUSH1 0xE0 SHL DUP2 MSTORE SWAP1 PUSH1 0xA0 SWAP1 DUP3 SWAP1 DUP5 SWAP1 DUP3 SWAP1 PUSH1 0x1 PUSH1 0x1 PUSH1 0xA0 SHL SUB AND GAS STATICCALL DUP1 ISZERO PUSH2 0x336 JUMPI SWAP3 PUSH32 0xC4CCDF1A34475C19337FD7D9DC9546759098310733F376DF6DE605282824496F SWAP4 DUP6 SWAP2 DUP7 SWAP4 DUP8 SWAP3 PUSH2 0x2F7 JUMPI JUMPDEST POP PUSH2 0x2F1 SWAP3 SWAP4 SWAP5 PUSH2 0x2CC DUP3 MLOAD PUSH2 0x2B3 DUP2 PUSH2 0xDF7 JUMP JUMPDEST TIMESTAMP DUP2 MSTORE DUP7 PUSH1 0x20 DUP3 ADD MSTORE DUP8 DUP5 DUP3 ADD MSTORE DUP5 PUSH1 0x60 DUP3 ADD MSTORE PUSH2 0xE77 JUMP JUMPDEST TIMESTAMP SWAP1 SSTORE MLOAD SWAP4 DUP5 SWAP4 TIMESTAMP DUP6 SWAP1 SWAP5 SWAP4 SWAP3 PUSH1 0x60 SWAP3 PUSH1 0x80 DUP4 ADD SWAP7 DUP4 MSTORE PUSH1 0x20 DUP4 ADD MSTORE PUSH1 0x40 DUP3 ADD MSTORE ADD MSTORE JUMP JUMPDEST SUB SWAP1 LOG1 DUP1 RETURN JUMPDEST SWAP1 SWAP4 POP PUSH2 0x2F1 SWAP3 POP PUSH2 0x320 SWAP2 POP PUSH1 0xA0 RETURNDATASIZE DUP2 GT PUSH2 0x32F JUMPI JUMPDEST PUSH2 0x318 DUP2 DUP4 PUSH2 0xE29 JUMP JUMPDEST DUP2 ADD SWAP1 PUSH2 0xE4B JUMP JUMPDEST SWAP1 SWAP6 SWAP2 SWAP5 SWAP1 SWAP4 POP SWAP1 SWAP2 POP PUSH2 0x29E JUMP JUMPDEST POP RETURNDATASIZE PUSH2 0x30E JUMP JUMPDEST POP POP POP MLOAD SWAP1 RETURNDATASIZE SWAP1 DUP3 RETURNDATACOPY RETURNDATASIZE SWAP1 REVERT JUMPDEST PUSH1 0x20 PUSH1 0x64 SWAP3 MLOAD SWAP2 PUSH3 0x461BCD PUSH1 0xE5 SHL DUP4 MSTORE DUP3 ADD MSTORE PUSH1 0x17 PUSH1 0x24 DUP3 ADD MSTORE PUSH32 0x496E74657276616C6C65206E6F6E20C3A9636F756CC3A9000000000000000000 PUSH1 0x44 DUP3 ADD MSTORE REVERT JUMPDEST PUSH1 0x20 PUSH1 0x64 SWAP3 MLOAD SWAP2 PUSH3 0x461BCD PUSH1 0xE5 SHL DUP4 MSTORE DUP3 ADD MSTORE PUSH1 0xC PUSH1 0x24 DUP3 ADD MSTORE PUSH12 0x4E6F6E206175746F72697365 PUSH1 0xA0 SHL PUSH1 0x44 DUP3 ADD MSTORE REVERT JUMPDEST POP DUP3 SLOAD PUSH1 0x1 PUSH1 0x1 PUSH1 0xA0 SHL SUB AND CALLER EQ PUSH2 0x22D JUMP JUMPDEST POP SWAP2 SWAP1 CALLVALUE PUSH2 0x1E2 JUMPI PUSH1 0x20 CALLDATASIZE PUSH1 0x3 NOT ADD SLT PUSH2 0x1E2 JUMPI CALLDATALOAD SWAP1 PUSH1 0x2 SLOAD DUP3 LT ISZERO PUSH2 0x429 JUMPI POP PUSH2 0x3F3 SWAP1 PUSH2 0xCE3 JUMP JUMPDEST POP DUP1 SLOAD PUSH1 0x1 DUP3 ADD SLOAD PUSH1 0x2 DUP4 ADD SLOAD PUSH1 0x3 SWAP1 SWAP4 ADD SLOAD SWAP4 MLOAD SWAP2 DUP3 MSTORE PUSH1 0x20 DUP3 ADD MSTORE PUSH1 0x40 DUP2 ADD SWAP2 SWAP1 SWAP2 MSTORE PUSH1 0x60 DUP2 ADD SWAP2 SWAP1 SWAP2 MSTORE PUSH1 0x80 SWAP1 RETURN JUMPDEST SUB SWAP1 RETURN JUMPDEST DUP1 REVERT JUMPDEST POP POP CALLVALUE PUSH2 0x1E2 JUMPI PUSH1 0x20 CALLDATASIZE PUSH1 0x3 NOT ADD SLT PUSH2 0x1E2 JUMPI CALLDATALOAD PUSH1 0x1 PUSH1 0x1 PUSH1 0xA0 SHL SUB DUP2 DUP2 AND SWAP2 DUP3 SWAP1 SUB PUSH2 0x1BF JUMPI PUSH2 0x461 SWAP1 DUP4 SLOAD AND CALLER EQ PUSH2 0xD33 JUMP JUMPDEST PUSH2 0x46C DUP2 ISZERO ISZERO PUSH2 0xD95 JUMP JUMPDEST PUSH12 0xFFFFFFFFFFFFFFFFFFFFFFFF PUSH1 0xA0 SHL PUSH1 0x1 SLOAD AND OR PUSH1 0x1 SSTORE DUP1 RETURN JUMPDEST DUP4 DUP3 CALLVALUE PUSH2 0x1E2 JUMPI DUP2 PUSH1 0x3 NOT CALLDATASIZE ADD SLT PUSH2 0x1E2 JUMPI SWAP1 SLOAD SWAP1 MLOAD PUSH1 0x1 PUSH1 0x1 PUSH1 0xA0 SHL SUB SWAP1 SWAP2 AND DUP2 MSTORE PUSH1 0x20 SWAP1 RETURN JUMPDEST DUP4 CALLVALUE PUSH2 0x429 JUMPI DUP1 PUSH1 0x3 NOT CALLDATASIZE ADD SLT PUSH2 0x429 JUMPI DUP1 SLOAD DUP2 SWAP1 PUSH1 0x1 PUSH1 0x1 PUSH1 0xA0 SHL SUB DUP2 AND SWAP1 PUSH2 0x4DA CALLER DUP4 EQ PUSH2 0xD33 JUMP JUMPDEST PUSH1 0x1 PUSH1 0x1 PUSH1 0xA0 SHL SUB NOT AND DUP3 SSTORE PUSH32 0x8BE0079C531659141344CD1FD0A4F28419497F9722A3DAAFE3B4186F6B6457E0 DUP3 DUP1 LOG3 DUP1 RETURN JUMPDEST POP CALLVALUE PUSH2 0x1BF JUMPI PUSH1 0x20 CALLDATASIZE PUSH1 0x3 NOT ADD SLT PUSH2 0x1BF JUMPI DUP2 CALLDATALOAD PUSH1 0x1 PUSH1 0x1 PUSH1 0xA0 SHL SUB DUP2 DUP2 AND SWAP4 SWAP2 DUP5 SWAP1 SUB PUSH2 0x1BB JUMPI PUSH2 0x543 SWAP1 DUP6 SLOAD AND CALLER EQ PUSH2 0xD33 JUMP JUMPDEST PUSH2 0x54E DUP4 ISZERO ISZERO PUSH2 0xD95 JUMP JUMPDEST DUP3 DUP5 MSTORE PUSH1 0x5 PUSH1 0x20 MSTORE PUSH1 0xFF DUP3 DUP6 KECCAK256 SLOAD AND PUSH2 0x59E JUMPI POP DUP2 DUP4 MSTORE PUSH1 0x5 PUSH1 0x20 MSTORE DUP3 KECCAK256 DUP1 SLOAD PUSH1 0xFF NOT AND PUSH1 0x1 OR SWAP1 SSTORE PUSH32 0x44D6D25963F097AD14F29F06854A01F575648A1EF82F30E562CCD3889717E339 DUP3 DUP1 LOG2 DUP1 RETURN JUMPDEST PUSH1 0x20 PUSH1 0x64 SWAP3 MLOAD SWAP2 PUSH3 0x461BCD PUSH1 0xE5 SHL DUP4 MSTORE DUP3 ADD MSTORE PUSH1 0x15 PUSH1 0x24 DUP3 ADD MSTORE PUSH21 0x2261D4B561D01030B236B4B734B9BA3930BA32BAB9 PUSH1 0x59 SHL PUSH1 0x44 DUP3 ADD MSTORE REVERT JUMPDEST POP SWAP1 CALLVALUE PUSH2 0x1BF JUMPI DUP3 PUSH1 0x3 NOT CALLDATASIZE ADD SLT PUSH2 0x1BF JUMPI PUSH1 0x20 SWAP3 POP SLOAD SWAP1 MLOAD SWAP1 DUP2 MSTORE RETURN JUMPDEST POP SWAP1 CALLVALUE PUSH2 0x1BF JUMPI DUP3 PUSH1 0x3 NOT CALLDATASIZE ADD SLT PUSH2 0x1BF JUMPI DUP1 PUSH1 0xA0 PUSH1 0x1 DUP1 DUP3 SHL SUB PUSH2 0x61F DUP2 DUP8 SLOAD AND CALLER EQ PUSH2 0xD33 JUMP JUMPDEST PUSH1 0x1 SLOAD AND DUP5 MLOAD SWAP3 DUP4 DUP1 SWAP3 PUSH4 0xB57DE2D3 PUSH1 0xE0 SHL DUP3 MSTORE GAS STATICCALL DUP1 ISZERO PUSH2 0x336 JUMPI SWAP3 PUSH32 0xC4CCDF1A34475C19337FD7D9DC9546759098310733F376DF6DE605282824496F SWAP4 DUP6 SWAP2 DUP7 SWAP4 DUP8 SWAP3 PUSH2 0x2F7 JUMPI POP PUSH2 0x2F1 SWAP3 SWAP4 SWAP5 PUSH2 0x2CC DUP3 MLOAD PUSH2 0x2B3 DUP2 PUSH2 0xDF7 JUMP JUMPDEST POP SWAP2 SWAP1 CALLVALUE PUSH2 0x1E2 JUMPI PUSH1 0x20 CALLDATASIZE PUSH1 0x3 NOT ADD SLT PUSH2 0x1E2 JUMPI PUSH1 0x2 DUP1 SLOAD SWAP2 DUP1 CALLDATALOAD DUP1 ISZERO DUP1 ISZERO PUSH2 0x7BB JUMPI JUMPDEST ISZERO PUSH2 0x7B6 JUMPI POP DUP3 JUMPDEST PUSH2 0x6B2 DUP2 PUSH2 0xEF4 JUMP JUMPDEST SWAP5 PUSH2 0x6BC DUP3 PUSH2 0xEF4 JUMP JUMPDEST SWAP3 PUSH2 0x6C6 DUP4 PUSH2 0xEF4 JUMP JUMPDEST SWAP5 PUSH2 0x6D0 DUP5 PUSH2 0xEF4 JUMP JUMPDEST SWAP7 DUP4 JUMPDEST DUP6 DUP2 LT PUSH2 0x727 JUMPI PUSH2 0x6FE DUP11 PUSH2 0x425 DUP12 PUSH2 0x719 DUP16 DUP14 PUSH2 0x70C DUP15 DUP4 MLOAD SWAP9 DUP10 SWAP9 PUSH1 0x80 DUP11 MSTORE PUSH1 0x80 DUP11 ADD SWAP1 PUSH2 0xCAF JUMP JUMPDEST SWAP1 DUP9 DUP3 SUB PUSH1 0x20 DUP11 ADD MSTORE PUSH2 0xCAF JUMP JUMPDEST SWAP2 DUP7 DUP4 SUB SWAP1 DUP8 ADD MSTORE PUSH2 0xCAF JUMP JUMPDEST SWAP1 DUP4 DUP3 SUB PUSH1 0x60 DUP6 ADD MSTORE PUSH2 0xCAF JUMP JUMPDEST DUP6 DUP3 SUB DUP3 DUP2 GT PUSH2 0x7A3 JUMPI PUSH2 0x745 PUSH2 0x740 DUP4 PUSH1 0x3 SWAP4 PUSH2 0xDD4 JUMP JUMPDEST PUSH2 0xCE3 JUMP JUMPDEST POP DUP1 SLOAD PUSH2 0x752 DUP5 DUP15 PUSH2 0xF26 JUMP JUMPDEST MSTORE PUSH1 0x1 DUP2 ADD SLOAD PUSH2 0x762 DUP5 DUP12 PUSH2 0xF26 JUMP JUMPDEST MSTORE DUP5 DUP2 ADD SLOAD PUSH2 0x771 DUP5 DUP13 PUSH2 0xF26 JUMP JUMPDEST MSTORE ADD SLOAD PUSH2 0x77E DUP3 DUP12 PUSH2 0xF26 JUMP JUMPDEST MSTORE PUSH1 0x0 NOT DUP2 EQ PUSH2 0x790 JUMPI PUSH1 0x1 ADD PUSH2 0x6D3 JUMP JUMPDEST PUSH4 0x4E487B71 PUSH1 0xE0 SHL DUP6 MSTORE PUSH1 0x11 DUP5 MSTORE PUSH1 0x24 DUP6 REVERT JUMPDEST PUSH4 0x4E487B71 PUSH1 0xE0 SHL DUP7 MSTORE PUSH1 0x11 DUP6 MSTORE PUSH1 0x24 DUP7 REVERT JUMPDEST PUSH2 0x6A9 JUMP JUMPDEST POP DUP4 DUP2 GT PUSH2 0x6A1 JUMP JUMPDEST POP SWAP1 CALLVALUE PUSH2 0x1BF JUMPI PUSH1 0x20 CALLDATASIZE PUSH1 0x3 NOT ADD SLT PUSH2 0x1BF JUMPI DUP1 CALLDATALOAD SWAP1 PUSH2 0x7EE PUSH1 0x1 DUP1 PUSH1 0xA0 SHL SUB DUP6 SLOAD AND CALLER EQ PUSH2 0xD33 JUMP JUMPDEST DUP2 ISZERO PUSH2 0x82E JUMPI POP SWAP1 PUSH32 0x6671416473C0318F323645BA2943A4977B5DC85A11920C4AE812C49BC7A6F0E6 SWAP2 PUSH1 0x3 SLOAD SWAP1 DUP1 PUSH1 0x3 SSTORE DUP3 MLOAD SWAP2 DUP3 MSTORE PUSH1 0x20 DUP3 ADD MSTORE LOG1 DUP1 RETURN JUMPDEST PUSH1 0x64 SWAP1 PUSH1 0x20 DUP5 MLOAD SWAP2 PUSH3 0x461BCD PUSH1 0xE5 SHL DUP4 MSTORE DUP3 ADD MSTORE PUSH1 0x13 PUSH1 0x24 DUP3 ADD MSTORE PUSH19 0x496E74657276616C6C6520696E76616C696465 PUSH1 0x68 SHL PUSH1 0x44 DUP3 ADD MSTORE REVERT JUMPDEST POP SWAP1 CALLVALUE PUSH2 0x1BF JUMPI PUSH1 0x20 CALLDATASIZE PUSH1 0x3 NOT ADD SLT PUSH2 0x1BF JUMPI CALLDATALOAD PUSH1 0x1 PUSH1 0x1 PUSH1 0xA0 SHL SUB DUP2 AND SWAP1 DUP2 SWAP1 SUB PUSH2 0x1BF JUMPI DUP2 DUP4 PUSH1 0xFF SWAP3 PUSH1 0x20 SWAP6 MSTORE PUSH1 0x5 DUP6 MSTORE KECCAK256 SLOAD AND SWAP1 MLOAD SWAP1 ISZERO ISZERO DUP2 MSTORE RETURN JUMPDEST POP DUP3 SWAP1 CALLVALUE PUSH2 0x1E2 JUMPI DUP1 PUSH1 0x3 NOT CALLDATASIZE ADD SLT PUSH2 0x1E2 JUMPI DUP3 CALLDATALOAD SWAP1 PUSH1 0x24 SWAP4 DUP5 CALLDATALOAD SWAP3 PUSH1 0x2 SLOAD DUP1 DUP3 LT ISZERO PUSH2 0xAD1 JUMPI DUP5 LT ISZERO PUSH2 0xA97 JUMPI DUP4 DUP2 LT ISZERO PUSH2 0xA2F JUMPI PUSH2 0x8E8 PUSH2 0x8EF SWAP2 PUSH2 0xCE3 JUMP JUMPDEST POP SWAP4 PUSH2 0xCE3 JUMP JUMPDEST POP PUSH1 0x1 DUP5 ADD SLOAD SWAP1 SWAP6 SWAP1 DUP1 ISZERO PUSH2 0xA15 JUMPI PUSH1 0x1 DUP8 ADD SLOAD PUSH1 0x64 DUP2 MUL SWAP1 DUP1 DUP3 DIV PUSH1 0x64 EQ SWAP1 ISZERO OR ISZERO PUSH2 0xA03 JUMPI PUSH2 0x928 SWAP2 PUSH2 0x923 SWAP2 PUSH2 0xF3A JUMP JUMPDEST PUSH2 0xF5A JUMP JUMPDEST SWAP5 JUMPDEST PUSH1 0x2 DUP6 ADD SLOAD DUP1 ISZERO PUSH2 0x9E5 JUMPI PUSH1 0x2 DUP9 ADD SLOAD PUSH1 0x64 DUP2 MUL SWAP1 DUP1 DUP3 DIV PUSH1 0x64 EQ SWAP1 ISZERO OR ISZERO PUSH2 0x9D3 JUMPI PUSH2 0x923 PUSH1 0x3 SWAP3 PUSH2 0x95C SWAP3 PUSH2 0xF3A JUMP JUMPDEST SWAP6 JUMPDEST ADD SLOAD SWAP7 DUP8 ISZERO PUSH2 0x9B2 JUMPI PUSH1 0x3 ADD SLOAD SWAP3 PUSH1 0x64 DUP5 MUL SWAP4 DUP1 DUP6 DIV PUSH1 0x64 EQ SWAP1 ISZERO OR ISZERO PUSH2 0x9A2 JUMPI POP POP POP PUSH2 0x923 PUSH1 0x60 SWAP6 PUSH2 0x991 SWAP3 PUSH2 0xF3A JUMP JUMPDEST SWAP2 JUMPDEST DUP2 MLOAD SWAP4 DUP5 MSTORE PUSH1 0x20 DUP5 ADD MSTORE DUP3 ADD MSTORE RETURN JUMPDEST PUSH4 0x4E487B71 PUSH1 0xE0 SHL DUP3 MSTORE PUSH1 0x11 SWAP1 MSTORE REVERT JUMPDEST PUSH1 0x3 ADD SLOAD PUSH1 0x60 SWAP8 POP SWAP1 SWAP3 POP ISZERO SWAP1 POP PUSH2 0x9CE JUMPI POP PUSH1 0x64 JUMPDEST SWAP2 PUSH2 0x993 JUMP JUMPDEST PUSH2 0x9C8 JUMP JUMPDEST POP POP PUSH4 0x4E487B71 PUSH1 0xE0 SHL DUP2 MSTORE PUSH1 0x11 DUP4 MSTORE REVERT JUMPDEST POP PUSH1 0x2 DUP8 ADD SLOAD ISZERO PUSH2 0x9FB JUMPI PUSH1 0x3 PUSH1 0x64 JUMPDEST SWAP6 PUSH2 0x95E JUMP JUMPDEST PUSH1 0x3 DUP2 PUSH2 0x9F5 JUMP JUMPDEST PUSH4 0x4E487B71 PUSH1 0xE0 SHL DUP8 MSTORE PUSH1 0x11 DUP5 MSTORE DUP3 DUP8 REVERT JUMPDEST POP PUSH1 0x1 DUP7 ADD SLOAD ISZERO PUSH2 0xA29 JUMPI PUSH1 0x64 JUMPDEST SWAP5 PUSH2 0x92A JUMP JUMPDEST DUP5 PUSH2 0xA23 JUMP JUMPDEST POP PUSH1 0x3A DUP6 PUSH1 0x20 PUSH1 0x84 SWAP5 MLOAD SWAP4 PUSH3 0x461BCD PUSH1 0xE5 SHL DUP6 MSTORE DUP5 ADD MSTORE DUP3 ADD MSTORE PUSH32 0x4C27696E6465782064652064C3A97061727420646F697420C3AA74726520696E PUSH1 0x44 DUP3 ADD MSTORE PUSH32 0x66C3A9726965757220C3A0206C27696E6465782064652066696E000000000000 PUSH1 0x64 DUP3 ADD MSTORE REVERT JUMPDEST POP PUSH1 0x15 DUP6 PUSH1 0x20 PUSH1 0x64 SWAP5 MLOAD SWAP4 PUSH3 0x461BCD PUSH1 0xE5 SHL DUP6 MSTORE DUP5 ADD MSTORE DUP3 ADD MSTORE PUSH21 0x496E6465782064652066696E20696E76616C696465 PUSH1 0x58 SHL PUSH1 0x44 DUP3 ADD MSTORE REVERT JUMPDEST DUP4 MLOAD PUSH3 0x461BCD PUSH1 0xE5 SHL DUP2 MSTORE PUSH1 0x20 DUP2 DUP6 ADD MSTORE PUSH1 0x19 DUP2 DUP10 ADD MSTORE PUSH32 0x496E6465782064652064C3A97061727420696E76616C69646500000000000000 PUSH1 0x44 DUP3 ADD MSTORE PUSH1 0x64 SWAP1 REVERT JUMPDEST POP SWAP2 SWAP1 CALLVALUE PUSH2 0x1E2 JUMPI PUSH1 0x20 CALLDATASIZE PUSH1 0x3 NOT ADD SLT PUSH2 0x1E2 JUMPI PUSH1 0x1 PUSH1 0x1 PUSH1 0xA0 SHL SUB SWAP3 SWAP1 CALLDATALOAD DUP4 DUP2 AND SWAP1 DUP2 SWAP1 SUB PUSH2 0x1BF JUMPI PUSH1 0x20 SWAP4 DUP2 DUP5 MSTORE PUSH1 0x5 DUP6 MSTORE PUSH1 0xFF DUP4 DUP6 KECCAK256 SLOAD AND SWAP4 DUP5 ISZERO PUSH2 0xB61 JUMPI JUMPDEST POP POP POP MLOAD SWAP1 ISZERO ISZERO DUP2 MSTORE RETURN JUMPDEST SLOAD AND EQ SWAP2 POP CODESIZE DUP1 DUP1 PUSH2 0xB56 JUMP JUMPDEST DUP4 DUP3 CALLVALUE PUSH2 0x1E2 JUMPI DUP2 PUSH1 0x3 NOT CALLDATASIZE ADD SLT PUSH2 0x1E2 JUMPI PUSH1 0x1 SLOAD SWAP1 MLOAD PUSH1 0x1 PUSH1 0x1 PUSH1 0xA0 SHL SUB SWAP1 SWAP2 AND DUP2 MSTORE PUSH1 0x20 SWAP1 RETURN JUMPDEST POP CALLVALUE PUSH2 0x1BF JUMPI PUSH1 0x20 CALLDATASIZE PUSH1 0x3 NOT ADD SLT PUSH2 0x1BF JUMPI DUP2 CALLDATALOAD PUSH1 0x1 PUSH1 0x1 PUSH1 0xA0 SHL SUB DUP2 DUP2 AND SWAP4 SWAP2 DUP5 SWAP1 SUB PUSH2 0x1BB JUMPI DUP5 SLOAD AND PUSH2 0xBCD CALLER DUP3 EQ PUSH2 0xD33 JUMP JUMPDEST DUP4 DUP6 MSTORE PUSH1 0x5 PUSH1 0x20 MSTORE PUSH1 0xFF DUP4 DUP7 KECCAK256 SLOAD AND ISZERO PUSH2 0xC74 JUMPI DUP4 EQ PUSH2 0xC21 JUMPI POP DUP2 DUP4 MSTORE PUSH1 0x5 PUSH1 0x20 MSTORE DUP3 KECCAK256 DUP1 SLOAD PUSH1 0xFF NOT AND SWAP1 SSTORE PUSH32 0xA3B62BC36326052D97EA62D63C3D60308ED4C3EA8AC079DD8499F1E9C4F80C0F DUP3 DUP1 LOG2 DUP1 RETURN JUMPDEST PUSH1 0x20 PUSH1 0x84 SWAP3 MLOAD SWAP2 PUSH3 0x461BCD PUSH1 0xE5 SHL DUP4 MSTORE DUP3 ADD MSTORE PUSH1 0x28 PUSH1 0x24 DUP3 ADD MSTORE PUSH32 0x496D706F737369626C65206465207375707072696D6572206C652070726F7072 PUSH1 0x44 DUP3 ADD MSTORE PUSH8 0x69C3A97461697265 PUSH1 0xC0 SHL PUSH1 0x64 DUP3 ADD MSTORE REVERT JUMPDEST POP PUSH1 0x20 PUSH1 0x64 SWAP3 MLOAD SWAP2 PUSH3 0x461BCD PUSH1 0xE5 SHL DUP4 MSTORE DUP3 ADD MSTORE PUSH1 0x15 PUSH1 0x24 DUP3 ADD MSTORE PUSH21 0x2830B9903AB71030B236B4B734B9BA3930BA32BAB9 PUSH1 0x59 SHL PUSH1 0x44 DUP3 ADD MSTORE REVERT JUMPDEST SWAP1 DUP2 MLOAD DUP1 DUP3 MSTORE PUSH1 0x20 DUP1 DUP1 SWAP4 ADD SWAP4 ADD SWAP2 PUSH1 0x0 JUMPDEST DUP3 DUP2 LT PUSH2 0xCCF JUMPI POP POP POP POP SWAP1 JUMP JUMPDEST DUP4 MLOAD DUP6 MSTORE SWAP4 DUP2 ADD SWAP4 SWAP3 DUP2 ADD SWAP3 PUSH1 0x1 ADD PUSH2 0xCC1 JUMP JUMPDEST PUSH1 0x2 SLOAD DUP2 LT ISZERO PUSH2 0xD1D JUMPI PUSH1 0x2 PUSH1 0x0 MSTORE PUSH1 0x2 SHL PUSH32 0x405787FA12A823E0F2B7631CC41B3BA8828B3321CA811111FA75CD3AA3BB5ACE ADD SWAP1 PUSH1 0x0 SWAP1 JUMP JUMPDEST PUSH4 0x4E487B71 PUSH1 0xE0 SHL PUSH1 0x0 MSTORE PUSH1 0x32 PUSH1 0x4 MSTORE PUSH1 0x24 PUSH1 0x0 REVERT JUMPDEST ISZERO PUSH2 0xD3A JUMPI JUMP JUMPDEST PUSH1 0x40 MLOAD PUSH3 0x461BCD PUSH1 0xE5 SHL DUP2 MSTORE PUSH1 0x20 PUSH1 0x4 DUP3 ADD MSTORE PUSH1 0x2D PUSH1 0x24 DUP3 ADD MSTORE PUSH32 0x4F776E61626C653A206C5F617070656C616E74206E5F65737420706173206C65 PUSH1 0x44 DUP3 ADD MSTORE PUSH13 0x2070726F707269657461697265 PUSH1 0x98 SHL PUSH1 0x64 DUP3 ADD MSTORE PUSH1 0x84 SWAP1 REVERT JUMPDEST ISZERO PUSH2 0xD9C JUMPI JUMP JUMPDEST PUSH1 0x40 MLOAD PUSH3 0x461BCD PUSH1 0xE5 SHL DUP2 MSTORE PUSH1 0x20 PUSH1 0x4 DUP3 ADD MSTORE PUSH1 0x10 PUSH1 0x24 DUP3 ADD MSTORE PUSH16 0x4164726573736520696E76616C696465 PUSH1 0x80 SHL PUSH1 0x44 DUP3 ADD MSTORE PUSH1 0x64 SWAP1 REVERT JUMPDEST SWAP2 SWAP1 DUP3 ADD DUP1 SWAP3 GT PUSH2 0xDE1 JUMPI JUMP JUMPDEST PUSH4 0x4E487B71 PUSH1 0xE0 SHL PUSH1 0x0 MSTORE PUSH1 0x11 PUSH1 0x4 MSTORE PUSH1 0x24 PUSH1 0x0 REVERT JUMPDEST PUSH1 0x80 DUP2 ADD SWAP1 DUP2 LT PUSH8 0xFFFFFFFFFFFFFFFF DUP3 GT OR PUSH2 0xE13 JUMPI PUSH1 0x40 MSTORE JUMP JUMPDEST PUSH4 0x4E487B71 PUSH1 0xE0 SHL PUSH1 0x0 MSTORE PUSH1 0x41 PUSH1 0x4 MSTORE PUSH1 0x24 PUSH1 0x0 REVERT JUMPDEST SWAP1 PUSH1 0x1F DUP1 NOT SWAP2 ADD AND DUP2 ADD SWAP1 DUP2 LT PUSH8 0xFFFFFFFFFFFFFFFF DUP3 GT OR PUSH2 0xE13 JUMPI PUSH1 0x40 MSTORE JUMP JUMPDEST SWAP1 DUP2 PUSH1 0xA0 SWAP2 SUB SLT PUSH2 0xE72 JUMPI DUP1 MLOAD SWAP2 PUSH1 0x20 DUP3 ADD MLOAD SWAP2 PUSH1 0x40 DUP2 ADD MLOAD SWAP2 PUSH1 0x80 PUSH1 0x60 DUP4 ADD MLOAD SWAP3 ADD MLOAD SWAP1 JUMP JUMPDEST PUSH1 0x0 DUP1 REVERT JUMPDEST PUSH1 0x2 SLOAD PUSH9 0x10000000000000000 DUP2 LT ISZERO PUSH2 0xE13 JUMPI DUP1 PUSH1 0x1 PUSH2 0xE9B SWAP3 ADD PUSH1 0x2 SSTORE PUSH2 0xCE3 JUMP JUMPDEST SWAP2 SWAP1 SWAP2 PUSH2 0xEC6 JUMPI PUSH1 0x60 DUP2 PUSH1 0x3 SWAP3 MLOAD DUP5 SSTORE PUSH1 0x20 DUP2 ADD MLOAD PUSH1 0x1 DUP6 ADD SSTORE PUSH1 0x40 DUP2 ADD MLOAD PUSH1 0x2 DUP6 ADD SSTORE ADD MLOAD SWAP2 ADD SSTORE JUMP JUMPDEST PUSH4 0x4E487B71 PUSH1 0xE0 SHL PUSH1 0x0 MSTORE PUSH1 0x0 PUSH1 0x4 MSTORE PUSH1 0x24 PUSH1 0x0 REVERT JUMPDEST PUSH8 0xFFFFFFFFFFFFFFFF DUP2 GT PUSH2 0xE13 JUMPI PUSH1 0x5 SHL PUSH1 0x20 ADD SWAP1 JUMP JUMPDEST SWAP1 PUSH2 0xEFE DUP3 PUSH2 0xEDC JUMP JUMPDEST PUSH2 0xF0B PUSH1 0x40 MLOAD SWAP2 DUP3 PUSH2 0xE29 JUMP JUMPDEST DUP3 DUP2 MSTORE DUP1 SWAP3 PUSH2 0xF1C PUSH1 0x1F NOT SWAP2 PUSH2 0xEDC JUMP JUMPDEST ADD SWAP1 PUSH1 0x20 CALLDATASIZE SWAP2 ADD CALLDATACOPY JUMP JUMPDEST DUP1 MLOAD DUP3 LT ISZERO PUSH2 0xD1D JUMPI PUSH1 0x20 SWAP2 PUSH1 0x5 SHL ADD ADD SWAP1 JUMP JUMPDEST DUP2 ISZERO PUSH2 0xF44 JUMPI DIV SWAP1 JUMP JUMPDEST PUSH4 0x4E487B71 PUSH1 0xE0 SHL PUSH1 0x0 MSTORE PUSH1 0x12 PUSH1 0x4 MSTORE PUSH1 0x24 PUSH1 0x0 REVERT JUMPDEST SWAP1 PUSH1 0x63 NOT DUP3 ADD SWAP2 DUP3 SGT PUSH1 0x1 AND PUSH2 0xDE1 JUMPI JUMP INVALID LOG2 PUSH5 0x6970667358 0x22 SLT KECCAK256 0xFC MOD MSIZE TIMESTAMP 0xD1 INVALID LOG1 TIMESTAMP PUSH28 0x185FB70CB7A7E86CC310277A4F28BE61E926C597E5301F64736F6C63 NUMBER STOP ADDMOD EQ STOP CALLER "},"methodIdentifiers":{"addAdmin(address)":"70480275","admins(address)":"429b62e5","analyticsHistory(uint256)":"99bc24a5","calculateGrowth(uint256,uint256)":"3a127e2e","forceRecordAnalytics()":"62fef970","getAnalyticsCount()":"c48c10b7","getRecentAnalytics(uint256)":"5158a18b","isAdmin(address)":"24d7806c","lastRecordTimestamp()":"63ac70b6","owner()":"8da5cb5b","recordAnalytics()":"b54166c0","recordInterval()":"c7100d21","removeAdmin(address)":"1785f53c","renounceOwnership()":"715018a6","stakingManager()":"22828cc2","transferOwnership(address)":"f2fde38b","updateRecordInterval(uint256)":"509f7803","updateStakingManager(address)":"96a1b6b5"}}}}}