{
  "_format": "hh-sol-artifact-1",
  "contractName": "MonitoringInterface",
  "sourceName": "contracts/MonitoringInterface.sol",
  "abi": [
    {
      "inputs": [
        {
          "internalType": "contract StakingManager",
          "name": "_stakingManager",
          "type": "address"
        }
      ],
      "stateMutability": "nonpayable",
      "type": "constructor"
    },
    {
      "anonymous": false,
      "inputs": [
        {
          "indexed": true,
          "internalType": "address",
          "name": "previousOwner",
          "type": "address"
        },
        {
          "indexed": true,
          "internalType": "address",
          "name": "newOwner",
          "type": "address"
        }
      ],
      "name": "OwnershipTransferred",
      "type": "event"
    },
    {
      "anonymous": false,
      "inputs": [
        {
          "indexed": true,
          "internalType": "address",
          "name": "user",
          "type": "address"
        },
        {
          "indexed": false,
          "internalType": "uint256",
          "name": "totalStaked",
          "type": "uint256"
        },
        {
          "indexed": false,
          "internalType": "uint256",
          "name": "totalRewards",
          "type": "uint256"
        }
      ],
      "name": "UserDataFetched",
      "type": "event"
    },
    {
      "anonymous": false,
      "inputs": [
        {
          "indexed": true,
          "internalType": "address",
          "name": "user",
          "type": "address"
        }
      ],
      "name": "UserRegistered",
      "type": "event"
    },
    {
      "inputs": [
        {
          "internalType": "address",
          "name": "_stakingContract",
          "type": "address"
        },
        {
          "internalType": "uint256",
          "name": "_pid",
          "type": "uint256"
        }
      ],
      "name": "getPoolDetails",
      "outputs": [
        {
          "internalType": "address",
          "name": "lpToken",
          "type": "address"
        },
        {
          "internalType": "uint256",
          "name": "allocPoint",
          "type": "uint256"
        },
        {
          "internalType": "uint256",
          "name": "totalStaked",
          "type": "uint256"
        },
        {
          "internalType": "bool",
          "name": "isActive",
          "type": "bool"
        },
        {
          "internalType": "uint256",
          "name": "apr",
          "type": "uint256"
        }
      ],
      "stateMutability": "view",
      "type": "function"
    },
    {
      "inputs": [
        {
          "internalType": "address",
          "name": "_user",
          "type": "address"
        }
      ],
      "name": "getUserStakingData",
      "outputs": [
        {
          "components": [
            {
              "internalType": "address",
              "name": "stakingContract",
              "type": "address"
            },
            {
              "internalType": "uint256",
              "name": "poolId",
              "type": "uint256"
            },
            {
              "internalType": "uint256",
              "name": "amount",
              "type": "uint256"
            },
            {
              "internalType": "uint256",
              "name": "pendingRewards",
              "type": "uint256"
            },
            {
              "internalType": "uint256",
              "name": "lastStakeTime",
              "type": "uint256"
            },
            {
              "internalType": "bool",
              "name": "isActive",
              "type": "bool"
            }
          ],
          "internalType": "struct MonitoringInterface.UserStakingData[]",
          "name": "stakingData",
          "type": "tuple[]"
        },
        {
          "internalType": "uint256",
          "name": "totalStakedAmount",
          "type": "uint256"
        },
        {
          "internalType": "uint256",
          "name": "totalPendingRewards",
          "type": "uint256"
        }
      ],
      "stateMutability": "nonpayable",
      "type": "function"
    },
    {
      "inputs": [
        {
          "internalType": "address",
          "name": "_user",
          "type": "address"
        }
      ],
      "name": "getUserSummary",
      "outputs": [
        {
          "internalType": "uint256",
          "name": "totalStakingContracts",
          "type": "uint256"
        },
        {
          "internalType": "uint256",
          "name": "totalPools",
          "type": "uint256"
        },
        {
          "internalType": "uint256",
          "name": "totalStaked",
          "type": "uint256"
        },
        {
          "internalType": "uint256",
          "name": "totalRewards",
          "type": "uint256"
        },
        {
          "internalType": "uint256",
          "name": "stakingSince",
          "type": "uint256"
        }
      ],
      "stateMutability": "view",
      "type": "function"
    },
    {
      "inputs": [
        {
          "internalType": "address",
          "name": "_user",
          "type": "address"
        },
        {
          "internalType": "address",
          "name": "_stakingContract",
          "type": "address"
        },
        {
          "internalType": "uint256",
          "name": "_pid",
          "type": "uint256"
        }
      ],
      "name": "isUserStakingInPool",
      "outputs": [
        {
          "internalType": "bool",
          "name": "",
          "type": "bool"
        }
      ],
      "stateMutability": "view",
      "type": "function"
    },
    {
      "inputs": [],
      "name": "owner",
      "outputs": [
        {
          "internalType": "address",
          "name": "",
          "type": "address"
        }
      ],
      "stateMutability": "view",
      "type": "function"
    },
    {
      "inputs": [],
      "name": "renounceOwnership",
      "outputs": [],
      "stateMutability": "nonpayable",
      "type": "function"
    },
    {
      "inputs": [],
      "name": "stakingManager",
      "outputs": [
        {
          "internalType": "contract StakingManager",
          "name": "",
          "type": "address"
        }
      ],
      "stateMutability": "view",
      "type": "function"
    },
    {
      "inputs": [
        {
          "internalType": "address",
          "name": "newOwner",
          "type": "address"
        }
      ],
      "name": "transferOwnership",
      "outputs": [],
      "stateMutability": "nonpayable",
      "type": "function"
    },
    {
      "inputs": [
        {
          "internalType": "contract StakingManager",
          "name": "_newManager",
          "type": "address"
        }
      ],
      "name": "updateStakingManager",
      "outputs": [],
      "stateMutability": "nonpayable",
      "type": "function"
    }
  ],
  "bytecode": "0x6080346100a757601f61139c38819003918201601f19168301916001600160401b038311848410176100ac578084926020946040528339810103126100a757516001600160a01b0390818116908190036100a75760005460018060a01b0319903382821617600055604051933391167f8be0079c531659141344cd1fd0a4f28419497f9722a3daafe3b4186f6b6457e0600080a360015416176001556112d990816100c38239f35b600080fd5b634e487b7160e01b600052604160045260246000fdfe608080604052600436101561001357600080fd5b60003560e01c90816322828cc214610fa1575080633f09481e14610e56578063436ec6ef1461089f5780634ba5ab84146105b4578063715018a6146105575780638da5cb5b1461052e5780638fbd0c2d146101eb57806396a1b6b51461015a5763f2fde38b1461008257600080fd5b346101555760203660031901126101555761009b610fc5565b600054906001600160a01b03808316916100b6338414610fdb565b169182156100f5576001600160a01b031916821760009081557f8be0079c531659141344cd1fd0a4f28419497f9722a3daafe3b4186f6b6457e09080a3005b60405162461bcd60e51b815260206004820152603260248201527f4f776e61626c653a206e6f75766561752070726f707269c3a9746169726520656044820152717374206c2761647265737365207ac3a9726f60701b6064820152608490fd5b600080fd5b34610155576020366003190112610155576004356001600160a01b03818116918290036101555761019090600054163314610fdb565b80156101b3576bffffffffffffffffffffffff60a01b6001541617600155600080f35b60405162461bcd60e51b815260206004820152601060248201526f4164726573736520696e76616c69646560801b6044820152606490fd5b3461015557602036600319011261015557610204610fc5565b60008060008060018060a01b0360015416604051956301aea47f60e41b8752602087600481855afa96871561044a576000976104fa575b506000199160005b888110610281575060a097505050600019810361027b57506000925b6040519485526020850152604084015260608301526080820152f35b9261025f565b604051632355921d60e21b815260048101829052600081602481865afa801561044a576000916000916104cd575b506102c4575b506102bf90611091565b610243565b60405162ff815b60e01b81526001600160a01b0385811660048301526020908290602490829086165afa90811561044a57600091610493575b50156102b557939692949598909761031490611091565b604051631302d5eb60e31b81526001600160a01b038781166004830152909490600090869060249082908a165afa94851561044a5760009561046a575b50845161035d9161121e565b60005b8551811015610456576103ab60a089610379848a61122b565b51604051631069f3b560e01b815260048101919091526001600160a01b03909116602482015291829081906044820190565b0381600180851b038c165afa801561044a5760008091600093600091610412575b506103e3575b5050506103de90611091565b610360565b6103f2906103f8939f9c61121e565b9a61121e565b9b8a8110610408575b80806103d2565b99506103de610401565b92505050610438915060a03d60a011610443575b610430818361106f565b810190611255565b9093919250386103cc565b503d610426565b6040513d6000823e3d90fd5b50979450976102bf919996959350906102b5565b61035d91955061048c903d806000833e610484818361106f565b8101906111a4565b9490610351565b90506020813d6020116104c5575b816104ae6020938361106f565b81010312610155576104bf906110ca565b8b6102fd565b3d91506104a1565b90506104ec91503d806000833e6104e4818361106f565b8101906110d7565b50505050919050908b6102af565b9096506020813d602011610526575b816105166020938361106f565b810103126101555751958761023b565b3d9150610509565b34610155576000366003190112610155576000546040516001600160a01b039091168152602090f35b3461015557600036600319011261015557600080546001600160a01b03811690610582338314610fdb565b6001600160a01b03191682557f8be0079c531659141344cd1fd0a4f28419497f9722a3daafe3b4186f6b6457e08280a3005b34610155576040366003190112610155576105cd610fc5565b60015460405163f1052af560e01b81526001600160a01b0392831660048201819052602493602093909290849082908790829087165afa90811561044a5760009161086a575b501561082657604051632f380b3560e01b81528435600482015260c0818681855afa91821561044a576000946000916000936000956107cc575b506040516322b8e72b60e21b81528281600481855afa90811561044a57839060009261079e575b506040516317caf6f160e01b81529192829060049082905afa90811561044a57600091610771575b5080151580610768575b1561075a5783820291808304851490151715610745576106c591611283565b9662a066809788810298818a04148115171561073057633ea80a0002978089046064149015171561071c57506106fd8360a098611283565b945b604051961686528501526040840152151560608301526080820152f35b634e487b7160e01b60009081526011600452fd5b50634e487b7160e01b60009081526011600452fd5b88634e487b7160e01b60005260116004526000fd5b505060a096506000946106ff565b508415156106a6565b90508281813d8311610797575b610788818361106f565b8101031261015557518961069c565b503d61077e565b809250813d83116107c5575b6107b4818361106f565b810103126101555751826004610674565b503d6107aa565b9350935094505060c0813d821161081e575b816107eb60c0938361106f565b81010312610155576107fc816110b6565b90848101519461081360a0608084015193016110ca565b92959192938861064d565b3d91506107de565b60405162461bcd60e51b8152600481018490526017818601527f436f6e74726174206e6f6e20656e72656769737472c3a90000000000000000006044820152606490fd5b90508381813d8311610898575b610881818361106f565b8101031261015557610892906110ca565b85610613565b503d610877565b34610155576020366003190112610155576108b8610fc5565b6001546040516301aea47f60e41b8152916001600160a01b0390911690602083600481855afa92831561044a57600093610e22575b5060009060005b848110610cd657506109058261118c565b91610913604051938461106f565b808352610922601f199161118c565b0160005b818110610c9557505060009360009460009460005b838110610a0f57505050507fe6e2b1193dc22bbdbae028d5c2ff52ae11cd8acfba56564a6533a9f75408d3ce604080519286845285602085015260018060a01b031692a26040519160608084018185528351809152608060208187019501926000915b8383106109b857878088888c602084015260408301520390f35b845180516001600160a01b03168852602081810151818a0152604080830151908a01528184015189850152818301518984015260a09182015115159189019190915260c0909701969094019360019092019161099e565b604051632355921d60e21b815260048101829052600081602481865afa801561044a57600091600091610c70575b50610a52575b50610a4d90611091565b61093b565b60405162ff815b60e01b81526001600160a01b0387811660048301526020908290602490829086165afa90811561044a57600091610c36575b5015610a4357916040979395969491975191631302d5eb60e31b835260018060a01b038816600484015260008360248160018060a01b0388165afa92831561044a57600093610c19575b5060005b8351811015610c0557610b22610aef828661122b565b51604051631069f3b560e01b8152600481018290526001600160a01b038c1660248201529160a090839081906044820190565b0381600180851b038b165afa91821561044a57600091600093600092600091610bdb575b50610b5e575b50505050610b5990611091565b610ad9565b610bcb928c9a9f610bbf610b59979e8e8d610bd19997610bc59760405192610b858461103d565b6001600160a01b03168352602083015260408201879052606082018990526080820152600160a0820152610bb9838361122b565b5261122b565b5061121e565b9d61121e565b96611091565b97908c8080610b4c565b9250509250610bf9915060a03d60a01161044357610430818361106f565b92509390939138610b46565b509496959397909250610a4d915090610a43565b610c2f9193503d806000833e610484818361106f565b918a610ad5565b90506020813d602011610c68575b81610c516020938361106f565b8101031261015557610c62906110ca565b8a610a8b565b3d9150610c44565b9050610c8791503d806000833e6104e4818361106f565b50505050919050908a610a3d565b602090604051610ca48161103d565b60008152600083820152600060408201526000606082015260006080820152600060a082015282828701015201610926565b604051632355921d60e21b8152600481018290526024906000818381895afa801561044a57600091600091610dfd575b50610d1c575b5050610d1790611091565b6108f4565b60405162ff815b60e01b81526001600160a01b0385811660048301819052921692906020818381875afa90811561044a57600091610dc3575b50610d61575b50610d0c565b9060009160409694965180948193631302d5eb60e31b835260048301525afa91821561044a57610d1792610d9f92600091610da8575b50519061121e565b92908680610d5b565b610dbd91503d806000833e610484818361106f565b88610d97565b90506020813d602011610df5575b81610dde6020938361106f565b8101031261015557610def906110ca565b89610d55565b3d9150610dd1565b9050610e1491503d806000833e6104e4818361106f565b505050509190509088610d06565b9092506020813d602011610e4e575b81610e3e6020938361106f565b81010312610155575191836108ed565b3d9150610e31565b3461015557606036600319011261015557610e6f610fc5565b6024356001600160a01b038181169291839003610155576001541691604051809363f1052af560e01b825282600483015281602460209687935afa90811561044a57600091610f6c575b5015610f2e57604051631069f3b560e01b81526044803560048301526001600160a01b039390931660248201529160a09183919082905afa90811561044a57600091610f0b575b506040519015158152f35b610f23915060a03d811161044357610430818361106f565b935050505082610f00565b60405162461bcd60e51b8152600481018490526016602482015275436f6e74726174206e6f6e20656e726567697374726560501b6044820152606490fd5b90508381813d8311610f9a575b610f83818361106f565b8101031261015557610f94906110ca565b84610eb9565b503d610f79565b34610155576000366003190112610155576001546001600160a01b03168152602090f35b600435906001600160a01b038216820361015557565b15610fe257565b60405162461bcd60e51b815260206004820152602d60248201527f4f776e61626c653a206c5f617070656c616e74206e5f65737420706173206c6560448201526c2070726f70726965746169726560981b6064820152608490fd5b60c0810190811067ffffffffffffffff82111761105957604052565b634e487b7160e01b600052604160045260246000fd5b90601f8019910116810190811067ffffffffffffffff82111761105957604052565b60001981146110a05760010190565b634e487b7160e01b600052601160045260246000fd5b51906001600160a01b038216820361015557565b5190811515820361015557565b909160e082840312610155576110ec826110b6565b9260208084015167ffffffffffffffff9081811161015557850183601f820112156101555780519182116110595760405193611131601f8401601f191685018661106f565b8285528383830101116101555760005b82811061117957505090600091830101529161115f604082016110ca565b9160608201519160808101519160c060a083015192015190565b8181018401518582018501528301611141565b67ffffffffffffffff81116110595760051b60200190565b60209081818403126101555780519067ffffffffffffffff821161015557019180601f840112156101555782516111da8161118c565b936111e8604051958661106f565b818552838086019260051b820101928311610155578301905b82821061120f575050505090565b81518152908301908301611201565b919082018092116110a057565b805182101561123f5760209160051b010190565b634e487b7160e01b600052603260045260246000fd5b908160a0910312610155578051916020820151916040810151916112806080606084015193016110ca565b90565b811561128d570490565b634e487b7160e01b600052601260045260246000fdfea2646970667358221220c02e00e9efa1b15be8c555d476c5959e1c0c49818d1e5a045e4267eb27084e2164736f6c63430008140033",
  "linkReferences": {},
  "deployedLinkReferences": {}
}