{
  "_format": "hh-sol-artifact-1",
  "contractName": "StakingPancakeSwap",
  "sourceName": "contracts/StakingPancakeSwap.sol",
  "abi": [
    {
      "inputs": [
        {
          "internalType": "contract IERC20",
          "name": "_rewardToken",
          "type": "address"
        },
        {
          "internalType": "uint256",
          "name": "_rewardPerBlock",
          "type": "uint256"
        },
        {
          "internalType": "uint256",
          "name": "_startBlock",
          "type": "uint256"
        },
        {
          "internalType": "contract IPancakeRouter02",
          "name": "_pancakeRouter",
          "type": "address"
        }
      ],
      "stateMutability": "nonpayable",
      "type": "constructor"
    },
    {
      "anonymous": false,
      "inputs": [
        {
          "indexed": true,
          "internalType": "address",
          "name": "user",
          "type": "address"
        },
        {
          "indexed": true,
          "internalType": "uint256",
          "name": "pid",
          "type": "uint256"
        },
        {
          "indexed": false,
          "internalType": "uint256",
          "name": "amount",
          "type": "uint256"
        }
      ],
      "name": "Deposit",
      "type": "event"
    },
    {
      "anonymous": false,
      "inputs": [
        {
          "indexed": true,
          "internalType": "address",
          "name": "user",
          "type": "address"
        },
        {
          "indexed": true,
          "internalType": "uint256",
          "name": "pid",
          "type": "uint256"
        },
        {
          "indexed": false,
          "internalType": "uint256",
          "name": "amount",
          "type": "uint256"
        }
      ],
      "name": "EmergencyWithdraw",
      "type": "event"
    },
    {
      "anonymous": false,
      "inputs": [
        {
          "indexed": true,
          "internalType": "address",
          "name": "previousOwner",
          "type": "address"
        },
        {
          "indexed": true,
          "internalType": "address",
          "name": "newOwner",
          "type": "address"
        }
      ],
      "name": "OwnershipTransferred",
      "type": "event"
    },
    {
      "anonymous": false,
      "inputs": [
        {
          "indexed": true,
          "internalType": "uint256",
          "name": "pid",
          "type": "uint256"
        },
        {
          "indexed": false,
          "internalType": "address",
          "name": "lpToken",
          "type": "address"
        },
        {
          "indexed": false,
          "internalType": "uint256",
          "name": "allocPoint",
          "type": "uint256"
        }
      ],
      "name": "PoolAdded",
      "type": "event"
    },
    {
      "anonymous": false,
      "inputs": [
        {
          "indexed": true,
          "internalType": "uint256",
          "name": "pid",
          "type": "uint256"
        },
        {
          "indexed": false,
          "internalType": "uint256",
          "name": "allocPoint",
          "type": "uint256"
        },
        {
          "indexed": false,
          "internalType": "bool",
          "name": "isActive",
          "type": "bool"
        }
      ],
      "name": "PoolUpdated",
      "type": "event"
    },
    {
      "anonymous": false,
      "inputs": [
        {
          "indexed": true,
          "internalType": "address",
          "name": "user",
          "type": "address"
        },
        {
          "indexed": true,
          "internalType": "uint256",
          "name": "pid",
          "type": "uint256"
        },
        {
          "indexed": false,
          "internalType": "uint256",
          "name": "amount",
          "type": "uint256"
        }
      ],
      "name": "RewardClaimed",
      "type": "event"
    },
    {
      "anonymous": false,
      "inputs": [
        {
          "indexed": false,
          "internalType": "uint256",
          "name": "oldRate",
          "type": "uint256"
        },
        {
          "indexed": false,
          "internalType": "uint256",
          "name": "newRate",
          "type": "uint256"
        }
      ],
      "name": "RewardRateUpdated",
      "type": "event"
    },
    {
      "anonymous": false,
      "inputs": [
        {
          "indexed": false,
          "internalType": "uint256",
          "name": "oldPeriod",
          "type": "uint256"
        },
        {
          "indexed": false,
          "internalType": "uint256",
          "name": "newPeriod",
          "type": "uint256"
        }
      ],
      "name": "StakingPeriodUpdated",
      "type": "event"
    },
    {
      "anonymous": false,
      "inputs": [
        {
          "indexed": true,
          "internalType": "address",
          "name": "user",
          "type": "address"
        },
        {
          "indexed": true,
          "internalType": "uint256",
          "name": "pid",
          "type": "uint256"
        },
        {
          "indexed": false,
          "internalType": "uint256",
          "name": "amount",
          "type": "uint256"
        }
      ],
      "name": "Withdraw",
      "type": "event"
    },
    {
      "anonymous": false,
      "inputs": [
        {
          "indexed": false,
          "internalType": "uint256",
          "name": "oldFee",
          "type": "uint256"
        },
        {
          "indexed": false,
          "internalType": "uint256",
          "name": "newFee",
          "type": "uint256"
        }
      ],
      "name": "WithdrawalFeeUpdated",
      "type": "event"
    },
    {
      "inputs": [
        {
          "internalType": "uint256",
          "name": "_allocPoint",
          "type": "uint256"
        },
        {
          "internalType": "contract IERC20",
          "name": "_lpToken",
          "type": "address"
        },
        {
          "internalType": "bool",
          "name": "_withUpdate",
          "type": "bool"
        }
      ],
      "name": "addPool",
      "outputs": [],
      "stateMutability": "nonpayable",
      "type": "function"
    },
    {
      "inputs": [
        {
          "internalType": "uint256",
          "name": "_pid",
          "type": "uint256"
        }
      ],
      "name": "claimReward",
      "outputs": [],
      "stateMutability": "nonpayable",
      "type": "function"
    },
    {
      "inputs": [
        {
          "internalType": "uint256",
          "name": "_pid",
          "type": "uint256"
        },
        {
          "internalType": "uint256",
          "name": "_amount",
          "type": "uint256"
        }
      ],
      "name": "deposit",
      "outputs": [],
      "stateMutability": "nonpayable",
      "type": "function"
    },
    {
      "inputs": [],
      "name": "earlyWithdrawalFee",
      "outputs": [
        {
          "internalType": "uint256",
          "name": "",
          "type": "uint256"
        }
      ],
      "stateMutability": "view",
      "type": "function"
    },
    {
      "inputs": [
        {
          "internalType": "uint256",
          "name": "_pid",
          "type": "uint256"
        }
      ],
      "name": "emergencyWithdraw",
      "outputs": [],
      "stateMutability": "nonpayable",
      "type": "function"
    },
    {
      "inputs": [
        {
          "internalType": "uint256",
          "name": "_pid",
          "type": "uint256"
        }
      ],
      "name": "getPoolInfo",
      "outputs": [
        {
          "internalType": "address",
          "name": "lpToken",
          "type": "address"
        },
        {
          "internalType": "uint256",
          "name": "allocPoint",
          "type": "uint256"
        },
        {
          "internalType": "uint256",
          "name": "lastRewardBlock",
          "type": "uint256"
        },
        {
          "internalType": "uint256",
          "name": "accRewardPerShare",
          "type": "uint256"
        },
        {
          "internalType": "uint256",
          "name": "totalStaked",
          "type": "uint256"
        },
        {
          "internalType": "bool",
          "name": "isActive",
          "type": "bool"
        }
      ],
      "stateMutability": "view",
      "type": "function"
    },
    {
      "inputs": [],
      "name": "getTotalValueLockedUSD",
      "outputs": [
        {
          "internalType": "uint256",
          "name": "",
          "type": "uint256"
        }
      ],
      "stateMutability": "view",
      "type": "function"
    },
    {
      "inputs": [
        {
          "internalType": "uint256",
          "name": "_pid",
          "type": "uint256"
        },
        {
          "internalType": "address",
          "name": "_user",
          "type": "address"
        }
      ],
      "name": "getUserInfo",
      "outputs": [
        {
          "internalType": "uint256",
          "name": "amount",
          "type": "uint256"
        },
        {
          "internalType": "uint256",
          "name": "rewardDebt",
          "type": "uint256"
        },
        {
          "internalType": "uint256",
          "name": "pendingRewards",
          "type": "uint256"
        },
        {
          "internalType": "uint256",
          "name": "lastStakeTime",
          "type": "uint256"
        },
        {
          "internalType": "bool",
          "name": "isStaking",
          "type": "bool"
        }
      ],
      "stateMutability": "view",
      "type": "function"
    },
    {
      "inputs": [
        {
          "internalType": "address",
          "name": "_user",
          "type": "address"
        }
      ],
      "name": "getUserPools",
      "outputs": [
        {
          "internalType": "uint256[]",
          "name": "",
          "type": "uint256[]"
        }
      ],
      "stateMutability": "view",
      "type": "function"
    },
    {
      "inputs": [
        {
          "internalType": "address",
          "name": "",
          "type": "address"
        }
      ],
      "name": "isUserStaking",
      "outputs": [
        {
          "internalType": "bool",
          "name": "",
          "type": "bool"
        }
      ],
      "stateMutability": "view",
      "type": "function"
    },
    {
      "inputs": [],
      "name": "massUpdatePools",
      "outputs": [],
      "stateMutability": "nonpayable",
      "type": "function"
    },
    {
      "inputs": [],
      "name": "minStakingPeriod",
      "outputs": [
        {
          "internalType": "uint256",
          "name": "",
          "type": "uint256"
        }
      ],
      "stateMutability": "view",
      "type": "function"
    },
    {
      "inputs": [],
      "name": "owner",
      "outputs": [
        {
          "internalType": "address",
          "name": "",
          "type": "address"
        }
      ],
      "stateMutability": "view",
      "type": "function"
    },
    {
      "inputs": [],
      "name": "pancakeRouter",
      "outputs": [
        {
          "internalType": "contract IPancakeRouter02",
          "name": "",
          "type": "address"
        }
      ],
      "stateMutability": "view",
      "type": "function"
    },
    {
      "inputs": [
        {
          "internalType": "uint256",
          "name": "_pid",
          "type": "uint256"
        },
        {
          "internalType": "address",
          "name": "_user",
          "type": "address"
        }
      ],
      "name": "pendingReward",
      "outputs": [
        {
          "internalType": "uint256",
          "name": "",
          "type": "uint256"
        }
      ],
      "stateMutability": "view",
      "type": "function"
    },
    {
      "inputs": [
        {
          "internalType": "uint256",
          "name": "",
          "type": "uint256"
        }
      ],
      "name": "poolInfo",
      "outputs": [
        {
          "internalType": "contract IERC20",
          "name": "lpToken",
          "type": "address"
        },
        {
          "internalType": "uint256",
          "name": "allocPoint",
          "type": "uint256"
        },
        {
          "internalType": "uint256",
          "name": "lastRewardBlock",
          "type": "uint256"
        },
        {
          "internalType": "uint256",
          "name": "accRewardPerShare",
          "type": "uint256"
        },
        {
          "internalType": "uint256",
          "name": "totalStaked",
          "type": "uint256"
        },
        {
          "internalType": "bool",
          "name": "isActive",
          "type": "bool"
        }
      ],
      "stateMutability": "view",
      "type": "function"
    },
    {
      "inputs": [],
      "name": "poolLength",
      "outputs": [
        {
          "internalType": "uint256",
          "name": "",
          "type": "uint256"
        }
      ],
      "stateMutability": "view",
      "type": "function"
    },
    {
      "inputs": [
        {
          "internalType": "contract IERC20",
          "name": "_token",
          "type": "address"
        }
      ],
      "name": "recoverToken",
      "outputs": [],
      "stateMutability": "nonpayable",
      "type": "function"
    },
    {
      "inputs": [],
      "name": "renounceOwnership",
      "outputs": [],
      "stateMutability": "nonpayable",
      "type": "function"
    },
    {
      "inputs": [],
      "name": "rewardPerBlock",
      "outputs": [
        {
          "internalType": "uint256",
          "name": "",
          "type": "uint256"
        }
      ],
      "stateMutability": "view",
      "type": "function"
    },
    {
      "inputs": [],
      "name": "rewardToken",
      "outputs": [
        {
          "internalType": "contract IERC20",
          "name": "",
          "type": "address"
        }
      ],
      "stateMutability": "view",
      "type": "function"
    },
    {
      "inputs": [],
      "name": "startBlock",
      "outputs": [
        {
          "internalType": "uint256",
          "name": "",
          "type": "uint256"
        }
      ],
      "stateMutability": "view",
      "type": "function"
    },
    {
      "inputs": [],
      "name": "totalAllocPoint",
      "outputs": [
        {
          "internalType": "uint256",
          "name": "",
          "type": "uint256"
        }
      ],
      "stateMutability": "view",
      "type": "function"
    },
    {
      "inputs": [],
      "name": "totalUsersStaking",
      "outputs": [
        {
          "internalType": "uint256",
          "name": "",
          "type": "uint256"
        }
      ],
      "stateMutability": "view",
      "type": "function"
    },
    {
      "inputs": [],
      "name": "totalValueLocked",
      "outputs": [
        {
          "internalType": "uint256",
          "name": "",
          "type": "uint256"
        }
      ],
      "stateMutability": "view",
      "type": "function"
    },
    {
      "inputs": [
        {
          "internalType": "address",
          "name": "newOwner",
          "type": "address"
        }
      ],
      "name": "transferOwnership",
      "outputs": [],
      "stateMutability": "nonpayable",
      "type": "function"
    },
    {
      "inputs": [
        {
          "internalType": "uint256",
          "name": "_earlyWithdrawalFee",
          "type": "uint256"
        }
      ],
      "name": "updateEarlyWithdrawalFee",
      "outputs": [],
      "stateMutability": "nonpayable",
      "type": "function"
    },
    {
      "inputs": [
        {
          "internalType": "uint256",
          "name": "_minStakingPeriod",
          "type": "uint256"
        }
      ],
      "name": "updateMinStakingPeriod",
      "outputs": [],
      "stateMutability": "nonpayable",
      "type": "function"
    },
    {
      "inputs": [
        {
          "internalType": "uint256",
          "name": "_pid",
          "type": "uint256"
        },
        {
          "internalType": "uint256",
          "name": "_allocPoint",
          "type": "uint256"
        },
        {
          "internalType": "bool",
          "name": "_isActive",
          "type": "bool"
        },
        {
          "internalType": "bool",
          "name": "_withUpdate",
          "type": "bool"
        }
      ],
      "name": "updatePool",
      "outputs": [],
      "stateMutability": "nonpayable",
      "type": "function"
    },
    {
      "inputs": [
        {
          "internalType": "uint256",
          "name": "_pid",
          "type": "uint256"
        }
      ],
      "name": "updatePoolRewards",
      "outputs": [],
      "stateMutability": "nonpayable",
      "type": "function"
    },
    {
      "inputs": [
        {
          "internalType": "uint256",
          "name": "_rewardPerBlock",
          "type": "uint256"
        }
      ],
      "name": "updateRewardPerBlock",
      "outputs": [],
      "stateMutability": "nonpayable",
      "type": "function"
    },
    {
      "inputs": [
        {
          "internalType": "uint256",
          "name": "",
          "type": "uint256"
        },
        {
          "internalType": "address",
          "name": "",
          "type": "address"
        }
      ],
      "name": "userInfo",
      "outputs": [
        {
          "internalType": "uint256",
          "name": "amount",
          "type": "uint256"
        },
        {
          "internalType": "uint256",
          "name": "rewardDebt",
          "type": "uint256"
        },
        {
          "internalType": "uint256",
          "name": "pendingRewards",
          "type": "uint256"
        },
        {
          "internalType": "uint256",
          "name": "lastStakeTime",
          "type": "uint256"
        },
        {
          "internalType": "bool",
          "name": "isStaking",
          "type": "bool"
        }
      ],
      "stateMutability": "view",
      "type": "function"
    },
    {
      "inputs": [
        {
          "internalType": "address",
          "name": "",
          "type": "address"
        },
        {
          "internalType": "uint256",
          "name": "",
          "type": "uint256"
        }
      ],
      "name": "userPools",
      "outputs": [
        {
          "internalType": "uint256",
          "name": "",
          "type": "uint256"
        }
      ],
      "stateMutability": "view",
      "type": "function"
    },
    {
      "inputs": [
        {
          "internalType": "uint256",
          "name": "_pid",
          "type": "uint256"
        },
        {
          "internalType": "uint256",
          "name": "_amount",
          "type": "uint256"
        }
      ],
      "name": "withdraw",
      "outputs": [],
      "stateMutability": "nonpayable",
      "type": "function"
    }
  ],
  "bytecode": "0x6080346100e957601f61223038819003918201601f19168301916001600160401b038311848410176100ee578084926080946040528339810103126100e95780516001600160a01b039190828116908190036100e95760208201519160606040820151910151928484168094036100e9576000549260018060a01b0319933385821617600055604051963391167f8be0079c531659141344cd1fd0a4f28419497f9722a3daafe3b4186f6b6457e0600080a360018055600060055562093a80600655600a600755836002541617600255600355600455600854161760085561212b90816101058239f35b600080fd5b634e487b7160e01b600052604160045260246000fdfe608060408181526004918236101561001657600080fd5b600092833560e01c918262ff815b14611b555750816301f8a97614611aec578163069c34f614611acd578163081e3eda14611aae5781630cf1f18b146118fe5781631064aa55146118a85781631069f3b514610df15781631526fe271461187b57816316330d401461185c57816317caf6f11461183d5781632f380b35146117d15781633632e6c61461172b578163441a3e701461136657816348cd4cb1146113485781635312ea8e14611118578163630b5ba1146110ff578163715018a6146110a15781637abceffd14610edc5781638ae39cac14610ebd5781638da5cb5b14610e955781639097051014610e7657816393f1a40b14610df15781639816af5814610d4157816398969e8214610c28578163993e013c14610bc75781639be65a6014610a46578163adb82b3114610a26578163ae169a5014610761578163c21ebd0714610738578163e2bbb1581461039f578163ec18154e14610380578163ef4336971461029e578163f2fde38b146101c5575063f7c618c11461019a57600080fd5b346101c157816003193601126101c15760025490516001600160a01b039091168152602090f35b5080fd5b90503461029a57602036600319011261029a576101e0611b90565b83546001600160a01b038082169391926101fb338614611c4f565b1693841561023a5750506001600160a01b031916821783557f8be0079c531659141344cd1fd0a4f28419497f9722a3daafe3b4186f6b6457e08380a380f35b5162461bcd60e51b8152602091810191909152603260248201527f4f776e61626c653a206e6f75766561752070726f707269c3a9746169726520656044820152717374206c2761647265737365207ac3a9726f60701b6064820152608490fd5b8280fd5b90503461029a57608036600319011261029a573590602435906102bf611c40565b9160643592831515840361037c577fec70f7b7f8beefa9ff0456053baafec83986e3915f156e2ed04b0acb57d7dd559361030360018060a01b038854163314611c4f565b61036f575b61032b82610326600554600161031d8a611bef565b50015490611ef7565b611e9e565b60055581600161033a87611bef565b50015561035f81600561034c88611bef565b50019060ff801983541691151516179055565b825191825215156020820152a280f35b610377611d46565b610308565b8580fd5b5050346101c157816003193601126101c157602090600c549051908152f35b90503461029a576103af36611c2a565b90916001936103c2600286541415611ddc565b600285556103d36009548510611e34565b82156106f55760ff60056103e686611bef565b50015416156106c3576103f884611bef565b5091848752602092600a845282882033895284528288209061041987611d6e565b815480610668575b50805484516323b872dd60e01b8152338582015230602482015260448101889052908690829060649082908e906001600160a01b03165af1801561065e5784939264e8d4a510009261049c92610631575b508481016104818a8254611e9e565b905560036104908a8654611e9e565b9182865501549061205c565b6000805160206120b68339815191528787516104b781611cb1565b601a8152015204888201554260038201550180549060ff821615610517575b505050907f90890809c654f11d6e72a28fa60149770a0d11ec6c92319d6ceb2bb0a4ea1a159161050884600c54611e9e565b600c55519283523392a3805580f35b60ff1991821688179055600b548088019081811161061e5781106105db57600b55338852600e84528683892091825460ff8116156105ce575b50505050600d8352818720805491600160401b8310156105bb57508161059d91887f90890809c654f11d6e72a28fa60149770a0d11ec6c92319d6ceb2bb0a4ea1a15969594018155611bc1565b81549060031b9087821b91600019901b1916179055909138806104d6565b634e487b7160e01b895260419052602488fd5b1617905538868180610550565b835162461bcd60e51b8152808401869052601b60248201527f536166654d6174683a206164646974696f6e206f766572666c6f7700000000006044820152606490fd5b634e487b7160e01b8a526011845260248afd5b61065090893d8b11610657575b6106488183611ce3565b810190611e72565b5038610472565b503d61063e565b85513d8c823e3d90fd5b61067a6106ac9160038401549061205c565b6000805160206120b683398151915287875161069581611cb1565b601a8152015264e8d4a510008a8501549104611ef7565b6106bb60028401918254611e9e565b905538610421565b906020606492519162461bcd60e51b8352820152600c60248201526b2837b7b61034b730b1ba34b360a11b6044820152fd5b906020606492519162461bcd60e51b8352820152601f60248201527f4d6f6e74616e7420646f697420657472652073757065726965757220612030006044820152fd5b5050346101c157816003193601126101c15760085490516001600160a01b039091168152602090f35b9190503461029a5760209081600319360112610a225782359161078960026001541415611ddc565b600260015561079b6009548410611e34565b6107a483611bef565b5091838652600a82528086203387528252808620926107c285611d6e565b60038454910190836107d583548361205c565b9184516107e181611cb1565b601a81526000805160206120b6833981519152928391015260018701936108206002610816875464e8d4a51000809804611ef7565b9901988954611e9e565b9788156109e1578b9055546108349161205c565b9085855161084181611cb1565b601a8152015204905560025481516370a0823160e01b8152308188015295906001600160a01b039081168488602481845afa9788156109d75789986109a4575b50878611156109235750600254835163a9059cbb60e01b815233938101938452602084019890985284928892908390036040019183918b91165af1948515610919577ff01da32686223933d8a18a391060918c7f11a3648639edd87ae013e2e27317439394956108fc575b505b519283523392a36001805580f35b61091290833d8511610657576106488183611ce3565b50386108ec565b81513d88823e3d90fd5b835163a9059cbb60e01b815233938101938452602084018790529750849288925082908a90829060400103925af1948515610919577ff01da32686223933d8a18a391060918c7f11a3648639edd87ae013e2e2731743939495610987575b506108ee565b61099d90833d8511610657576106488183611ce3565b5038610981565b9097508481813d83116109d0575b6109bc8183611ce3565b810103126109cc57519638610881565b8880fd5b503d6109b2565b84513d8b823e3d90fd5b60648b89808a519262461bcd60e51b845283015260248201527f5061732064652072c3a9636f6d70656e73657320c3a02072c3a9636c616d65726044820152fd5b8380fd5b8390346101c15760203660031901126101c157610a439035611d6e565b80f35b8383346101c1576020908160031936011261029a57610a63611b90565b83546001600160a01b0390811695918190610a7f338914611c4f565b1690600254168114610b695784958395949551926370a0823160e01b845230818501528684602481865afa938415610b5f579087949392918794610b2a575b50855163a9059cbb60e01b81526001600160a01b03909216908201908152602081019390935294859283919082906040015b03925af1908115610b215750610b04578280f35b81610b1a92903d10610657576106488183611ce3565b5081808280f35b513d85823e3d90fd5b8581969295503d8311610b58575b610b428183611ce3565b8101031261037c57925186939092610af0610abe565b503d610b38565b85513d88823e3d90fd5b50905162461bcd60e51b8152908101829052603160248201527f496d706f737369626c652064652072c3a9637570c3a9726572206c6520746f6b604482015270656e2064652072c3a9636f6d70656e736560781b6064820152608490fd5b9190503461029a57602036600319011261029a577f2cf1663bebfbd9a7f883960b23c5d337da307ec0f090edd9c2ebf7f7809b06f29135610c1260018060a01b038554163314611c4f565b600654908060065582519182526020820152a180f35b90503461029a578160031936011261029a576020926002610ccd610c9a8486610cd6963595610c55611bab565b610c5e88611bef565b50978252600a8b528282209060018060a01b031682528a5220946003810154918582015480431180610d35575b610cdd575b505050845461205c565b6000805160206120b6833981519152878751610cb581611cb1565b601a8152015264e8d4a5100060018501549104611ef7565b91015490611e9e565b9051908152f35b91610d2791610d1e610d19610d10610d05610cfc610d2d999843611ef7565b6003549061205c565b60018601549061205c565b60055490612081565b612039565b91015490612081565b90611e9e565b388080610c90565b50818301541515610c8b565b828434610dee5760209081600319360112610dee5782906001600160a01b03610d68611b90565b168152600d8352818120908251808584549182815201908194845286842090845b818110610dda5750505081610d9f910382611ce3565b83519485948186019282875251809352850193925b828110610dc357505050500390f35b835185528695509381019392810192600101610db4565b825484529288019260019283019201610d89565b80fd5b828434610dee5781600319360112610dee5781610e7291610e10611bab565b85358252600a6020528282209060018060a01b03168252602052209182549260018101549460ff60028301549160038401549301541692519586958693909594919260809360a086019786526020860152604085015260608401521515910152565b0390f35b5050346101c157816003193601126101c157602090600b549051908152f35b5050346101c157816003193601126101c157905490516001600160a01b039091168152602090f35b5050346101c157816003193601126101c1576020906003549051908152f35b8383346101c15760603660031901126101c1578235610ef9611bab565b610f01611c40565b84546001600160a01b03929190610f1b9084163314611c4f565b611094575b855480431160001461108e575043915b610f3c84600554611e9e565b60055584519160c0830183811067ffffffffffffffff82111761107b579082918752169283835260208301908582528684019081526060840190888252608085019289845260a086019460018652600954600160401b81101561106857806001610fa99201600955611bef565b9790976110565751875491166001600160a01b03199091161786555160018601555160028501555160038401555187830155516005909101805460ff191691151560ff1691909117905560095460001981019390841161104357516001600160a01b0391909116815260208101919091527f6c5d0ef1d0199b6de41ecbce95f59643be4d723ca363faf92d756e61e82fb13e90604090a280f35b634e487b7160e01b855260118652602485fd5b634e487b7160e01b8c528b8d5260248cfd5b634e487b7160e01b8c5260418d5260248cfd5b634e487b7160e01b885260418952602488fd5b91610f30565b61109c611d46565b610f20565b8334610dee5780600319360112610dee57805481906001600160a01b038116906110cc338314611c4f565b6001600160a01b03191682557f8be0079c531659141344cd1fd0a4f28419497f9722a3daafe3b4186f6b6457e08280a380f35b8334610dee5780600319360112610dee57610a43611d46565b90503461029a5760209081600319360112610a2257803590600192611141600285541415611ddc565b6002845561114e83611bef565b5094838752600a95868352818820338952835281882093808554958a81558a898201558a6002820155019160ff1992838154169055818101611191878254611ef7565b905554835163a9059cbb60e01b8152338382019081526020810188905290999186918b916001600160a01b03169082908e90829060400103925af198891561133e578899611321575b506111e786600c54611ef7565b600c55611223600b5461121e86516111fe81611cb1565b601e81526000805160206120d683398151915289820152828c1115611f34565b611d05565b600b55899182895b611281575b5050507fbb757047c2b5f3974fe26b7c10f732e7bce710b0952a71082702781e62ae0595949596501561126b575b50519283523392a3805580f35b338852600e83528188209081541690553861125e565b338c52600d87528b868120805483101561131a57876112a1848693611bc1565b90549060031b1c928c84141593846112fc575b505050506112cb576112c590611d37565b8961122b565b50899892507fbb757047c2b5f3974fe26b7c10f732e7bce710b0952a71082702781e62ae0595915038905080611230565b60ff94508152868b528181203382528b522001541682878e386112b4565b5050611230565b61133790863d8811610657576106488183611ce3565b50386111da565b84513d8c823e3d90fd5b90503461029a578260031936011261029a5760209250549051908152f35b8383346101c15761137636611c2a565b600192611387600285541415611ddc565b600284556113986009548410611e34565b6113a183611bef565b5090838652600a602092818452828820338952845282882098858a54106116f25788996113cd88611d6e565b856114c6868354958a8d856003996113ea8b86019182549061205c565b9286516113f681611cb1565b601a81526000805160206120b68339815191529384910152890193611424855464e8d4a51000809604611ef7565b61143360028c01918254611e9e565b90558a6114438d8c015442611ef7565b97829860065411611670575b50509061146061146b928b54611ef7565b90818b55549061205c565b90878d5161147881611cb1565b601a8152015204905585810161148f8c8254611ef7565b905554885163a9059cbb60e01b81523387820190815260208101939093529d8e936001600160a01b03909216928492839160400190565b03925af1998a1561166657899a611649575b506114e587600c54611ef7565b600c55805415611523575b8a8989897ff279e6a1f5e320cca91135676d9cb6e44ca8a08c0b88342bcdb1144f6511b5688a8a519283523392a3805580f35b81019260ff1993848154169055611564600b5461121e875161154481611cb1565b601e81526000805160206120d68339815191528a820152828d1115611f34565b600b558a92838a5b6115c1575b505050507ff279e6a1f5e320cca91135676d9cb6e44ca8a08c0b88342bcdb1144f6511b56894959650156115ab575b8695949381806114f0565b338852600e8352818820908154169055876115a0565b338d52600d88528c8781208054831015611642578860ff926115e4858994611bc1565b905490871b1c8152868c528181203382528c522001541661160e5761160890611d37565b8a61156c565b508a9993507ff279e6a1f5e320cca91135676d9cb6e44ca8a08c0b88342bcdb1144f6511b56892508c915081905080611571565b5050611571565b61165f90873d8911610657576106488183611ce3565b508b6114d8565b85513d8d823e3d90fd5b6114609198509161146b93926116cd8c6000805160206120d6833981519152606461169d6007548761205c565b8a8487516116aa81611cb1565b601a81520152049351916116bd83611cb1565b601e835282015283831115611f34565b6116e56116da8284611d2a565b9a8a01918254611ef7565b9055919250508a8e61144f565b835162461bcd60e51b81529081018590526013602482015272135bdb9d185b9d081a5b9cdd59999a5cd85b9d606a1b6044820152606490fd5b90503461029a57602036600319011261029a5780359061175560018060a01b038554163314611c4f565b601482116117975750907f72aa1ef4707dfa7defd1468e6ffc70bf9517ce19e3afad93fcf4be42f2d494f591600754908060075582519182526020820152a180f35b825162461bcd60e51b815260209181019190915260116024820152704665652074726f7020c3a96c6576c3a96560781b6044820152606490fd5b9190503461029a57602036600319011261029a5760c092506117f38235611bef565b5060018060a01b038154169260018201549260028301549060ff600560038601549486015495015416948151968752602087015285015260608401526080830152151560a0820152f35b5050346101c157816003193601126101c1576020906005549051908152f35b5050346101c157816003193601126101c1576020906007549051908152f35b9190503461029a57602036600319011261029a57813592600954841015610dee57506117f360c093611bef565b5050346101c157806003193601126101c1576118c2611b90565b6001600160a01b03168252600d60205280822080546024359390841015610dee57506020926118f091611bc1565b91905490519160031b1c8152f35b90503461029a578260031936011261029a57828091600954925b838110611929576020868651908152f35b61193281611bef565b5082810154908161194e575b505061194990611d37565b611918565b548651630240bc6b60e21b81529297926001600160a01b03909116919060609081818781875afa918215611aa4578792611a48575b50509061199b6001600160701b036119a09316611fbb565b61205c565b865180926318160ddd60e01b8252818660209384935afa928315611a3e578693611a0d575b50611a05926119499492611a00610d27936000805160206120b68339815191528c51916119f183611cb1565b601a8352820152831515611f34565b611f9b565b95903861193e565b9080935081813d8311611a37575b611a258183611ce3565b8101031261037c575191610d276119c5565b503d611a1b565b88513d88823e3d90fd5b90809250813d8311611a9d575b611a5f8183611ce3565b8101031261037c57611a7081611e8a565b5087611a7e60208301611e8a565b91015163ffffffff81160361037c5761199b6001600160701b03611983565b503d611a55565b89513d89823e3d90fd5b5050346101c157816003193601126101c1576020906009549051908152f35b5050346101c157816003193601126101c1576020906006549051908152f35b9190503461029a57602036600319011261029a577fc390a98ace15a7bb6bab611eedfdbb2685043b241a869420043cdfb23ccfee509135611b3760018060a01b038554163314611c4f565b611b3f611d46565b600354908060035582519182526020820152a180f35b8490843461029a57602036600319011261029a5760209260ff91906001600160a01b03611b80611b90565b168152600e855220541615158152f35b600435906001600160a01b0382168203611ba657565b600080fd5b602435906001600160a01b0382168203611ba657565b8054821015611bd95760005260206000200190600090565b634e487b7160e01b600052603260045260246000fd5b600954811015611bd9576006906009600052027f6e1540171b6c0c960b71a7020d9f60077f6af931a8bbf590da0223dacf75c7af0190600090565b6040906003190112611ba6576004359060243590565b604435908115158203611ba657565b15611c5657565b60405162461bcd60e51b815260206004820152602d60248201527f4f776e61626c653a206c5f617070656c616e74206e5f65737420706173206c6560448201526c2070726f70726965746169726560981b6064820152608490fd5b6040810190811067ffffffffffffffff821117611ccd57604052565b634e487b7160e01b600052604160045260246000fd5b90601f8019910116810190811067ffffffffffffffff821117611ccd57604052565b600019810191908211611d1457565b634e487b7160e01b600052601160045260246000fd5b91908203918211611d1457565b6000198114611d145760010190565b60095460005b818110611d57575050565b80611d64611d6992611d6e565b611d37565b611d4c565b611d7790611bef565b5060028101908154431115611dd8576004810154908115611dd157611dca90610d276003611db7610d10610d05611daf895443611ef7565b84549061205c565b920193611dc5855493612039565b612081565b9055439055565b5050439055565b5050565b15611de357565b60405162461bcd60e51b8152602060048201526024808201527f5265656e7472616e637947756172643a207265656e7472616e636520646574656044820152636374656560e01b6064820152608490fd5b15611e3b57565b60405162461bcd60e51b815260206004820152600f60248201526e141bdbdb081a5b995e1a5cdd185b9d608a1b6044820152606490fd5b90816020910312611ba657518015158103611ba65790565b51906001600160701b0382168203611ba657565b90810190818111611d14578110611eb25790565b60405162461bcd60e51b815260206004820152601b60248201527f536166654d6174683a206164646974696f6e206f766572666c6f7700000000006044820152606490fd5b90611f3191611f2c604051611f0b81611cb1565b601e81526000805160206120d6833981519152602082015282841115611f34565b611d2a565b90565b15611f3c5750565b6040519062461bcd60e51b82528160208060048301528251908160248401526000935b828510611f82575050604492506000838284010152601f80199101168101030190fd5b8481018201518686016044015293810193859350611f5f565b8115611fa5570490565b634e487b7160e01b600052601260045260246000fd5b8015612033578060011b90808204600203611d1457611fdc60029183611f9b565b03611fe45790565b60405162461bcd60e51b815260206004820152602160248201527f536166654d6174683a206d756c7469706c69636174696f6e206f766572666c6f6044820152607760f81b6064820152608490fd5b50600090565b80156120335764e8d4a51000808202918083048203611d1457611fdc9083611f9b565b90811561207a57808202918083048203611d1457611fdc9083611f9b565b5050600090565b90611f3191611a0060405161209581611cb1565b601a81526000805160206120b68339815191526020820152831515611f3456fe536166654d6174683a206469766973696f6e206279207a65726f000000000000536166654d6174683a207375627472616374696f6e206f766572666c6f770000a2646970667358221220cc108df7bfbc13cc502e63d90b7d6a536e4b69f6dd19094f753fb2f58e1707eb64736f6c63430008140033",
  "linkReferences": {},
  "deployedLinkReferences": {}
}